{
  "contractName": "FakeExchange",
  "abi": [
    {
      "inputs": [
        {
          "internalType": "contract AggregatorInterface",
          "name": "pp",
          "type": "address"
        },
        {
          "internalType": "contract FakeUSD",
          "name": "t",
          "type": "address"
        }
      ],
      "stateMutability": "nonpayable",
      "type": "constructor"
    },
    {
      "inputs": [],
      "name": "WETH",
      "outputs": [
        {
          "internalType": "address",
          "name": "",
          "type": "address"
        }
      ],
      "stateMutability": "view",
      "type": "function",
      "constant": true
    },
    {
      "inputs": [],
      "name": "spread",
      "outputs": [
        {
          "internalType": "uint256",
          "name": "",
          "type": "uint256"
        }
      ],
      "stateMutability": "view",
      "type": "function",
      "constant": true
    },
    {
      "stateMutability": "payable",
      "type": "receive",
      "payable": true
    },
    {
      "inputs": [
        {
          "internalType": "uint256",
          "name": "amountOutMin",
          "type": "uint256"
        },
        {
          "internalType": "address[]",
          "name": "path",
          "type": "address[]"
        },
        {
          "internalType": "address",
          "name": "to",
          "type": "address"
        },
        {
          "internalType": "uint256",
          "name": "",
          "type": "uint256"
        }
      ],
      "name": "swapExactETHForTokens",
      "outputs": [
        {
          "internalType": "uint256[]",
          "name": "amounts",
          "type": "uint256[]"
        }
      ],
      "stateMutability": "payable",
      "type": "function",
      "payable": true
    },
    {
      "inputs": [
        {
          "internalType": "uint256",
          "name": "tokens_sold",
          "type": "uint256"
        }
      ],
      "name": "getTokenToEthInputPrice",
      "outputs": [
        {
          "internalType": "uint256",
          "name": "eth_bought",
          "type": "uint256"
        }
      ],
      "stateMutability": "view",
      "type": "function",
      "constant": true
    },
    {
      "inputs": [
        {
          "internalType": "uint256",
          "name": "eth_sold",
          "type": "uint256"
        }
      ],
      "name": "getEthToTokenInputPrice",
      "outputs": [
        {
          "internalType": "uint256",
          "name": "tokens_bought",
          "type": "uint256"
        }
      ],
      "stateMutability": "view",
      "type": "function",
      "constant": true
    },
    {
      "inputs": [],
      "name": "withdrow",
      "outputs": [],
      "stateMutability": "nonpayable",
      "type": "function"
    }
  ],
  "bytecode": "0x60806040526063600155600280546001600160a01b0319163017905534801561002757600080fd5b506040516106033803806106038339818101604052604081101561004a57600080fd5b508051602090910151600080546001600160a01b039384166001600160a01b03199182161790915560038054939092169216919091179055610572806100916000396000f3fe6080604052600436106100595760003560e01c80633b874521146100655780635c25c76c1461007c5780637ff36ab5146100a357806395b68fe714610179578063ad5c4648146101a3578063cd7724c3146101d457610060565b3661006057005b600080fd5b34801561007157600080fd5b5061007a6101fe565b005b34801561008857600080fd5b5061009161022d565b60408051918252519081900360200190f35b610129600480360360808110156100b957600080fd5b813591908101906040810160208201356401000000008111156100db57600080fd5b8201836020820111156100ed57600080fd5b8035906020019184602083028401116401000000008311171561010f57600080fd5b91935091506001600160a01b038135169060200135610233565b60408051602080825283518183015283519192839290830191858101910280838360005b8381101561016557818101518382015260200161014d565b505050509050019250505060405180910390f35b34801561018557600080fd5b506100916004803603602081101561019c57600080fd5b5035610405565b3480156101af57600080fd5b506101b8610498565b604080516001600160a01b039092168252519081900360200190f35b3480156101e057600080fd5b50610091600480360360208110156101f757600080fd5b50356104a7565b60405133904780156108fc02916000818181858888f1935050505015801561022a573d6000803e3d6000fd5b50565b60015481565b6002546060906001600160a01b0316858560008161024d57fe5b905060200201356001600160a01b03166001600160a01b0316146102b8576040805162461bcd60e51b815260206004820152601d60248201527f556e69737761705632526f757465723a20494e56414c49445f50415448000000604482015290519081900360640190fd5b60006102c3346104a7565b90508681101561030f576040805162461bcd60e51b81526020600482015260126024820152710a6e0e4cac2c840d2e640e8dede40d0d2ced60731b604482015290519081900360640190fd5b600354604080516308934a5f60e31b81526001600160a01b038781166004830152602482018590529151919092169163449a52f891604480830192600092919082900301818387803b15801561036457600080fd5b505af1158015610378573d6000803e3d6000fd5b508792505067ffffffffffffffff82119050801561039557600080fd5b506040519080825280602002602001820160405280156103bf578160200160208202803683370190505b50915034826000815181106103d057fe5b602002602001018181525050808260018888905003815181106103ef57fe5b6020026020010181815250505095945050505050565b60006001546000809054906101000a90046001600160a01b03166001600160a01b03166350d25bcd6040518163ffffffff1660e01b815260040160206040518083038186803b15801561045757600080fd5b505afa15801561046b573d6000803e3d6000fd5b505050506040513d602081101561048157600080fd5b5051620f424084028161049057fe5b040292915050565b6002546001600160a01b031681565b60006402540be4006001546000809054906101000a90046001600160a01b03166001600160a01b03166350d25bcd6040518163ffffffff1660e01b815260040160206040518083038186803b1580156104ff57600080fd5b505afa158015610513573d6000803e3d6000fd5b505050506040513d602081101561052957600080fd5b50518402028161053557fe5b049291505056fea264697066735822122083d04a29a8f717e686eebbd33eadb6f35b3a95237dcda06bdbab33785c94bd7164736f6c63430006080033",
  "immutableReferences": {},
  "source": "/**\n * SPDX-License-Identifier: GPL-3.0-or-later\n * Hegic\n * Copyright (C) 2020 Hegic\n *\n * This program is free software: you can redistribute it and/or modify\n * it under the terms of the GNU General Public License as published by\n * the Free Software Foundation, either version 3 of the License, or\n * (at your option) any later version.\n *\n * This program is distributed in the hope that it will be useful,\n * but WITHOUT ANY WARRANTY; without even the implied warranty of\n * MERCHANTABILITY or FITNESS FOR A PARTICULAR PURPOSE.  See the\n * GNU General Public License for more details.\n *\n * You should have received a copy of the GNU General Public License\n * along with this program.  If not, see <http://www.gnu.org/licenses/>.\n */\n\npragma solidity ^0.6.8;\nimport \"../contracts/Interfaces.sol\";\n\n\ncontract FakeExchange {\n    AggregatorInterface price;\n\n    uint256 public spread = 99;\n    address public WETH = address(this);\n\n    constructor(AggregatorInterface pp, FakeUSD t) public {\n        price = pp;\n        token = t;\n    }\n\n    receive() external payable {}\n\n    FakeUSD token;\n\n    function swapExactETHForTokens(\n        uint256 amountOutMin,\n        address[] calldata path,\n        address to,\n        uint256\n    ) external payable returns (uint256[] memory amounts) {\n        require(path[0] == WETH, \"UniswapV2Router: INVALID_PATH\");\n        uint256 amount = getEthToTokenInputPrice(msg.value);\n        require(amount >= amountOutMin, \"Spread is too high\");\n        token.mintTo(to, amount);\n        amounts = new uint256[](path.length);\n        amounts[0] = msg.value;\n        amounts[path.length - 1] = amount;\n    }\n\n    function getTokenToEthInputPrice(uint256 tokens_sold)\n        public\n        view\n        returns (uint256 eth_bought)\n    {\n        eth_bought =\n            ((tokens_sold * 1e6) / uint256(price.latestAnswer())) *\n            spread;\n    }\n\n    function getEthToTokenInputPrice(uint256 eth_sold)\n        public\n        view\n        returns (uint256 tokens_bought)\n    {\n        tokens_bought =\n            (eth_sold * uint256(price.latestAnswer()) * spread) /\n            1e10;\n    }\n\n    function withdrow() public {\n        msg.sender.transfer(address(this).balance);\n    }\n}\n\n\ncontract FakePriceProvider {\n    uint256 public price;\n\n    constructor(uint256 p) public {\n        price = p;\n    }\n\n    function latestAnswer() external view returns (uint256) {\n        return price;\n    }\n\n    function setPrice(uint256 _price) public {\n        price = _price;\n    }\n}\n\n\ncontract FakeUSD is ERC20(\"FakeUSD\", \"FAKE\") {\n    function mintTo(address account, uint256 amount) public {\n        _mint(account, amount);\n    }\n\n    function mint(uint256 amount) public {\n        _mint(msg.sender, amount);\n    }\n}\n",
  "sourcePath": "/home/tom/Desktop/Medium/defi_cefi_bridge/tontine/hedge-contracts-v1/contracts/TestContracts.sol",
  "compiler": {
    "name": "solc",
    "version": "0.6.8+commit.0bbfe453.Emscripten.clang"
  },
  "schemaVersion": "3.2.3",
  "updatedAt": "2020-08-17T15:19:03.192Z",
  "networkType": "ethereum",
  "devdoc": {
    "methods": {}
  },
  "userdoc": {
    "methods": {}
  }
}