{
  "contractName": "HegicWBTCOptions",
  "abi": [
    {
      "inputs": [
        {
          "internalType": "contract AggregatorV3Interface",
          "name": "_priceProvider",
          "type": "address"
        },
        {
          "internalType": "contract IUniswapV2Router01",
          "name": "_uniswap",
          "type": "address"
        },
        {
          "internalType": "contract ERC20",
          "name": "token",
          "type": "address"
        },
        {
          "internalType": "contract IHegicStakingERC20",
          "name": "_settlementFeeRecipient",
          "type": "address"
        }
      ],
      "stateMutability": "nonpayable",
      "type": "constructor"
    },
    {
      "anonymous": false,
      "inputs": [
        {
          "indexed": true,
          "internalType": "uint256",
          "name": "id",
          "type": "uint256"
        },
        {
          "indexed": true,
          "internalType": "address",
          "name": "account",
          "type": "address"
        },
        {
          "indexed": false,
          "internalType": "uint256",
          "name": "settlementFee",
          "type": "uint256"
        },
        {
          "indexed": false,
          "internalType": "uint256",
          "name": "totalFee",
          "type": "uint256"
        }
      ],
      "name": "Create",
      "type": "event"
    },
    {
      "anonymous": false,
      "inputs": [
        {
          "indexed": true,
          "internalType": "uint256",
          "name": "id",
          "type": "uint256"
        },
        {
          "indexed": false,
          "internalType": "uint256",
          "name": "profit",
          "type": "uint256"
        }
      ],
      "name": "Exercise",
      "type": "event"
    },
    {
      "anonymous": false,
      "inputs": [
        {
          "indexed": true,
          "internalType": "uint256",
          "name": "id",
          "type": "uint256"
        },
        {
          "indexed": false,
          "internalType": "uint256",
          "name": "premium",
          "type": "uint256"
        }
      ],
      "name": "Expire",
      "type": "event"
    },
    {
      "anonymous": false,
      "inputs": [
        {
          "indexed": true,
          "internalType": "address",
          "name": "previousOwner",
          "type": "address"
        },
        {
          "indexed": true,
          "internalType": "address",
          "name": "newOwner",
          "type": "address"
        }
      ],
      "name": "OwnershipTransferred",
      "type": "event"
    },
    {
      "inputs": [
        {
          "internalType": "uint256",
          "name": "",
          "type": "uint256"
        }
      ],
      "name": "ethToWbtcSwapPath",
      "outputs": [
        {
          "internalType": "address",
          "name": "",
          "type": "address"
        }
      ],
      "stateMutability": "view",
      "type": "function"
    },
    {
      "inputs": [],
      "name": "impliedVolRate",
      "outputs": [
        {
          "internalType": "uint256",
          "name": "",
          "type": "uint256"
        }
      ],
      "stateMutability": "view",
      "type": "function"
    },
    {
      "inputs": [],
      "name": "optionCollateralizationRatio",
      "outputs": [
        {
          "internalType": "uint256",
          "name": "",
          "type": "uint256"
        }
      ],
      "stateMutability": "view",
      "type": "function"
    },
    {
      "inputs": [
        {
          "internalType": "uint256",
          "name": "",
          "type": "uint256"
        }
      ],
      "name": "options",
      "outputs": [
        {
          "internalType": "enum IHegicOptions.State",
          "name": "state",
          "type": "uint8"
        },
        {
          "internalType": "address payable",
          "name": "holder",
          "type": "address"
        },
        {
          "internalType": "uint256",
          "name": "strike",
          "type": "uint256"
        },
        {
          "internalType": "uint256",
          "name": "amount",
          "type": "uint256"
        },
        {
          "internalType": "uint256",
          "name": "lockedAmount",
          "type": "uint256"
        },
        {
          "internalType": "uint256",
          "name": "premium",
          "type": "uint256"
        },
        {
          "internalType": "uint256",
          "name": "expiration",
          "type": "uint256"
        },
        {
          "internalType": "enum IHegicOptions.OptionType",
          "name": "optionType",
          "type": "uint8"
        }
      ],
      "stateMutability": "view",
      "type": "function"
    },
    {
      "inputs": [],
      "name": "owner",
      "outputs": [
        {
          "internalType": "address",
          "name": "",
          "type": "address"
        }
      ],
      "stateMutability": "view",
      "type": "function"
    },
    {
      "inputs": [],
      "name": "pool",
      "outputs": [
        {
          "internalType": "contract HegicERCPool",
          "name": "",
          "type": "address"
        }
      ],
      "stateMutability": "view",
      "type": "function"
    },
    {
      "inputs": [],
      "name": "priceProvider",
      "outputs": [
        {
          "internalType": "contract AggregatorV3Interface",
          "name": "",
          "type": "address"
        }
      ],
      "stateMutability": "view",
      "type": "function"
    },
    {
      "inputs": [],
      "name": "renounceOwnership",
      "outputs": [],
      "stateMutability": "nonpayable",
      "type": "function"
    },
    {
      "inputs": [],
      "name": "settlementFeeRecipient",
      "outputs": [
        {
          "internalType": "contract IHegicStakingERC20",
          "name": "",
          "type": "address"
        }
      ],
      "stateMutability": "view",
      "type": "function"
    },
    {
      "inputs": [
        {
          "internalType": "address",
          "name": "newOwner",
          "type": "address"
        }
      ],
      "name": "transferOwnership",
      "outputs": [],
      "stateMutability": "nonpayable",
      "type": "function"
    },
    {
      "inputs": [],
      "name": "uniswapRouter",
      "outputs": [
        {
          "internalType": "contract IUniswapV2Router01",
          "name": "",
          "type": "address"
        }
      ],
      "stateMutability": "view",
      "type": "function"
    },
    {
      "inputs": [],
      "name": "wbtc",
      "outputs": [
        {
          "internalType": "contract IERC20",
          "name": "",
          "type": "address"
        }
      ],
      "stateMutability": "view",
      "type": "function"
    },
    {
      "inputs": [],
      "name": "transferPoolOwnership",
      "outputs": [],
      "stateMutability": "nonpayable",
      "type": "function"
    },
    {
      "inputs": [
        {
          "internalType": "uint256",
          "name": "value",
          "type": "uint256"
        }
      ],
      "name": "setImpliedVolRate",
      "outputs": [],
      "stateMutability": "nonpayable",
      "type": "function"
    },
    {
      "inputs": [
        {
          "internalType": "contract IHegicStakingERC20",
          "name": "recipient",
          "type": "address"
        }
      ],
      "name": "setSettlementFeeRecipient",
      "outputs": [],
      "stateMutability": "nonpayable",
      "type": "function"
    },
    {
      "inputs": [
        {
          "internalType": "uint256",
          "name": "value",
          "type": "uint256"
        }
      ],
      "name": "setOptionCollaterizationRatio",
      "outputs": [],
      "stateMutability": "nonpayable",
      "type": "function"
    },
    {
      "inputs": [
        {
          "internalType": "uint256",
          "name": "period",
          "type": "uint256"
        },
        {
          "internalType": "uint256",
          "name": "amount",
          "type": "uint256"
        },
        {
          "internalType": "uint256",
          "name": "strike",
          "type": "uint256"
        },
        {
          "internalType": "enum IHegicOptions.OptionType",
          "name": "optionType",
          "type": "uint8"
        }
      ],
      "name": "create",
      "outputs": [
        {
          "internalType": "uint256",
          "name": "optionID",
          "type": "uint256"
        }
      ],
      "stateMutability": "payable",
      "type": "function"
    },
    {
      "inputs": [
        {
          "internalType": "uint256",
          "name": "optionID",
          "type": "uint256"
        },
        {
          "internalType": "address payable",
          "name": "newHolder",
          "type": "address"
        }
      ],
      "name": "transfer",
      "outputs": [],
      "stateMutability": "nonpayable",
      "type": "function"
    },
    {
      "inputs": [
        {
          "internalType": "uint256",
          "name": "optionID",
          "type": "uint256"
        }
      ],
      "name": "exercise",
      "outputs": [],
      "stateMutability": "nonpayable",
      "type": "function"
    },
    {
      "inputs": [
        {
          "internalType": "uint256[]",
          "name": "optionIDs",
          "type": "uint256[]"
        }
      ],
      "name": "unlockAll",
      "outputs": [],
      "stateMutability": "nonpayable",
      "type": "function"
    },
    {
      "inputs": [],
      "name": "approve",
      "outputs": [],
      "stateMutability": "nonpayable",
      "type": "function"
    },
    {
      "inputs": [
        {
          "internalType": "uint256",
          "name": "period",
          "type": "uint256"
        },
        {
          "internalType": "uint256",
          "name": "amount",
          "type": "uint256"
        },
        {
          "internalType": "uint256",
          "name": "strike",
          "type": "uint256"
        },
        {
          "internalType": "enum IHegicOptions.OptionType",
          "name": "optionType",
          "type": "uint8"
        }
      ],
      "name": "fees",
      "outputs": [
        {
          "internalType": "uint256",
          "name": "total",
          "type": "uint256"
        },
        {
          "internalType": "uint256",
          "name": "totalETH",
          "type": "uint256"
        },
        {
          "internalType": "uint256",
          "name": "settlementFee",
          "type": "uint256"
        },
        {
          "internalType": "uint256",
          "name": "strikeFee",
          "type": "uint256"
        },
        {
          "internalType": "uint256",
          "name": "periodFee",
          "type": "uint256"
        }
      ],
      "stateMutability": "view",
      "type": "function"
    },
    {
      "inputs": [
        {
          "internalType": "uint256",
          "name": "optionID",
          "type": "uint256"
        }
      ],
      "name": "unlock",
      "outputs": [],
      "stateMutability": "nonpayable",
      "type": "function"
    }
  ],
  "bytecode": "0x608060405260646004553480156200001657600080fd5b50604051620051e7380380620051e7833981810160405260808110156200003c57600080fd5b508051602082015160408301516060909301519192909160006200005f62000281565b600080546001600160a01b0319166001600160a01b0383169081178255604051929350917f8be0079c531659141344cd1fd0a4f28419497f9722a3daafe3b4186f6b6457e0908290a35081604051620000b890620006cc565b6001600160a01b03909116815260405190819003602001906000f080158015620000e6573d6000803e3d6000fd5b50600780546001600160a01b03199081166001600160a01b0393841617909155600a8054821685841617905560068054821687841617905560018054821684841617905561157c60035560088054909116918516919091179055426005556200014e62000285565b6040805160028082526060820183529091602083019080368337505081516200017f926009925060200190620006da565b50600860009054906101000a90046001600160a01b03166001600160a01b031663ad5c46486040518163ffffffff1660e01b815260040160206040518083038186803b158015620001cf57600080fd5b505afa158015620001e4573d6000803e3d6000fd5b505050506040513d6020811015620001fb57600080fd5b5051600980546000906200020b57fe5b600091825260209091200180546001600160a01b0319166001600160a01b03928316179055600a546009805491909216919060019081106200024957fe5b9060005260206000200160006101000a8154816001600160a01b0302191690836001600160a01b031602179055505050505062000765565b3390565b600754600a54620002b2916001600160a01b039182169116600019620002e1602090811b6200169517901c565b600154600a54620002df916001600160a01b039182169116600019620002e1602090811b6200169517901c565b565b8015806200036b575060408051636eb1769f60e11b81523060048201526001600160a01b03848116602483015291519185169163dd62ed3e91604480820192602092909190829003018186803b1580156200033b57600080fd5b505afa15801562000350573d6000803e3d6000fd5b505050506040513d60208110156200036757600080fd5b5051155b620003a85760405162461bcd60e51b8152600401808060200182810382526036815260200180620051b16036913960400191505060405180910390fd5b604080516001600160a01b038416602482015260448082018490528251808303909101815260649091019091526020810180516001600160e01b0390811663095ea7b360e01b17909152620004009185916200040516565b505050565b606062000461826040518060400160405280602081526020017f5361666545524332303a206c6f772d6c6576656c2063616c6c206661696c6564815250856001600160a01b0316620004c160201b620017ad179092919060201c565b80519091501562000400578080602001905160208110156200048257600080fd5b5051620004005760405162461bcd60e51b815260040180806020018281038252602a81526020018062005187602a913960400191505060405180910390fd5b6060620004d28484600085620004da565b949350505050565b6060620004e78562000692565b62000539576040805162461bcd60e51b815260206004820152601d60248201527f416464726573733a2063616c6c20746f206e6f6e2d636f6e7472616374000000604482015290519081900360640190fd5b60006060866001600160a01b031685876040518082805190602001908083835b602083106200057a5780518252601f19909201916020918201910162000559565b6001836020036101000a03801982511681845116808217855250505050505090500191505060006040518083038185875af1925050503d8060008114620005de576040519150601f19603f3d011682016040523d82523d6000602084013e620005e3565b606091505b50915091508115620005f9579150620004d29050565b8051156200060a5780518082602001fd5b8360405162461bcd60e51b81526004018080602001828103825283818151815260200191508051906020019080838360005b83811015620006565781810151838201526020016200063c565b50505050905090810190601f168015620006845780820380516001836020036101000a031916815260200191505b509250505060405180910390fd5b6000813f7fc5d2460186f7233c927e7db2dcc703c0e500b653ca82273b7bfad8045d85a470818114801590620004d2575050151592915050565b61264c8062002b3b83390190565b82805482825590600052602060002090810192821562000732579160200282015b828111156200073257825182546001600160a01b0319166001600160a01b03909116178255602090920191600190910190620006fb565b506200074092915062000744565b5090565b5b80821115620007405780546001600160a01b031916815560010162000745565b6123c680620007756000396000f3fe6080604052600436106101405760003560e01c8063735de9f7116100b6578063b888879e1161006f578063b888879e146103f3578063c7c3b53f14610408578063ceaeeba914610472578063e2bef7541461049c578063e342b598146104c6578063f2fde38b1461054357610140565b8063735de9f71461030157806380478ad1146103165780638da5cb5b1461034857806396350a851461035d578063b07f0a4114610390578063b7760c8f146103ba57610140565b8063302ce65111610108578063302ce651146101f35780633cdc538914610208578063409e22051461021d578063410fa5d9146102ad5780636198e339146102c2578063715018a6146102ec57610140565b806312424e3f1461014557806316f0115b1461015c578063181731dc1461018d57806318a77e9a146101a257806318f88e5b146101cc575b600080fd5b34801561015157600080fd5b5061015a610576565b005b34801561016857600080fd5b506101716105b6565b604080516001600160a01b039092168252519081900360200190f35b34801561019957600080fd5b506101716105c5565b3480156101ae57600080fd5b50610171600480360360208110156101c557600080fd5b50356105d4565b3480156101d857600080fd5b506101e16105fb565b60408051918252519081900360200190f35b3480156101ff57600080fd5b506101e1610601565b34801561021457600080fd5b50610171610607565b34801561022957600080fd5b506102476004803603602081101561024057600080fd5b5035610616565b6040518089600381111561025757fe5b8152602001886001600160a01b0316815260200187815260200186815260200185815260200184815260200183815260200182600281111561029557fe5b81526020019850505050505050505060405180910390f35b3480156102b957600080fd5b5061015a610678565b3480156102ce57600080fd5b5061015a600480360360208110156102e557600080fd5b5035610755565b3480156102f857600080fd5b5061015a6108d4565b34801561030d57600080fd5b50610171610976565b6101e16004803603608081101561032c57600080fd5b508035906020810135906040810135906060013560ff16610985565b34801561035457600080fd5b50610171610e11565b34801561036957600080fd5b5061015a6004803603602081101561038057600080fd5b50356001600160a01b0316610e20565b34801561039c57600080fd5b5061015a600480360360208110156103b357600080fd5b5035610ec0565b3480156103c657600080fd5b5061015a600480360360408110156103dd57600080fd5b50803590602001356001600160a01b0316611027565b3480156103ff57600080fd5b506101716111c7565b34801561041457600080fd5b506104476004803603608081101561042b57600080fd5b508035906020810135906040810135906060013560ff166111d6565b6040805195865260208601949094528484019290925260608401526080830152519081900360a00190f35b34801561047e57600080fd5b5061015a6004803603602081101561049557600080fd5b5035611422565b3480156104a857600080fd5b5061015a600480360360208110156104bf57600080fd5b50356114c0565b3480156104d257600080fd5b5061015a600480360360208110156104e957600080fd5b81019060208101813564010000000081111561050457600080fd5b82018360208201111561051657600080fd5b8035906020019184602083028401116401000000008311171561053857600080fd5b50909250905061156e565b34801561054f57600080fd5b5061015a6004803603602081101561056657600080fd5b50356001600160a01b031661159d565b600754600a54610595916001600160a01b039182169116600019611695565b600154600a546105b4916001600160a01b039182169116600019611695565b565b6007546001600160a01b031681565b6001546001600160a01b031681565b600981815481106105e157fe5b6000918252602090912001546001600160a01b0316905081565b60035481565b60045481565b600a546001600160a01b031681565b6002818154811061062357fe5b6000918252602090912060079091020180546001820154600283015460038401546004850154600586015460069096015460ff80871698506101009096046001600160a01b0316969495939492939192911688565b6106806117c4565b6000546001600160a01b039081169116146106d0576040805162461bcd60e51b815260206004820181905260248201526000805160206122c9833981519152604482015290519081900360640190fd5b600554621275000142106106e357600080fd5b6007546001600160a01b031663f2fde38b6106fc610e11565b6040518263ffffffff1660e01b815260040180826001600160a01b03168152602001915050600060405180830381600087803b15801561073b57600080fd5b505af115801561074f573d6000803e3d6000fd5b50505050565b60006002828154811061076457fe5b90600052602060002090600702019050428160050154106107cc576040805162461bcd60e51b815260206004820152601a60248201527f4f7074696f6e20686173206e6f74206578706972656420796574000000000000604482015290519081900360640190fd5b6001815460ff1660038111156107de57fe5b14610827576040805162461bcd60e51b81526020600482015260146024820152734f7074696f6e206973206e6f742061637469766560601b604482015290519081900360640190fd5b805460ff1916600317815560075460408051636198e33960e01b81526004810185905290516001600160a01b0390921691636198e3399160248082019260009290919082900301818387803b15801561087f57600080fd5b505af1158015610893573d6000803e3d6000fd5b505050600482015460408051918252518492507f5f36a4a575e512eb69d6d28c3b0ff98cca7ba50ad5bf04e14094ad1d425e0d319181900360200190a25050565b6108dc6117c4565b6000546001600160a01b0390811691161461092c576040805162461bcd60e51b815260206004820181905260248201526000805160206122c9833981519152604482015290519081900360640190fd5b600080546040516001600160a01b03909116907f8be0079c531659141344cd1fd0a4f28419497f9722a3daafe3b4186f6b6457e0908390a3600080546001600160a01b0319169055565b6008546001600160a01b031681565b6000806000806000610999898989896111d6565b509296509094509250905060028660028111156109b257fe5b14806109c9575060018660028111156109c757fe5b145b610a0e576040805162461bcd60e51b815260206004820152601160248201527057726f6e67206f7074696f6e207479706560781b604482015290519081900360640190fd5b62015180891015610a5c576040805162461bcd60e51b815260206004820152601360248201527214195c9a5bd9081a5cc81d1bdbc81cda1bdc9d606a1b604482015290519081900360640190fd5b6224ea00891115610aa9576040805162461bcd60e51b8152602060048201526012602482015271506572696f6420697320746f6f206c6f6e6760701b604482015290519081900360640190fd5b808811610afd576040805162461bcd60e51b815260206004820152601d60248201527f707269636520646966666572656e636520697320746f6f206c61726765000000604482015290519081900360640190fd5b6000610b0989836117c8565b90506000610b1786856117c8565b60025497509050610b26612228565b6040805161010081019091528060018152602001336001600160a01b031681526020018b81526020018c8152602001610b7f86610b796064610b736004548a61181390919063ffffffff16565b9061186c565b906118ae565b81526020018381526020018d420181526020018a6002811115610b9e57fe5b905290506000610bae8789611908565b905034811015610bf057336108fc610bc634846117c8565b6040518115909202916000818181858888f19350505050158015610bee573d6000803e3d6000fd5b505b6002805460018181018355600092909252835160079091027f405787fa12a823e0f2b7631cc41b3ba8828b3321ca811111fa75cd3aa3bb5ace0180548593919291839160ff191690836003811115610c4457fe5b021790555060208201518160000160016101000a8154816001600160a01b0302191690836001600160a01b0316021790555060408201518160010155606082015181600201556080820151816003015560a0820151816004015560c0820151816005015560e08201518160060160006101000a81548160ff02191690836002811115610ccc57fe5b02179055505060015460408051635fc0d2dd60e01b8152600481018a905290516001600160a01b039092169250635fc0d2dd91602480830192600092919082900301818387803b158015610d1f57600080fd5b505af1158015610d33573d6000803e3d6000fd5b50505050600760009054906101000a90046001600160a01b03166001600160a01b031663edd0d4218a84608001518560a001516040518463ffffffff1660e01b8152600401808481526020018381526020018281526020019350505050600060405180830381600087803b158015610daa57600080fd5b505af1158015610dbe573d6000803e3d6000fd5b505060408051898152602081018c905281513394508d93507f9acccf962da4ed9c3db3a1beedb70b0d4c3f6a69c170baca7198a74548b5ef4e929181900390910190a35050505050505050949350505050565b6000546001600160a01b031690565b610e286117c4565b6000546001600160a01b03908116911614610e78576040805162461bcd60e51b815260206004820181905260248201526000805160206122c9833981519152604482015290519081900360640190fd5b60055462127500014210610e8b57600080fd5b6001600160a01b038116610e9e57600080fd5b600180546001600160a01b0319166001600160a01b0392909216919091179055565b600060028281548110610ecf57fe5b906000526020600020906007020190504281600501541015610f2d576040805162461bcd60e51b815260206004820152601260248201527113dc1d1a5bdb881a185cc8195e1c1a5c995960721b604482015290519081900360640190fd5b805461010090046001600160a01b03163314610f83576040805162461bcd60e51b815260206004820152601060248201526f2bb937b7339036b9b39739b2b73232b960811b604482015290519081900360640190fd5b6001815460ff166003811115610f9557fe5b14610fd5576040805162461bcd60e51b815260206004820152600b60248201526a57726f6e6720737461746560a81b604482015290519081900360640190fd5b805460ff191660021781556000610feb83611aaa565b60408051828152905191925084917e84fe51c7cb34b132b7b6eb5d5a87a489f8d6d284758d00a0402c1bad9a0def9181900360200190a2505050565b60006002838154811061103657fe5b9060005260206000209060070201905060006001600160a01b0316826001600160a01b031614156110ae576040805162461bcd60e51b815260206004820152601a60248201527f6e657720686f6c6465722061646472657373206973207a65726f000000000000604482015290519081900360640190fd5b42816005015410156110fc576040805162461bcd60e51b815260206004820152601260248201527113dc1d1a5bdb881a185cc8195e1c1a5c995960721b604482015290519081900360640190fd5b805461010090046001600160a01b03163314611152576040805162461bcd60e51b815260206004820152601060248201526f2bb937b7339036b9b39739b2b73232b960811b604482015290519081900360640190fd5b6001815460ff16600381111561116457fe5b146111a05760405162461bcd60e51b815260040180806020018281038252602781526020018061236a6027913960400191505060405180910390fd5b80546001600160a01b0390921661010002610100600160a81b031990921691909117905550565b6006546001600160a01b031681565b600080600080600080600660009054906101000a90046001600160a01b03166001600160a01b031663feaf968c6040518163ffffffff1660e01b815260040160a06040518083038186803b15801561122d57600080fd5b505afa158015611241573d6000803e3d6000fd5b505050506040513d60a081101561125757600080fd5b50602001519050806112688a611da4565b94506112778a8c8b848c611dab565b92506112858a8a838b611e1c565b935061129585610b7985876118ae565b600854604080516307c0329d60e21b815260048101848152602482019283526009805460448401819052959c506001600160a01b0390941694631f00ca74948d94909390916064909101908490801561131757602002820191906000526020600020905b81546001600160a01b031681526001909101906020018083116112f9575b5050935050505060006040518083038186803b15801561133657600080fd5b505afa15801561134a573d6000803e3d6000fd5b505050506040513d6000823e601f3d908101601f19168201604052602081101561137357600080fd5b810190808051604051939291908464010000000082111561139357600080fd5b9083019060208201858111156113a857600080fd5b82518660208202830111640100000000821117156113c557600080fd5b82525081516020918201928201910280838360005b838110156113f25781810151838201526020016113da565b5050505090500160405250505060008151811061140b57fe5b602002602001015195505050945094509450945094565b61142a6117c4565b6000546001600160a01b0390811691161461147a576040805162461bcd60e51b815260206004820181905260248201526000805160206122c9833981519152604482015290519081900360640190fd5b6103e88110156114bb5760405162461bcd60e51b81526004018080602001828103825260218152602001806123136021913960400191505060405180910390fd5b600355565b6114c86117c4565b6000546001600160a01b03908116911614611518576040805162461bcd60e51b815260206004820181905260248201526000805160206122c9833981519152604482015290519081900360640190fd5b8060321115801561152a575060648111155b611569576040805162461bcd60e51b815260206004820152600b60248201526a77726f6e672076616c756560a81b604482015290519081900360640190fd5b600455565b8060005b8181101561074f5761159584848381811061158957fe5b90506020020135610755565b600101611572565b6115a56117c4565b6000546001600160a01b039081169116146115f5576040805162461bcd60e51b815260206004820181905260248201526000805160206122c9833981519152604482015290519081900360640190fd5b6001600160a01b03811661163a5760405162461bcd60e51b81526004018080602001828103825260268152602001806122826026913960400191505060405180910390fd5b600080546040516001600160a01b03808516939216917f8be0079c531659141344cd1fd0a4f28419497f9722a3daafe3b4186f6b6457e091a3600080546001600160a01b0319166001600160a01b0392909216919091179055565b80158061171b575060408051636eb1769f60e11b81523060048201526001600160a01b03848116602483015291519185169163dd62ed3e91604480820192602092909190829003018186803b1580156116ed57600080fd5b505afa158015611701573d6000803e3d6000fd5b505050506040513d602081101561171757600080fd5b5051155b6117565760405162461bcd60e51b81526004018080602001828103825260368152602001806123346036913960400191505060405180910390fd5b604080516001600160a01b038416602482015260448082018490528251808303909101815260649091019091526020810180516001600160e01b031663095ea7b360e01b1790526117a8908490611e92565b505050565b60606117bc8484600085611f43565b949350505050565b3390565b600061180a83836040518060400160405280601e81526020017f536166654d6174683a207375627472616374696f6e206f766572666c6f7700008152506120ee565b90505b92915050565b6000826118225750600061180d565b8282028284828161182f57fe5b041461180a5760405162461bcd60e51b81526004018080602001828103825260218152602001806122a86021913960400191505060405180910390fd5b600061180a83836040518060400160405280601a81526020017f536166654d6174683a206469766973696f6e206279207a65726f000000000000815250612148565b60008282018381101561180a576040805162461bcd60e51b815260206004820152601b60248201527f536166654d6174683a206164646974696f6e206f766572666c6f770000000000604482015290519081900360640190fd5b60085460405163fb3bdb4160e01b8152600481018381523060448301819052426064840181905260806024850190815260098054608487018190526000976060976001600160a01b039091169663fb3bdb41968c968c969194909360a401908690801561199e57602002820191906000526020600020905b81546001600160a01b03168152600190910190602001808311611980575b5050955050505050506000604051808303818588803b1580156119c057600080fd5b505af11580156119d4573d6000803e3d6000fd5b50505050506040513d6000823e601f3d908101601f1916820160405260208110156119fe57600080fd5b8101908080516040519392919084640100000000821115611a1e57600080fd5b908301906020820185811115611a3357600080fd5b8251866020820283011164010000000082111715611a5057600080fd5b82525081516020918201928201910280838360005b83811015611a7d578181015183820152602001611a65565b50505050905001604052505050905080600081518110611a9957fe5b602002602001015191505092915050565b6000611ab4612228565b60028381548110611ac157fe5b600091825260209091206040805161010081019091526007909202018054829060ff166003811115611aef57fe5b6003811115611afa57fe5b8152815461010090046001600160a01b0316602082015260018201546040820152600280830154606083015260038301546080830152600483015460a0830152600583015460c0830152600683015460e09092019160ff1690811115611b5c57fe5b6002811115611b6757fe5b8152505090506000600660009054906101000a90046001600160a01b03166001600160a01b031663feaf968c6040518163ffffffff1660e01b815260040160a06040518083038186803b158015611bbd57600080fd5b505afa158015611bd1573d6000803e3d6000fd5b505050506040513d60a0811015611be757600080fd5b506020015190508060028360e001516002811115611c0157fe5b1415611c90578083604001511115611c60576040805162461bcd60e51b815260206004820152601860248201527f43757272656e7420707269636520697320746f6f206c6f770000000000000000604482015290519081900360640190fd5b611c8981610b738560600151611c838760400151866117c890919063ffffffff16565b90611813565b9350611d0f565b8083604001511015611ce9576040805162461bcd60e51b815260206004820152601960248201527f43757272656e7420707269636520697320746f6f206869676800000000000000604482015290519081900360640190fd5b611d0c81610b738560600151611c838588604001516117c890919063ffffffff16565b93505b8260800151841115611d2357826080015193505b6007546020840151604080516381b34f1560e01b8152600481018990526001600160a01b03928316602482015260448101889052905191909216916381b34f1591606480830192600092919082900301818387803b158015611d8457600080fd5b505af1158015611d98573d6000803e3d6000fd5b50505050505050919050565b6064900490565b60006001826002811115611dbb57fe5b1415611df157611dea6305f5e100610b7385610b7388611c83600354611c83611de38e6121ad565b8f90611813565b9050611e13565b611dea6305f5e100610b7386610b7387611c83600354611c83611de38e6121ad565b95945050505050565b60008284118015611e3857506001826002811115611e3657fe5b145b15611e5657611e4f83610b7387611c8388846117c8565b90506117bc565b8284108015611e7057506002826002811115611e6e57fe5b145b15611e8757611e4f83610b7387611c8383896117c8565b506000949350505050565b6060611ee7826040518060400160405280602081526020017f5361666545524332303a206c6f772d6c6576656c2063616c6c206661696c6564815250856001600160a01b03166117ad9092919063ffffffff16565b8051909150156117a857808060200190516020811015611f0657600080fd5b50516117a85760405162461bcd60e51b815260040180806020018281038252602a8152602001806122e9602a913960400191505060405180910390fd5b6060611f4e856121ef565b611f9f576040805162461bcd60e51b815260206004820152601d60248201527f416464726573733a2063616c6c20746f206e6f6e2d636f6e7472616374000000604482015290519081900360640190fd5b60006060866001600160a01b031685876040518082805190602001908083835b60208310611fde5780518252601f199092019160209182019101611fbf565b6001836020036101000a03801982511681845116808217855250505050505090500191505060006040518083038185875af1925050503d8060008114612040576040519150601f19603f3d011682016040523d82523d6000602084013e612045565b606091505b509150915081156120595791506117bc9050565b8051156120695780518082602001fd5b8360405162461bcd60e51b81526004018080602001828103825283818151815260200191508051906020019080838360005b838110156120b357818101518382015260200161209b565b50505050905090810190601f1680156120e05780820380516001836020036101000a031916815260200191505b509250505060405180910390fd5b600081848411156121405760405162461bcd60e51b81526020600482018181528351602484015283519092839260449091019190850190808383600083156120b357818101518382015260200161209b565b505050900390565b600081836121975760405162461bcd60e51b81526020600482018181528351602484015283519092839260449091019190850190808383600083156120b357818101518382015260200161209b565b5060008385816121a357fe5b0495945050505050565b8060006121c06001610b7984600261186c565b90505b818110156121e957806121df6002610b7383610b79888261186c565b90925090506121c3565b50919050565b6000813f7fc5d2460186f7233c927e7db2dcc703c0e500b653ca82273b7bfad8045d85a4708181148015906117bc575050151592915050565b604080516101008101909152806000815260200160006001600160a01b0316815260200160008152602001600081526020016000815260200160008152602001600081526020016000600281111561227c57fe5b90529056fe4f776e61626c653a206e6577206f776e657220697320746865207a65726f2061646472657373536166654d6174683a206d756c7469706c69636174696f6e206f766572666c6f774f776e61626c653a2063616c6c6572206973206e6f7420746865206f776e65725361666545524332303a204552433230206f7065726174696f6e20646964206e6f742073756363656564496d706c696564566f6c52617465206c696d697420697320746f6f20736d616c6c5361666545524332303a20617070726f76652066726f6d206e6f6e2d7a65726f20746f206e6f6e2d7a65726f20616c6c6f77616e63654f6e6c7920616374697665206f7074696f6e20636f756c64206265207472616e73666572726564a26469706673582212201423dfd8b32e5f07b72db04e7b17e3e6bad13482673a40cc0158813f2bf32f2464736f6c634300060c00336080604052621275006007553480156200001857600080fd5b506040516200264c3803806200264c833981810160405260208110156200003e57600080fd5b5051604080518082018252601381527f48656769632057425443204c5020546f6b656e000000000000000000000000006020828101919091528251808401909352600983526877726974655742544360b81b90830152906000620000a16200014d565b600080546001600160a01b0319166001600160a01b0383169081178255604051929350917f8be0079c531659141344cd1fd0a4f28419497f9722a3daafe3b4186f6b6457e0908290a35081516200010090600490602085019062000151565b5080516200011690600590602084019062000151565b50506006805460ff1916601217905550600d80546001600160a01b039092166001600160a01b0319909216919091179055620001ed565b3390565b828054600181600116156101000203166002900490600052602060002090601f016020900481019282601f106200019457805160ff1916838001178555620001c4565b82800160010185558215620001c4579182015b82811115620001c4578251825591602001919060010190620001a7565b50620001d2929150620001d6565b5090565b5b80821115620001d25760008155600101620001d7565b61244f80620001fd6000396000f3fe608060405234801561001057600080fd5b50600436106101e55760003560e01c8063797be55e1161010f578063ad7a672f116100a2578063edd0d42111610071578063edd0d421146105ac578063ee947a7c146105d5578063f2fde38b146105dd578063fc0c546a14610603576101e5565b8063ad7a672f14610536578063c771c3901461053e578063dd62ed3e1461055b578063e8c3c54f14610589576101e5565b806395d89b41116100de57806395d89b41146104ce578063a457c2d7146104d6578063a9059cbb14610502578063ab2f0e511461052e576101e5565b8063797be55e1461044a5780637d4b11301461045257806381b34f15146104785780638da5cb5b146104aa576101e5565b806339509351116101875780636198e339116101565780636198e339146103f55780636ab28bc81461041457806370a082311461041c578063715018a614610442576101e5565b806339509351146103785780633f40406c146103a4578063441a3e70146103ca5780634dbac733146103ed576101e5565b806321e5e2c4116101c357806321e5e2c4146102c157806323b872dd146102e7578063313ce5671461031d5780633755269b1461033b576101e5565b806306fdde03146101ea578063095ea7b31461026757806318160ddd146102a7575b600080fd5b6101f261060b565b6040805160208082528351818301528351919283929083019185019080838360005b8381101561022c578181015183820152602001610214565b50505050905090810190601f1680156102595780820380516001836020036101000a031916815260200191505b509250505060405180910390f35b6102936004803603604081101561027d57600080fd5b506001600160a01b0381351690602001356106a1565b604080519115158252519081900360200190f35b6102af6106bf565b60408051918252519081900360200190f35b6102af600480360360208110156102d757600080fd5b50356001600160a01b03166106c5565b610293600480360360608110156102fd57600080fd5b506001600160a01b0381358116916020810135909116906040013561070e565b610325610795565b6040805160ff9092168252519081900360200190f35b6103586004803603602081101561035157600080fd5b503561079e565b604080519384526020840192909252151582820152519081900360600190f35b6102936004803603604081101561038e57600080fd5b506001600160a01b0381351690602001356107d1565b610293600480360360208110156103ba57600080fd5b50356001600160a01b031661081f565b6102af600480360360408110156103e057600080fd5b5080359060200135610834565b6102af610b1e565b6104126004803603602081101561040b57600080fd5b5035610b28565b005b6102af610c54565b6102af6004803603602081101561043257600080fd5b50356001600160a01b0316610c5a565b610412610c75565b6102af610d17565b6102af6004803603602081101561046857600080fd5b50356001600160a01b0316610d1d565b6104126004803603606081101561048e57600080fd5b508035906001600160a01b036020820135169060400135610d2f565b6104b2610ef0565b604080516001600160a01b039092168252519081900360200190f35b6101f2610eff565b610293600480360360408110156104ec57600080fd5b506001600160a01b038135169060200135610f60565b6102936004803603604081101561051857600080fd5b506001600160a01b038135169060200135610fc8565b6102af610fdc565b6102af610ff7565b6104126004803603602081101561055457600080fd5b5035611080565b6102af6004803603604081101561057157600080fd5b506001600160a01b0381358116916020013516611135565b6102af6004803603604081101561059f57600080fd5b5080359060200135611160565b610412600480360360608110156105c257600080fd5b5080359060208101359060400135611379565b6102af611576565b610412600480360360208110156105f357600080fd5b50356001600160a01b031661157c565b6104b2611674565b60048054604080516020601f60026000196101006001881615020190951694909404938401819004810282018101909252828152606093909290918301828280156106975780601f1061066c57610100808354040283529160200191610697565b820191906000526020600020905b81548152906001019060200180831161067a57829003601f168201915b5050505050905090565b60006106b56106ae611683565b8484611687565b5060015b92915050565b60035490565b6000806106d06106bf565b90508015610703576106fc816106f66106e886610c5a565b6106f0610ff7565b90611773565b906117d3565b9150610708565b600091505b50919050565b600061071b848484611815565b61078b84610727611683565b610786856040518060600160405280602881526020016122ee602891396001600160a01b038a16600090815260026020526040812090610765611683565b6001600160a01b031681526020810191909152604001600020549190611972565b611687565b5060019392505050565b60065460ff1690565b600c81815481106107ab57fe5b600091825260209091206003909102018054600182015460029092015490925060ff1683565b60006106b56107de611683565b8461078685600260006107ef611683565b6001600160a01b03908116825260208083019390935260409182016000908120918c168152925290205490611a09565b600b6020526000908152604090205460ff1681565b600754336000908152600a60205260408120549091429161085491611a09565b11156108a7576040805162461bcd60e51b815260206004820152601d60248201527f506f6f6c3a205769746864726177616c206973206c6f636b6564207570000000604482015290519081900360640190fd5b6108af610fdc565b8311156108ed5760405162461bcd60e51b815260040180806020018281038252607181526020018061227d6071913960800191505060405180910390fd5b61090f6109026108fb6106bf565b8590611773565b61090a610ff7565b611a63565b905081811115610966576040805162461bcd60e51b815260206004820152601d60248201527f506f6f6c3a204275726e206c696d697420697320746f6f20736d616c6c000000604482015290519081900360640190fd5b61096f33610c5a565b8111156109c3576040805162461bcd60e51b815260206004820152601960248201527f506f6f6c3a20416d6f756e7420697320746f6f206c6172676500000000000000604482015290519081900360640190fd5b60008111610a14576040805162461bcd60e51b8152602060048201526019602482015278141bdbdb0e88105b5bdd5b9d081a5cc81d1bdbc81cdb585b1b603a1b604482015290519081900360640190fd5b610a1e3382611a98565b6040805184815260208101839052815133927ff279e6a1f5e320cca91135676d9cb6e44ca8a08c0b88342bcdb1144f6511b568928290030190a2600d546040805163a9059cbb60e01b81523360048201526024810186905290516001600160a01b039092169163a9059cbb916044808201926020929091908290030181600087803b158015610aac57600080fd5b505af1158015610ac0573d6000803e3d6000fd5b505050506040513d6020811015610ad657600080fd5b50516106b9576040805162461bcd60e51b8152602060048201526012602482015271496e73756666696369656e742066756e647360701b604482015290519081900360640190fd5b6509184e72a00081565b610b30611683565b6000546001600160a01b03908116911614610b80576040805162461bcd60e51b81526020600482018190526024820152600080516020612316833981519152604482015290519081900360640190fd5b6000600c8281548110610b8f57fe5b60009182526020909120600390910201600281015490915060ff16610be55760405162461bcd60e51b815260040180806020018281038252603181526020018061214b6031913960400191505060405180910390fd5b60028101805460ff191690556001810154600954610c0291611b94565b6009558054600854610c1391611b94565b6008556001810154604080519182525183917f9f78baa7a8e3640efadcbedc2d00f5930ade7a7bb66038dbf88684d49972957a919081900360200190a25050565b60085481565b6001600160a01b031660009081526001602052604090205490565b610c7d611683565b6000546001600160a01b03908116911614610ccd576040805162461bcd60e51b81526020600482018190526024820152600080516020612316833981519152604482015290519081900360640190fd5b600080546040516001600160a01b03909116907f8be0079c531659141344cd1fd0a4f28419497f9722a3daafe3b4186f6b6457e0908390a3600080546001600160a01b0319169055565b60095481565b600a6020526000908152604090205481565b610d37611683565b6000546001600160a01b03908116911614610d87576040805162461bcd60e51b81526020600482018190526024820152600080516020612316833981519152604482015290519081900360640190fd5b6000600c8481548110610d9657fe5b60009182526020909120600390910201600281015490915060ff16610dec5760405162461bcd60e51b815260040180806020018281038252603181526020018061214b6031913960400191505060405180910390fd5b6001600160a01b038316610dff57600080fd5b60028101805460ff191690556001810154600954610e1c91611b94565b6009558054600854610e2d91611b94565b60085580546000908311610e415782610e44565b81545b600d54909150610e5e906001600160a01b03168583611bd6565b81600101548111610eac57847f9f78baa7a8e3640efadcbedc2d00f5930ade7a7bb66038dbf88684d49972957a828460010154036040518082815260200191505060405180910390a2610ee9565b60018201546040805191830382525186917f86f83f021a5ecb92d6dcaec11be9da0e65b5401ce748ac3c1f0ddbae029f55ce919081900360200190a25b5050505050565b6000546001600160a01b031690565b60058054604080516020601f60026000196101006001881615020190951694909404938401819004810282018101909252828152606093909290918301828280156106975780601f1061066c57610100808354040283529160200191610697565b60006106b5610f6d611683565b84610786856040518060600160405280602581526020016123f56025913960026000610f97611683565b6001600160a01b03908116825260208083019390935260409182016000908120918d16815292529020549190611972565b60006106b5610fd5611683565b8484611815565b6000610ff2600854610fec610ff7565b90611b94565b905090565b600954600d54604080516370a0823160e01b81523060048201529051600093610ff29390926001600160a01b03909116916370a0823191602480820192602092909190829003018186803b15801561104e57600080fd5b505afa158015611062573d6000803e3d6000fd5b505050506040513d602081101561107857600080fd5b505190611b94565b611088611683565b6000546001600160a01b039081169116146110d8576040805162461bcd60e51b81526020600482018190526024820152600080516020612316833981519152604482015290519081900360640190fd5b624f1a00811115611130576040805162461bcd60e51b815260206004820152601a60248201527f4c6f636b757020706572696f6420697320746f6f206c61726765000000000000604482015290519081900360640190fd5b600755565b6001600160a01b03918216600090815260026020908152604080832093909416825291909152205490565b336000908152600a602052604081204290558061117b6106bf565b90506000611187610ff7565b90506000821180156111995750600081115b156111b3576111ac816106f68785611773565b92506111c6565b6111c3856509184e72a000611773565b92505b8383101561121b576040805162461bcd60e51b815260206004820152601d60248201527f506f6f6c3a204d696e74206c696d697420697320746f6f206c61726765000000604482015290519081900360640190fd5b6000831161126c576040805162461bcd60e51b8152602060048201526019602482015278141bdbdb0e88105b5bdd5b9d081a5cc81d1bdbc81cdb585b1b603a1b604482015290519081900360640190fd5b6112763384611c28565b6040805186815260208101859052815133927f4089141ea5e4c16575f5ebf65f1786497ea07c175846fc7745ef8d8986a4ff65928290030190a2600d54604080516323b872dd60e01b81523360048201523060248201526044810188905290516001600160a01b03909216916323b872dd916064808201926020929091908290030181600087803b15801561130a57600080fd5b505af115801561131e573d6000803e3d6000fd5b505050506040513d602081101561133457600080fd5b50516113715760405162461bcd60e51b81526004018080602001828103825260508152602001806121e66050913960600191505060405180910390fd5b505092915050565b611381611683565b6000546001600160a01b039081169116146113d1576040805162461bcd60e51b81526020600482018190526024820152600080516020612316833981519152604482015290519081900360640190fd5b600c548314611412576040805162461bcd60e51b815260206004820152600860248201526715dc9bdb99c81a5960c21b604482015290519081900360640190fd5b61141f60086106f0610ff7565b611439600a6106f085600854611a0990919063ffffffff16565b111561148c576040805162461bcd60e51b815260206004820181905260248201527f506f6f6c204572726f723a20416d6f756e7420697320746f6f206c617267652e604482015290519081900360640190fd5b60408051606081018252838152602081018381526001928201838152600c8054948501815560005291517fdf6966c971051c3d54ec59162606531493a51404a002842f56009d7e5cf4a8c7600390940293840155517fdf6966c971051c3d54ec59162606531493a51404a002842f56009d7e5cf4a8c8830155517fdf6966c971051c3d54ec59162606531493a51404a002842f56009d7e5cf4a8c9909101805460ff19169115159190911790556009546115469082611a09565b6009556008546115569083611a09565b600855600d54611571906001600160a01b0316333084611d1a565b505050565b60075481565b611584611683565b6000546001600160a01b039081169116146115d4576040805162461bcd60e51b81526020600482018190526024820152600080516020612316833981519152604482015290519081900360640190fd5b6001600160a01b0381166116195760405162461bcd60e51b815260040180806020018281038252602681526020018061219e6026913960400191505060405180910390fd5b600080546040516001600160a01b03808516939216917f8be0079c531659141344cd1fd0a4f28419497f9722a3daafe3b4186f6b6457e091a3600080546001600160a01b0319166001600160a01b0392909216919091179055565b600d546001600160a01b031681565b3390565b6001600160a01b0383166116cc5760405162461bcd60e51b81526004018080602001828103825260248152602001806123a76024913960400191505060405180910390fd5b6001600160a01b0382166117115760405162461bcd60e51b81526004018080602001828103825260228152602001806121c46022913960400191505060405180910390fd5b6001600160a01b03808416600081815260026020908152604080832094871680845294825291829020859055815185815291517f8c5be1e5ebec7d5bd14f71427d1e84f3dd0314c0f7b2291e5b200ac8c7c3b9259281900390910190a3505050565b600082611782575060006106b9565b8282028284828161178f57fe5b04146117cc5760405162461bcd60e51b815260040180806020018281038252602181526020018061225c6021913960400191505060405180910390fd5b9392505050565b60006117cc83836040518060400160405280601a81526020017f536166654d6174683a206469766973696f6e206279207a65726f000000000000815250611d7a565b6001600160a01b03831661185a5760405162461bcd60e51b81526004018080602001828103825260258152602001806123826025913960400191505060405180910390fd5b6001600160a01b03821661189f5760405162461bcd60e51b81526004018080602001828103825260238152602001806121286023913960400191505060405180910390fd5b6118aa838383611ddf565b6118e781604051806060016040528060268152602001612236602691396001600160a01b0386166000908152600160205260409020549190611972565b6001600160a01b0380851660009081526001602052604080822093909355908416815220546119169082611a09565b6001600160a01b0380841660008181526001602090815260409182902094909455805185815290519193928716927fddf252ad1be2c89b69c2b068fc378daa952ba7f163c4a11628f55a4df523b3ef92918290030190a3505050565b60008184841115611a015760405162461bcd60e51b81526004018080602001828103825283818151815260200191508051906020019080838360005b838110156119c65781810151838201526020016119ae565b50505050905090810190601f1680156119f35780820380516001836020036101000a031916815260200191505b509250505060405180910390fd5b505050900390565b6000828201838110156117cc576040805162461bcd60e51b815260206004820152601b60248201527f536166654d6174683a206164646974696f6e206f766572666c6f770000000000604482015290519081900360640190fd5b6000808211611a7157600080fd5b6000828481611a7c57fe5b049050828481611a8857fe5b06156117cc576001019392505050565b6001600160a01b038216611add5760405162461bcd60e51b81526004018080602001828103825260218152602001806123366021913960400191505060405180910390fd5b611ae982600083611ddf565b611b268160405180606001604052806022815260200161217c602291396001600160a01b0385166000908152600160205260409020549190611972565b6001600160a01b038316600090815260016020526040902055600354611b4c9082611b94565b6003556040805182815290516000916001600160a01b038516917fddf252ad1be2c89b69c2b068fc378daa952ba7f163c4a11628f55a4df523b3ef9181900360200190a35050565b60006117cc83836040518060400160405280601e81526020017f536166654d6174683a207375627472616374696f6e206f766572666c6f770000815250611972565b604080516001600160a01b038416602482015260448082018490528251808303909101815260649091019091526020810180516001600160e01b031663a9059cbb60e01b179052611571908490611eb9565b6001600160a01b038216611c83576040805162461bcd60e51b815260206004820152601f60248201527f45524332303a206d696e7420746f20746865207a65726f206164647265737300604482015290519081900360640190fd5b611c8f60008383611ddf565b600354611c9c9082611a09565b6003556001600160a01b038216600090815260016020526040902054611cc29082611a09565b6001600160a01b03831660008181526001602090815260408083209490945583518581529351929391927fddf252ad1be2c89b69c2b068fc378daa952ba7f163c4a11628f55a4df523b3ef9281900390910190a35050565b604080516001600160a01b0380861660248301528416604482015260648082018490528251808303909101815260849091019091526020810180516001600160e01b03166323b872dd60e01b179052611d74908590611eb9565b50505050565b60008183611dc95760405162461bcd60e51b81526020600482018181528351602484015283519092839260449091019190850190808383600083156119c65781810151838201526020016119ae565b506000838581611dd557fe5b0495945050505050565b6007546001600160a01b0384166000908152600a60205260409020544291611e079190611a09565b118015611e3457506001600160a01b038083166000908152600a6020526040808220549286168252902054115b15611571576001600160a01b0382166000908152600b602052604090205460ff1615611e915760405162461bcd60e51b815260040180806020018281038252602b815260200180612357602b913960400191505060405180910390fd5b6001600160a01b038084166000908152600a6020526040808220549285168252902055505050565b6060611f0e826040518060400160405280602081526020017f5361666545524332303a206c6f772d6c6576656c2063616c6c206661696c6564815250856001600160a01b0316611f6a9092919063ffffffff16565b80519091501561157157808060200190516020811015611f2d57600080fd5b50516115715760405162461bcd60e51b815260040180806020018281038252602a8152602001806123cb602a913960400191505060405180910390fd5b6060611f798484600085611f81565b949350505050565b6060611f8c856120ee565b611fdd576040805162461bcd60e51b815260206004820152601d60248201527f416464726573733a2063616c6c20746f206e6f6e2d636f6e7472616374000000604482015290519081900360640190fd5b60006060866001600160a01b031685876040518082805190602001908083835b6020831061201c5780518252601f199092019160209182019101611ffd565b6001836020036101000a03801982511681845116808217855250505050505090500191505060006040518083038185875af1925050503d806000811461207e576040519150601f19603f3d011682016040523d82523d6000602084013e612083565b606091505b50915091508115612097579150611f799050565b8051156120a75780518082602001fd5b60405162461bcd60e51b81526020600482018181528651602484015286518793919283926044019190850190808383600083156119c65781810151838201526020016119ae565b6000813f7fc5d2460186f7233c927e7db2dcc703c0e500b653ca82273b7bfad8045d85a470818114801590611f7957505015159291505056fe45524332303a207472616e7366657220746f20746865207a65726f20616464726573734c6f636b65644c6971756964697479207769746820737563682069642068617320616c726561647920756e6c6f636b656445524332303a206275726e20616d6f756e7420657863656564732062616c616e63654f776e61626c653a206e6577206f776e657220697320746865207a65726f206164647265737345524332303a20617070726f766520746f20746865207a65726f2061646472657373546f6b656e207472616e73666572206572726f723a20506c65617365206c6f7765722074686520616d6f756e74206f66207072656d69756d73207468617420796f752077616e7420746f2073656e642e45524332303a207472616e7366657220616d6f756e7420657863656564732062616c616e6365536166654d6174683a206d756c7469706c69636174696f6e206f766572666c6f77506f6f6c204572726f723a20596f752061726520747279696e6720746f20756e6c6f636b206d6f72652066756e6473207468616e2068617665206265656e206c6f636b656420666f7220796f757220636f6e74726163742e20506c65617365206c6f7765722074686520616d6f756e742e45524332303a207472616e7366657220616d6f756e74206578636565647320616c6c6f77616e63654f776e61626c653a2063616c6c6572206973206e6f7420746865206f776e657245524332303a206275726e2066726f6d20746865207a65726f206164647265737374686520726563697069656e7420646f6573206e6f742061636365707420626c6f636b65642066756e647345524332303a207472616e736665722066726f6d20746865207a65726f206164647265737345524332303a20617070726f76652066726f6d20746865207a65726f20616464726573735361666545524332303a204552433230206f7065726174696f6e20646964206e6f74207375636365656445524332303a2064656372656173656420616c6c6f77616e63652062656c6f77207a65726fa26469706673582212209cdea952b51e7135b9e3e8b901c11a3b423fc0ef9a36ed6777c308a9cc3f58bb64736f6c634300060c00335361666545524332303a204552433230206f7065726174696f6e20646964206e6f7420737563636565645361666545524332303a20617070726f76652066726f6d206e6f6e2d7a65726f20746f206e6f6e2d7a65726f20616c6c6f77616e6365",
  "immutableReferences": {},
  "source": "pragma solidity 0.6.12;\n\n/**\n * SPDX-License-Identifier: GPL-3.0-or-later\n * Hegic\n * Copyright (C) 2020 Hegic Protocol\n *\n * This program is free software: you can redistribute it and/or modify\n * it under the terms of the GNU General Public License as published by\n * the Free Software Foundation, either version 3 of the License, or\n * (at your option) any later version.\n *\n * This program is distributed in the hope that it will be useful,\n * but WITHOUT ANY WARRANTY; without even the implied warranty of\n * MERCHANTABILITY or FITNESS FOR A PARTICULAR PURPOSE.  See the\n * GNU General Public License for more details.\n *\n * You should have received a copy of the GNU General Public License\n * along with this program.  If not, see <http://www.gnu.org/licenses/>.\n */\n\nimport \"../Pool/HegicWBTCPool.sol\";\n\n\n/**\n * @author 0mllwntrmt3\n * @title Hegic WBTC (Wrapped Bitcoin) Bidirectional (Call and Put) Options\n * @notice Hegic Protocol Options Contract\n */\ncontract HegicWBTCOptions is Ownable, IHegicOptions {\n    using SafeMath for uint256;\n    using SafeERC20 for IERC20;\n\n    IHegicStakingERC20 public settlementFeeRecipient;\n    Option[] public override options;\n    uint256 public impliedVolRate;\n    uint256 public optionCollateralizationRatio = 100;\n    uint256 internal constant PRICE_DECIMALS = 1e8;\n    uint256 internal contractCreationTimestamp;\n    AggregatorV3Interface public priceProvider;\n    HegicERCPool public pool;\n    IUniswapV2Router01 public uniswapRouter;\n    address[] public ethToWbtcSwapPath;\n    IERC20 public wbtc;\n\n    /**\n     * @param _priceProvider The address of ChainLink BTC/USD price feed contract\n     * @param _uniswap The address of Uniswap router contract\n     * @param token The address of WBTC ERC20 token contract\n     */\n    constructor(\n        AggregatorV3Interface _priceProvider,\n        IUniswapV2Router01 _uniswap,\n        ERC20 token,\n        IHegicStakingERC20 _settlementFeeRecipient\n    ) public {\n        pool = new HegicERCPool(token);\n        wbtc = token;\n        priceProvider = _priceProvider;\n        settlementFeeRecipient = _settlementFeeRecipient;\n        impliedVolRate = 5500;\n        uniswapRouter = _uniswap;\n        contractCreationTimestamp = block.timestamp;\n        approve();\n\n        ethToWbtcSwapPath = new address[](2);\n        ethToWbtcSwapPath[0] = uniswapRouter.WETH();\n        ethToWbtcSwapPath[1] = address(wbtc);\n\n    }\n\n    /**\n     * @notice Can be used to update the contract in critical situations\n     *         in the first 14 days after deployment\n     */\n    function transferPoolOwnership() external onlyOwner {\n        require(block.timestamp < contractCreationTimestamp + 14 days);\n        pool.transferOwnership(owner());\n    }\n\n    /**\n     * @notice Used for adjusting the options prices while balancing asset's implied volatility rate\n     * @param value New IVRate value\n     */\n    function setImpliedVolRate(uint256 value) external onlyOwner {\n        require(value >= 1000, \"ImpliedVolRate limit is too small\");\n        impliedVolRate = value;\n    }\n\n    /**\n     * @notice Used for changing settlementFeeRecipient\n     * @param recipient New settlementFee recipient address\n     */\n    function setSettlementFeeRecipient(IHegicStakingERC20 recipient) external onlyOwner {\n        require(block.timestamp < contractCreationTimestamp + 14 days);\n        require(address(recipient) != address(0));\n        settlementFeeRecipient = recipient;\n    }\n\n    /**\n     * @notice Used for changing option collateralization ratio\n     * @param value New optionCollateralizationRatio value\n     */\n    function setOptionCollaterizationRatio(uint value) external onlyOwner {\n        require(50 <= value && value <= 100, \"wrong value\");\n        optionCollateralizationRatio = value;\n    }\n\n    /**\n     * @notice Creates a new option\n     * @param period Option period in seconds (1 days <= period <= 4 weeks)\n     * @param amount Option amount\n     * @param strike Strike price of the option\n     * @param optionType Call or Put option type\n     * @return optionID Created option's ID\n     */\n    function create(\n        uint256 period,\n        uint256 amount,\n        uint256 strike,\n        OptionType optionType\n    )\n        external\n        payable\n        returns (uint256 optionID)\n    {\n        (uint256 total, uint256 totalETH, uint256 settlementFee, uint256 strikeFee, ) =\n            fees(period, amount, strike, optionType);\n        require(\n            optionType == OptionType.Call || optionType == OptionType.Put,\n            \"Wrong option type\"\n        );\n        require(period >= 1 days, \"Period is too short\");\n        require(period <= 4 weeks, \"Period is too long\");\n        require(amount > strikeFee, \"price difference is too large\");\n\n        uint256 strikeAmount = amount.sub(strikeFee);\n        uint premium = total.sub(settlementFee);\n        optionID = options.length;\n\n        Option memory option = Option(\n            State.Active,\n            msg.sender,\n            strike,\n            amount,\n            strikeAmount.mul(optionCollateralizationRatio).div(100).add(strikeFee),\n            premium,\n            block.timestamp + period,\n            optionType\n        );\n\n        uint amountIn = swapToWBTC(totalETH, total);\n        if (amountIn < msg.value) {\n            msg.sender.transfer(msg.value.sub(amountIn));\n        }\n\n        options.push(option);\n        settlementFeeRecipient.sendProfit(settlementFee);\n        pool.lock(optionID, option.lockedAmount, option.premium);\n\n        emit Create(optionID, msg.sender, settlementFee, total);\n    }\n\n    /**\n     * @notice Transfers an active option\n     * @param optionID ID of your option\n     * @param newHolder Address of new option holder\n     */\n    function transfer(uint256 optionID, address payable newHolder) external {\n        Option storage option = options[optionID];\n\n        require(newHolder != address(0), \"new holder address is zero\");\n        require(option.expiration >= block.timestamp, \"Option has expired\");\n        require(option.holder == msg.sender, \"Wrong msg.sender\");\n        require(option.state == State.Active, \"Only active option could be transferred\");\n\n        option.holder = newHolder;\n    }\n\n    /**\n     * @notice Exercises an active option\n     * @param optionID ID of your option\n     */\n    function exercise(uint256 optionID) external {\n        Option storage option = options[optionID];\n\n        require(option.expiration >= block.timestamp, \"Option has expired\");\n        require(option.holder == msg.sender, \"Wrong msg.sender\");\n        require(option.state == State.Active, \"Wrong state\");\n\n        option.state = State.Exercised;\n        uint256 profit = payProfit(optionID);\n\n        emit Exercise(optionID, profit);\n    }\n\n    /**\n     * @notice Unlocks an array of options\n     * @param optionIDs array of options\n     */\n    function unlockAll(uint256[] calldata optionIDs) external {\n        uint arrayLength = optionIDs.length;\n        for (uint256 i = 0; i < arrayLength; i++) {\n            unlock(optionIDs[i]);\n        }\n    }\n\n    /**\n     * @notice Allows the ERC pool contract to receive and send tokens\n     */\n    function approve() public {\n        wbtc.safeApprove(address(pool), uint(-1));\n        wbtc.safeApprove(address(settlementFeeRecipient), uint(-1));\n    }\n\n    /**\n     * @notice Used for getting the actual options prices\n     * @param period Option period in seconds (1 days <= period <= 4 weeks)\n     * @param amount Option amount\n     * @param strike Strike price of the option\n     * @return total Total price to be paid\n     * @return totalETH Total price in ETH to be paid\n     * @return settlementFee Amount to be distributed to the HEGIC token holders\n     * @return strikeFee Amount that covers the price difference in the ITM options\n     * @return periodFee Option period fee amount\n     */\n    function fees(\n        uint256 period,\n        uint256 amount,\n        uint256 strike,\n        OptionType optionType\n    )\n        public\n        view\n        returns (\n            uint256 total,\n            uint256 totalETH,\n            uint256 settlementFee,\n            uint256 strikeFee,\n            uint256 periodFee\n        )\n    {\n        (, int latestPrice, , , ) = priceProvider.latestRoundData();\n        uint256 currentPrice = uint256(latestPrice);\n        settlementFee = getSettlementFee(amount);\n        periodFee = getPeriodFee(amount, period, strike, currentPrice, optionType);\n        strikeFee = getStrikeFee(amount, strike, currentPrice, optionType);\n        total = periodFee.add(strikeFee).add(settlementFee);\n        totalETH = uniswapRouter.getAmountsIn(total, ethToWbtcSwapPath)[0];\n    }\n\n    /**\n     * @notice Unlock funds locked in the expired options\n     * @param optionID ID of the option\n     */\n    function unlock(uint256 optionID) public {\n        Option storage option = options[optionID];\n        require(option.expiration < block.timestamp, \"Option has not expired yet\");\n        require(option.state == State.Active, \"Option is not active\");\n        option.state = State.Expired;\n        pool.unlock(optionID);\n        emit Expire(optionID, option.premium);\n    }\n\n    /**\n     * @notice Calculates settlementFee\n     * @param amount Option amount\n     * @return fee Settlement fee amount\n     */\n    function getSettlementFee(uint256 amount)\n        internal\n        pure\n        returns (uint256 fee)\n    {\n        return amount / 100;\n    }\n\n    /**\n     * @notice Calculates periodFee\n     * @param amount Option amount\n     * @param period Option period in seconds (1 days <= period <= 4 weeks)\n     * @param strike Strike price of the option\n     * @param currentPrice Current price of BTC\n     * @return fee Period fee amount\n     *\n     * amount < 1e30        |\n     * impliedVolRate < 1e10| => amount * impliedVolRate * strike < 1e60 < 2^uint256\n     * strike < 1e20 ($1T)  |\n     *\n     * in case amount * impliedVolRate * strike >= 2^256\n     * transaction will be reverted by the SafeMath\n     */\n    function getPeriodFee(\n        uint256 amount,\n        uint256 period,\n        uint256 strike,\n        uint256 currentPrice,\n        OptionType optionType\n    ) internal view returns (uint256 fee) {\n        if (optionType == OptionType.Put)\n            return amount\n                .mul(sqrt(period))\n                .mul(impliedVolRate)\n                .mul(strike)\n                .div(currentPrice)\n                .div(PRICE_DECIMALS);\n        else\n            return amount\n                .mul(sqrt(period))\n                .mul(impliedVolRate)\n                .mul(currentPrice)\n                .div(strike)\n                .div(PRICE_DECIMALS);\n    }\n\n    /**\n     * @notice Calculates strikeFee\n     * @param amount Option amount\n     * @param strike Strike price of the option\n     * @param currentPrice Current price of BTC\n     * @return fee Strike fee amount\n     */\n    function getStrikeFee(\n        uint256 amount,\n        uint256 strike,\n        uint256 currentPrice,\n        OptionType optionType\n    ) internal pure returns (uint256 fee) {\n        if (strike > currentPrice && optionType == OptionType.Put)\n            return strike.sub(currentPrice).mul(amount).div(currentPrice);\n        if (strike < currentPrice && optionType == OptionType.Call)\n            return currentPrice.sub(strike).mul(amount).div(currentPrice);\n        return 0;\n    }\n\n    /**\n     * @notice Sends profits in WBTC from the WBTC pool to an option holder's address\n     * @param optionID A specific option contract id\n     */\n    function payProfit(uint optionID)\n        internal\n        returns (uint profit)\n    {\n        Option memory option = options[optionID];\n        (, int latestPrice, , , ) = priceProvider.latestRoundData();\n        uint256 currentPrice = uint256(latestPrice);\n        if (option.optionType == OptionType.Call) {\n            require(option.strike <= currentPrice, \"Current price is too low\");\n            profit = currentPrice.sub(option.strike).mul(option.amount).div(currentPrice);\n        } else {\n            require(option.strike >= currentPrice, \"Current price is too high\");\n            profit = option.strike.sub(currentPrice).mul(option.amount).div(currentPrice);\n        }\n        if (profit > option.lockedAmount)\n            profit = option.lockedAmount;\n        pool.send(optionID, option.holder, profit);\n    }\n\n    /**\n     * @notice Swap ETH to WBTC via Uniswap router\n     * @param maxAmountIn The maximum amount of ETH that can be required before the transaction reverts.\n     * @param amountOut The amount of WBTC tokens to receive.\n     */\n    function swapToWBTC(\n        uint maxAmountIn,\n        uint amountOut\n    )\n        internal\n        returns (uint)\n    {\n            uint[] memory amounts = uniswapRouter.swapETHForExactTokens {\n                value: maxAmountIn\n            }(\n                amountOut,\n                ethToWbtcSwapPath,\n                address(this),\n                block.timestamp\n            );\n            return amounts[0];\n    }\n\n    /**\n     * @return result Square root of the number\n     */\n    function sqrt(uint256 x) private pure returns (uint256 result) {\n        result = x;\n        uint256 k = x.div(2).add(1);\n        while (k < result) (result, k) = (k, x.div(k).add(k).div(2));\n    }\n}\n",
  "sourcePath": "/home/tom/Desktop/Medium/AutonomousHegician/contracts-v888/contracts/Options/HegicWBTCOptions.sol",
  "compiler": {
    "name": "solc",
    "version": "0.6.12+commit.27d51765.Emscripten.clang"
  },
  "schemaVersion": "3.2.3",
  "updatedAt": "2020-10-15T22:58:26.023Z",
  "devdoc": {
    "author": "0mllwntrmt3",
    "kind": "dev",
    "methods": {
      "constructor": {
        "params": {
          "_priceProvider": "The address of ChainLink BTC/USD price feed contract",
          "_uniswap": "The address of Uniswap router contract",
          "token": "The address of WBTC ERC20 token contract"
        }
      },
      "create(uint256,uint256,uint256,uint8)": {
        "params": {
          "amount": "Option amount",
          "optionType": "Call or Put option type",
          "period": "Option period in seconds (1 days <= period <= 4 weeks)",
          "strike": "Strike price of the option"
        },
        "returns": {
          "optionID": "Created option's ID"
        }
      },
      "exercise(uint256)": {
        "params": {
          "optionID": "ID of your option"
        }
      },
      "fees(uint256,uint256,uint256,uint8)": {
        "params": {
          "amount": "Option amount",
          "period": "Option period in seconds (1 days <= period <= 4 weeks)",
          "strike": "Strike price of the option"
        },
        "returns": {
          "periodFee": "Option period fee amount",
          "settlementFee": "Amount to be distributed to the HEGIC token holders",
          "strikeFee": "Amount that covers the price difference in the ITM options",
          "total": "Total price to be paid",
          "totalETH": "Total price in ETH to be paid"
        }
      },
      "owner()": {
        "details": "Returns the address of the current owner."
      },
      "renounceOwnership()": {
        "details": "Leaves the contract without owner. It will not be possible to call `onlyOwner` functions anymore. Can only be called by the current owner. NOTE: Renouncing ownership will leave the contract without an owner, thereby removing any functionality that is only available to the owner."
      },
      "setImpliedVolRate(uint256)": {
        "params": {
          "value": "New IVRate value"
        }
      },
      "setOptionCollaterizationRatio(uint256)": {
        "params": {
          "value": "New optionCollateralizationRatio value"
        }
      },
      "setSettlementFeeRecipient(address)": {
        "params": {
          "recipient": "New settlementFee recipient address"
        }
      },
      "transfer(uint256,address)": {
        "params": {
          "newHolder": "Address of new option holder",
          "optionID": "ID of your option"
        }
      },
      "transferOwnership(address)": {
        "details": "Transfers ownership of the contract to a new account (`newOwner`). Can only be called by the current owner."
      },
      "unlock(uint256)": {
        "params": {
          "optionID": "ID of the option"
        }
      },
      "unlockAll(uint256[])": {
        "params": {
          "optionIDs": "array of options"
        }
      }
    },
    "title": "Hegic WBTC (Wrapped Bitcoin) Bidirectional (Call and Put) Options",
    "version": 1
  },
  "userdoc": {
    "kind": "user",
    "methods": {
      "approve()": {
        "notice": "Allows the ERC pool contract to receive and send tokens"
      },
      "create(uint256,uint256,uint256,uint8)": {
        "notice": "Creates a new option"
      },
      "exercise(uint256)": {
        "notice": "Exercises an active option"
      },
      "fees(uint256,uint256,uint256,uint8)": {
        "notice": "Used for getting the actual options prices"
      },
      "setImpliedVolRate(uint256)": {
        "notice": "Used for adjusting the options prices while balancing asset's implied volatility rate"
      },
      "setOptionCollaterizationRatio(uint256)": {
        "notice": "Used for changing option collateralization ratio"
      },
      "setSettlementFeeRecipient(address)": {
        "notice": "Used for changing settlementFeeRecipient"
      },
      "transfer(uint256,address)": {
        "notice": "Transfers an active option"
      },
      "transferPoolOwnership()": {
        "notice": "Can be used to update the contract in critical situations         in the first 14 days after deployment"
      },
      "unlock(uint256)": {
        "notice": "Unlock funds locked in the expired options"
      },
      "unlockAll(uint256[])": {
        "notice": "Unlocks an array of options"
      }
    },
    "notice": "Hegic Protocol Options Contract",
    "version": 1
  }
}