{
  "contractName": "HegicStakingWBTC",
  "abi": [
    {
      "inputs": [
        {
          "internalType": "contract ERC20",
          "name": "_token",
          "type": "address"
        },
        {
          "internalType": "contract ERC20",
          "name": "wbtc",
          "type": "address"
        }
      ],
      "stateMutability": "nonpayable",
      "type": "constructor"
    },
    {
      "anonymous": false,
      "inputs": [
        {
          "indexed": true,
          "internalType": "address",
          "name": "owner",
          "type": "address"
        },
        {
          "indexed": true,
          "internalType": "address",
          "name": "spender",
          "type": "address"
        },
        {
          "indexed": false,
          "internalType": "uint256",
          "name": "value",
          "type": "uint256"
        }
      ],
      "name": "Approval",
      "type": "event"
    },
    {
      "anonymous": false,
      "inputs": [
        {
          "indexed": true,
          "internalType": "address",
          "name": "acount",
          "type": "address"
        },
        {
          "indexed": false,
          "internalType": "uint256",
          "name": "amount",
          "type": "uint256"
        }
      ],
      "name": "Claim",
      "type": "event"
    },
    {
      "anonymous": false,
      "inputs": [
        {
          "indexed": false,
          "internalType": "uint256",
          "name": "amount",
          "type": "uint256"
        }
      ],
      "name": "Profit",
      "type": "event"
    },
    {
      "anonymous": false,
      "inputs": [
        {
          "indexed": true,
          "internalType": "address",
          "name": "from",
          "type": "address"
        },
        {
          "indexed": true,
          "internalType": "address",
          "name": "to",
          "type": "address"
        },
        {
          "indexed": false,
          "internalType": "uint256",
          "name": "value",
          "type": "uint256"
        }
      ],
      "name": "Transfer",
      "type": "event"
    },
    {
      "inputs": [],
      "name": "FALLBACK_RECIPIENT",
      "outputs": [
        {
          "internalType": "address payable",
          "name": "",
          "type": "address"
        }
      ],
      "stateMutability": "view",
      "type": "function"
    },
    {
      "inputs": [],
      "name": "HEGIC",
      "outputs": [
        {
          "internalType": "contract IERC20",
          "name": "",
          "type": "address"
        }
      ],
      "stateMutability": "view",
      "type": "function"
    },
    {
      "inputs": [],
      "name": "LOT_PRICE",
      "outputs": [
        {
          "internalType": "uint256",
          "name": "",
          "type": "uint256"
        }
      ],
      "stateMutability": "view",
      "type": "function"
    },
    {
      "inputs": [],
      "name": "MAX_SUPPLY",
      "outputs": [
        {
          "internalType": "uint256",
          "name": "",
          "type": "uint256"
        }
      ],
      "stateMutability": "view",
      "type": "function"
    },
    {
      "inputs": [],
      "name": "WBTC",
      "outputs": [
        {
          "internalType": "contract IERC20",
          "name": "",
          "type": "address"
        }
      ],
      "stateMutability": "view",
      "type": "function"
    },
    {
      "inputs": [
        {
          "internalType": "address",
          "name": "",
          "type": "address"
        }
      ],
      "name": "_revertTransfersInLockUpPeriod",
      "outputs": [
        {
          "internalType": "bool",
          "name": "",
          "type": "bool"
        }
      ],
      "stateMutability": "view",
      "type": "function"
    },
    {
      "inputs": [
        {
          "internalType": "address",
          "name": "owner",
          "type": "address"
        },
        {
          "internalType": "address",
          "name": "spender",
          "type": "address"
        }
      ],
      "name": "allowance",
      "outputs": [
        {
          "internalType": "uint256",
          "name": "",
          "type": "uint256"
        }
      ],
      "stateMutability": "view",
      "type": "function"
    },
    {
      "inputs": [
        {
          "internalType": "address",
          "name": "spender",
          "type": "address"
        },
        {
          "internalType": "uint256",
          "name": "amount",
          "type": "uint256"
        }
      ],
      "name": "approve",
      "outputs": [
        {
          "internalType": "bool",
          "name": "",
          "type": "bool"
        }
      ],
      "stateMutability": "nonpayable",
      "type": "function"
    },
    {
      "inputs": [
        {
          "internalType": "address",
          "name": "account",
          "type": "address"
        }
      ],
      "name": "balanceOf",
      "outputs": [
        {
          "internalType": "uint256",
          "name": "",
          "type": "uint256"
        }
      ],
      "stateMutability": "view",
      "type": "function"
    },
    {
      "inputs": [
        {
          "internalType": "uint256",
          "name": "amount",
          "type": "uint256"
        }
      ],
      "name": "buy",
      "outputs": [],
      "stateMutability": "nonpayable",
      "type": "function"
    },
    {
      "inputs": [],
      "name": "claimProfit",
      "outputs": [
        {
          "internalType": "uint256",
          "name": "profit",
          "type": "uint256"
        }
      ],
      "stateMutability": "nonpayable",
      "type": "function"
    },
    {
      "inputs": [],
      "name": "decimals",
      "outputs": [
        {
          "internalType": "uint8",
          "name": "",
          "type": "uint8"
        }
      ],
      "stateMutability": "view",
      "type": "function"
    },
    {
      "inputs": [
        {
          "internalType": "address",
          "name": "spender",
          "type": "address"
        },
        {
          "internalType": "uint256",
          "name": "subtractedValue",
          "type": "uint256"
        }
      ],
      "name": "decreaseAllowance",
      "outputs": [
        {
          "internalType": "bool",
          "name": "",
          "type": "bool"
        }
      ],
      "stateMutability": "nonpayable",
      "type": "function"
    },
    {
      "inputs": [
        {
          "internalType": "address",
          "name": "spender",
          "type": "address"
        },
        {
          "internalType": "uint256",
          "name": "addedValue",
          "type": "uint256"
        }
      ],
      "name": "increaseAllowance",
      "outputs": [
        {
          "internalType": "bool",
          "name": "",
          "type": "bool"
        }
      ],
      "stateMutability": "nonpayable",
      "type": "function"
    },
    {
      "inputs": [
        {
          "internalType": "address",
          "name": "",
          "type": "address"
        }
      ],
      "name": "lastBoughtTimestamp",
      "outputs": [
        {
          "internalType": "uint256",
          "name": "",
          "type": "uint256"
        }
      ],
      "stateMutability": "view",
      "type": "function"
    },
    {
      "inputs": [],
      "name": "lockupPeriod",
      "outputs": [
        {
          "internalType": "uint256",
          "name": "",
          "type": "uint256"
        }
      ],
      "stateMutability": "view",
      "type": "function"
    },
    {
      "inputs": [],
      "name": "name",
      "outputs": [
        {
          "internalType": "string",
          "name": "",
          "type": "string"
        }
      ],
      "stateMutability": "view",
      "type": "function"
    },
    {
      "inputs": [
        {
          "internalType": "address",
          "name": "account",
          "type": "address"
        }
      ],
      "name": "profitOf",
      "outputs": [
        {
          "internalType": "uint256",
          "name": "",
          "type": "uint256"
        }
      ],
      "stateMutability": "view",
      "type": "function"
    },
    {
      "inputs": [
        {
          "internalType": "bool",
          "name": "value",
          "type": "bool"
        }
      ],
      "name": "revertTransfersInLockUpPeriod",
      "outputs": [],
      "stateMutability": "nonpayable",
      "type": "function"
    },
    {
      "inputs": [
        {
          "internalType": "uint256",
          "name": "amount",
          "type": "uint256"
        }
      ],
      "name": "sell",
      "outputs": [],
      "stateMutability": "nonpayable",
      "type": "function"
    },
    {
      "inputs": [],
      "name": "symbol",
      "outputs": [
        {
          "internalType": "string",
          "name": "",
          "type": "string"
        }
      ],
      "stateMutability": "view",
      "type": "function"
    },
    {
      "inputs": [],
      "name": "totalProfit",
      "outputs": [
        {
          "internalType": "uint256",
          "name": "",
          "type": "uint256"
        }
      ],
      "stateMutability": "view",
      "type": "function"
    },
    {
      "inputs": [],
      "name": "totalSupply",
      "outputs": [
        {
          "internalType": "uint256",
          "name": "",
          "type": "uint256"
        }
      ],
      "stateMutability": "view",
      "type": "function"
    },
    {
      "inputs": [
        {
          "internalType": "address",
          "name": "recipient",
          "type": "address"
        },
        {
          "internalType": "uint256",
          "name": "amount",
          "type": "uint256"
        }
      ],
      "name": "transfer",
      "outputs": [
        {
          "internalType": "bool",
          "name": "",
          "type": "bool"
        }
      ],
      "stateMutability": "nonpayable",
      "type": "function"
    },
    {
      "inputs": [
        {
          "internalType": "address",
          "name": "sender",
          "type": "address"
        },
        {
          "internalType": "address",
          "name": "recipient",
          "type": "address"
        },
        {
          "internalType": "uint256",
          "name": "amount",
          "type": "uint256"
        }
      ],
      "name": "transferFrom",
      "outputs": [
        {
          "internalType": "bool",
          "name": "",
          "type": "bool"
        }
      ],
      "stateMutability": "nonpayable",
      "type": "function"
    },
    {
      "inputs": [
        {
          "internalType": "uint256",
          "name": "amount",
          "type": "uint256"
        }
      ],
      "name": "sendProfit",
      "outputs": [],
      "stateMutability": "nonpayable",
      "type": "function"
    }
  ],
  "bytecode": "0x60e06040526000600655620151806009553480156200001d57600080fd5b5060405162001b7138038062001b71833981810160405260408110156200004357600080fd5b508051602091820151604080518082018252601681527f48454749432057425443205374616b696e67206c6f740000000000000000000081860190815282518084019093526006835265686c5742544360d01b95830195909552805193949293859391929183918391620000bb916003919062000136565b508051620000d190600490602084019062000136565b50506005805460ff19166012179055506001600160601b0319606084901b16608052620000ff600062000120565b50505033606090811b60a0521b6001600160601b03191660c05250620001d2565b6005805460ff191660ff92909216919091179055565b828054600181600116156101000203166002900490600052602060002090601f016020900481019282601f106200017957805160ff1916838001178555620001a9565b82800160010185558215620001a9579182015b82811115620001a95782518255916020019190600101906200018c565b50620001b7929150620001bb565b5090565b5b80821115620001b75760008155600101620001bc565b60805160601c60a05160601c60c05160601c61194b62000226600039806106dd528061077d52806107f252806112cf5250806105a0528061081552508061085b5280610a0c5280610b00525061194b6000f3fe608060405234801561001057600080fd5b506004361061018e5760003560e01c80635fc0d2dd116100de578063a673729111610097578063dd62ed3e11610071578063dd62ed3e14610489578063e4849b32146104b7578063ee947a7c146104d4578063f011a7af146104dc5761018e565b8063a67372911461041a578063a9059cbb14610440578063d96a094a1461046c5761018e565b80635fc0d2dd1461039357806370a08231146103b057806371e395a8146103d657806386001519146103de57806395d89b41146103e6578063a457c2d7146103ee5761018e565b8063313ce5671161014b5780633f40406c116101255780633f40406c146103375780634dede3de1461035d5780634ed37f021461036557806354198ce91461036d5761018e565b8063313ce567146102e557806332cb6b0c14610303578063395093511461030b5761018e565b806306fdde0314610193578063095ea7b31461021057806318160ddd146102505780631b0163731461026a57806323b872dd1461028e5780632ba59175146102c4575b600080fd5b61019b6104e4565b6040805160208082528351818301528351919283929083019185019080838360005b838110156101d55781810151838201526020016101bd565b50505050905090810190601f1680156102025780820380516001836020036101000a031916815260200191505b509250505060405180910390f35b61023c6004803603604081101561022657600080fd5b506001600160a01b03813516906020013561057a565b604080519115158252519081900360200190f35b610258610598565b60408051918252519081900360200190f35b61027261059e565b604080516001600160a01b039092168252519081900360200190f35b61023c600480360360608110156102a457600080fd5b506001600160a01b038135811691602081013590911690604001356105c2565b6102e3600480360360208110156102da57600080fd5b50351515610649565b005b6102ed610669565b6040805160ff9092168252519081900360200190f35b610258610672565b61023c6004803603604081101561032157600080fd5b506001600160a01b038135169060200135610678565b61023c6004803603602081101561034d57600080fd5b50356001600160a01b03166106c6565b6102726106db565b6102586106ff565b6102586004803603602081101561038357600080fd5b50356001600160a01b031661070d565b6102e3600480360360208110156103a957600080fd5b503561073a565b610258600480360360208110156103c657600080fd5b50356001600160a01b031661083e565b610272610859565b61025861087d565b61019b610883565b61023c6004803603604081101561040457600080fd5b506001600160a01b0381351690602001356108e4565b6102586004803603602081101561043057600080fd5b50356001600160a01b031661094c565b61023c6004803603604081101561045657600080fd5b506001600160a01b03813516906020013561095e565b6102e36004803603602081101561048257600080fd5b5035610972565b6102586004803603604081101561049f57600080fd5b506001600160a01b0381358116916020013516610a37565b6102e3600480360360208110156104cd57600080fd5b5035610a62565b610258610b27565b610258610b2d565b60038054604080516020601f60026000196101006001881615020190951694909404938401819004810282018101909252828152606093909290918301828280156105705780601f1061054557610100808354040283529160200191610570565b820191906000526020600020905b81548152906001019060200180831161055357829003601f168201915b5050505050905090565b600061058e610587610bcf565b8484610bd3565b5060015b92915050565b60025490565b7f000000000000000000000000000000000000000000000000000000000000000081565b60006105cf848484610cbf565b61063f846105db610bcf565b61063a8560405180606001604052806028815260200161180a602891396001600160a01b038a16600090815260016020526040812090610619610bcf565b6001600160a01b031681526020810191909152604001600020549190610e1a565b610bd3565b5060019392505050565b336000908152600b60205260409020805460ff1916911515919091179055565b60055460ff1690565b6105dc81565b600061058e610685610bcf565b8461063a8560016000610696610bcf565b6001600160a01b03908116825260208083019390935260409182016000908120918c168152925290205490610eb1565b600b6020526000908152604090205460ff1681565b7f000000000000000000000000000000000000000000000000000000000000000081565b69bc0a9392c65c3b00000081565b600061059261071b83610f12565b6001600160a01b03841660009081526008602052604090205490610eb1565b6000610744610598565b905080156107e55780610764836c0c9f2c9cd04674edea40000000610f62565b8161076b57fe5b600680549290910490910190556107ad7f00000000000000000000000000000000000000000000000000000000000000006001600160a01b0316333085610fbb565b6040805183815290517f357d905f1831209797df4d55d79c5c5bf1d9f7311c976afd05e13d881eab9bc89181900360200190a161083a565b61083a6001600160a01b037f000000000000000000000000000000000000000000000000000000000000000016337f000000000000000000000000000000000000000000000000000000000000000085610fbb565b5050565b6001600160a01b031660009081526020819052604090205490565b7f000000000000000000000000000000000000000000000000000000000000000081565b60065481565b60048054604080516020601f60026000196101006001881615020190951694909404938401819004810282018101909252828152606093909290918301828280156105705780601f1061054557610100808354040283529160200191610570565b600061058e6108f1610bcf565b8461063a856040518060600160405280602581526020016118f1602591396001600061091b610bcf565b6001600160a01b03908116825260208083019390935260409182016000908120918d16815292529020549190610e1a565b600a6020526000908152604090205481565b600061058e61096b610bcf565b8484610cbf565b336000908152600a60205260409020429055806109c7576040805162461bcd60e51b815260206004820152600e60248201526d416d6f756e74206973207a65726f60901b604482015290519081900360640190fd5b6105dc816109d3610598565b0111156109df57600080fd5b6109e9338261101b565b610a343330610a028469bc0a9392c65c3b000000610f62565b6001600160a01b037f000000000000000000000000000000000000000000000000000000000000000016929190610fbb565b50565b6001600160a01b03918216600090815260016020908152604080832093909416825291909152205490565b600954336000908152600a60205260409020544291610a819190610eb1565b1115610ad4576040805162461bcd60e51b815260206004820152601e60248201527f416374696f6e2073757370656e6465642064756520746f206c6f636b75700000604482015290519081900360640190fd5b610ade338261110b565b610a3433610af68369bc0a9392c65c3b000000610f62565b6001600160a01b037f0000000000000000000000000000000000000000000000000000000000000000169190611207565b60095481565b6000610b383361125e565b905060008111610b7d576040805162461bcd60e51b815260206004820152600b60248201526a16995c9bc81c1c9bd99a5d60aa1b604482015290519081900360640190fd5b33600090815260086020526040812055610b96816112c2565b60408051828152905133917f47cee97cb7acd717b3c0aa1435d004cd5b3c8c57d70dbceb4e4458bbd60e39d4919081900360200190a290565b3390565b6001600160a01b038316610c185760405162461bcd60e51b81526004018080602001828103825260248152602001806118a36024913960400191505060405180910390fd5b6001600160a01b038216610c5d5760405162461bcd60e51b81526004018080602001828103825260228152602001806117a16022913960400191505060405180910390fd5b6001600160a01b03808416600081815260016020908152604080832094871680845294825291829020859055815185815291517f8c5be1e5ebec7d5bd14f71427d1e84f3dd0314c0f7b2291e5b200ac8c7c3b9259281900390910190a3505050565b6001600160a01b038316610d045760405162461bcd60e51b815260040180806020018281038252602581526020018061187e6025913960400191505060405180910390fd5b6001600160a01b038216610d495760405162461bcd60e51b815260040180806020018281038252602381526020018061175c6023913960400191505060405180910390fd5b610d548383836112f6565b610d91816040518060600160405280602681526020016117c3602691396001600160a01b0386166000908152602081905260409020549190610e1a565b6001600160a01b038085166000908152602081905260408082209390935590841681522054610dc09082610eb1565b6001600160a01b038084166000818152602081815260409182902094909455805185815290519193928716927fddf252ad1be2c89b69c2b068fc378daa952ba7f163c4a11628f55a4df523b3ef92918290030190a3505050565b60008184841115610ea95760405162461bcd60e51b81526004018080602001828103825283818151815260200191508051906020019080838360005b83811015610e6e578181015183820152602001610e56565b50505050905090810190601f168015610e9b5780820380516001836020036101000a031916815260200191505b509250505060405180910390fd5b505050900390565b600082820183811015610f0b576040805162461bcd60e51b815260206004820152601b60248201527f536166654d6174683a206164646974696f6e206f766572666c6f770000000000604482015290519081900360640190fd5b9392505050565b60006105926c0c9f2c9cd04674edea40000000610f5c610f318561083e565b6001600160a01b038616600090815260076020526040902054600654610f5691611404565b90610f62565b90611446565b600082610f7157506000610592565b82820282848281610f7e57fe5b0414610f0b5760405162461bcd60e51b81526004018080602001828103825260218152602001806117e96021913960400191505060405180910390fd5b604080516001600160a01b0380861660248301528416604482015260648082018490528251808303909101815260849091019091526020810180516001600160e01b03166323b872dd60e01b179052611015908590611488565b50505050565b6001600160a01b038216611076576040805162461bcd60e51b815260206004820152601f60248201527f45524332303a206d696e7420746f20746865207a65726f206164647265737300604482015290519081900360640190fd5b611082600083836112f6565b60025461108f9082610eb1565b6002556001600160a01b0382166000908152602081905260409020546110b59082610eb1565b6001600160a01b0383166000818152602081815260408083209490945583518581529351929391927fddf252ad1be2c89b69c2b068fc378daa952ba7f163c4a11628f55a4df523b3ef9281900390910190a35050565b6001600160a01b0382166111505760405162461bcd60e51b81526004018080602001828103825260218152602001806118326021913960400191505060405180910390fd5b61115c826000836112f6565b6111998160405180606001604052806022815260200161177f602291396001600160a01b0385166000908152602081905260409020549190610e1a565b6001600160a01b0383166000908152602081905260409020556002546111bf9082611404565b6002556040805182815290516000916001600160a01b038516917fddf252ad1be2c89b69c2b068fc378daa952ba7f163c4a11628f55a4df523b3ef9181900360200190a35050565b604080516001600160a01b038416602482015260448082018490528251808303909101815260649091019091526020810180516001600160e01b031663a9059cbb60e01b179052611259908490611488565b505050565b60008061126a83610f12565b6006546001600160a01b03851660009081526007602090815260408083209390935560089052205490915061129f9082610eb1565b6001600160a01b0390931660009081526008602052604090208390555090919050565b610a346001600160a01b037f0000000000000000000000000000000000000000000000000000000000000000163383611207565b6001600160a01b038316156113105761130e8361125e565b505b6001600160a01b0382161561132a576113288261125e565b505b6009546001600160a01b0384166000908152600a602052604090205442916113529190610eb1565b11801561137f57506001600160a01b038083166000908152600a6020526040808220549286168252902054115b15611259576001600160a01b0382166000908152600b602052604090205460ff16156113dc5760405162461bcd60e51b815260040180806020018281038252602b815260200180611853602b913960400191505060405180910390fd5b6001600160a01b038084166000908152600a6020526040808220549285168252902055505050565b6000610f0b83836040518060400160405280601e81526020017f536166654d6174683a207375627472616374696f6e206f766572666c6f770000815250610e1a565b6000610f0b83836040518060400160405280601a81526020017f536166654d6174683a206469766973696f6e206279207a65726f000000000000815250611539565b60606114dd826040518060400160405280602081526020017f5361666545524332303a206c6f772d6c6576656c2063616c6c206661696c6564815250856001600160a01b031661159e9092919063ffffffff16565b805190915015611259578080602001905160208110156114fc57600080fd5b50516112595760405162461bcd60e51b815260040180806020018281038252602a8152602001806118c7602a913960400191505060405180910390fd5b600081836115885760405162461bcd60e51b8152602060048201818152835160248401528351909283926044909101919085019080838360008315610e6e578181015183820152602001610e56565b50600083858161159457fe5b0495945050505050565b60606115ad84846000856115b5565b949350505050565b60606115c085611722565b611611576040805162461bcd60e51b815260206004820152601d60248201527f416464726573733a2063616c6c20746f206e6f6e2d636f6e7472616374000000604482015290519081900360640190fd5b60006060866001600160a01b031685876040518082805190602001908083835b602083106116505780518252601f199092019160209182019101611631565b6001836020036101000a03801982511681845116808217855250505050505090500191505060006040518083038185875af1925050503d80600081146116b2576040519150601f19603f3d011682016040523d82523d6000602084013e6116b7565b606091505b509150915081156116cb5791506115ad9050565b8051156116db5780518082602001fd5b60405162461bcd60e51b8152602060048201818152865160248401528651879391928392604401919085019080838360008315610e6e578181015183820152602001610e56565b6000813f7fc5d2460186f7233c927e7db2dcc703c0e500b653ca82273b7bfad8045d85a4708181148015906115ad57505015159291505056fe45524332303a207472616e7366657220746f20746865207a65726f206164647265737345524332303a206275726e20616d6f756e7420657863656564732062616c616e636545524332303a20617070726f766520746f20746865207a65726f206164647265737345524332303a207472616e7366657220616d6f756e7420657863656564732062616c616e6365536166654d6174683a206d756c7469706c69636174696f6e206f766572666c6f7745524332303a207472616e7366657220616d6f756e74206578636565647320616c6c6f77616e636545524332303a206275726e2066726f6d20746865207a65726f206164647265737374686520726563697069656e7420646f6573206e6f742061636365707420626c6f636b65642066756e647345524332303a207472616e736665722066726f6d20746865207a65726f206164647265737345524332303a20617070726f76652066726f6d20746865207a65726f20616464726573735361666545524332303a204552433230206f7065726174696f6e20646964206e6f74207375636365656445524332303a2064656372656173656420616c6c6f77616e63652062656c6f77207a65726fa26469706673582212204d1db89a9ceff86a6de2f0e839ec2502c4a95ef29fd1d72482522f60d8498dcd64736f6c634300060c0033",
  "immutableReferences": {
    "4756": [
      {
        "length": 32,
        "start": 2139
      },
      {
        "length": 32,
        "start": 2572
      },
      {
        "length": 32,
        "start": 2816
      }
    ],
    "4767": [
      {
        "length": 32,
        "start": 1440
      },
      {
        "length": 32,
        "start": 2069
      }
    ],
    "5204": [
      {
        "length": 32,
        "start": 1757
      },
      {
        "length": 32,
        "start": 1917
      },
      {
        "length": 32,
        "start": 2034
      },
      {
        "length": 32,
        "start": 4815
      }
    ]
  },
  "source": "/**\n * SPDX-License-Identifier: GPL-3.0-or-later\n * Hegic\n * Copyright (C) 2020 Hegic Protocol\n *\n * This program is free software: you can redistribute it and/or modify\n * it under the terms of the GNU General Public License as published by\n * the Free Software Foundation, either version 3 of the License, or\n * (at your option) any later version.\n *\n * This program is distributed in the hope that it will be useful,\n * but WITHOUT ANY WARRANTY; without even the implied warranty of\n * MERCHANTABILITY or FITNESS FOR A PARTICULAR PURPOSE.  See the\n * GNU General Public License for more details.\n *\n * You should have received a copy of the GNU General Public License\n * along with this program.  If not, see <http://www.gnu.org/licenses/>.\n */\n\nimport \"./HegicStaking.sol\";\npragma solidity 0.6.12;\n\n\ncontract HegicStakingWBTC is HegicStaking, IHegicStakingERC20 {\n    using SafeERC20 for IERC20;\n    using SafeMath for uint;\n\n    IERC20 public immutable WBTC;\n\n    constructor(ERC20 _token, ERC20 wbtc) public\n        HegicStaking(_token, \"HEGIC WBTC Staking lot\", \"hlWBTC\") {\n        WBTC = wbtc;\n    }\n\n    function sendProfit(uint amount) external override {\n        uint _totalSupply = totalSupply();\n        if (_totalSupply > 0) {\n            totalProfit += amount.mul(ACCURACY) / _totalSupply;\n            WBTC.safeTransferFrom(msg.sender, address(this), amount);\n            emit Profit(amount);\n        } else {\n            WBTC.safeTransferFrom(msg.sender, FALLBACK_RECIPIENT, amount);\n        }\n    }\n\n    function _transferProfit(uint amount) internal override {\n        WBTC.safeTransfer(msg.sender, amount);\n    }\n}\n",
  "sourcePath": "/home/tom/Desktop/Medium/AutonomousHegician/contracts-v888/contracts/Staking/HegicStakingWBTC.sol",
  "compiler": {
    "name": "solc",
    "version": "0.6.12+commit.27d51765.Emscripten.clang"
  },
  "schemaVersion": "3.2.3",
  "updatedAt": "2020-10-15T22:58:26.117Z",
  "devdoc": {
    "kind": "dev",
    "methods": {
      "allowance(address,address)": {
        "details": "See {IERC20-allowance}."
      },
      "approve(address,uint256)": {
        "details": "See {IERC20-approve}. Requirements: - `spender` cannot be the zero address."
      },
      "balanceOf(address)": {
        "details": "See {IERC20-balanceOf}."
      },
      "decimals()": {
        "details": "Returns the number of decimals used to get its user representation. For example, if `decimals` equals `2`, a balance of `505` tokens should be displayed to a user as `5,05` (`505 / 10 ** 2`). Tokens usually opt for a value of 18, imitating the relationship between Ether and Wei. This is the value {ERC20} uses, unless {_setupDecimals} is called. NOTE: This information is only used for _display_ purposes: it in no way affects any of the arithmetic of the contract, including {IERC20-balanceOf} and {IERC20-transfer}."
      },
      "decreaseAllowance(address,uint256)": {
        "details": "Atomically decreases the allowance granted to `spender` by the caller. This is an alternative to {approve} that can be used as a mitigation for problems described in {IERC20-approve}. Emits an {Approval} event indicating the updated allowance. Requirements: - `spender` cannot be the zero address. - `spender` must have allowance for the caller of at least `subtractedValue`."
      },
      "increaseAllowance(address,uint256)": {
        "details": "Atomically increases the allowance granted to `spender` by the caller. This is an alternative to {approve} that can be used as a mitigation for problems described in {IERC20-approve}. Emits an {Approval} event indicating the updated allowance. Requirements: - `spender` cannot be the zero address."
      },
      "name()": {
        "details": "Returns the name of the token."
      },
      "symbol()": {
        "details": "Returns the symbol of the token, usually a shorter version of the name."
      },
      "totalSupply()": {
        "details": "See {IERC20-totalSupply}."
      },
      "transfer(address,uint256)": {
        "details": "See {IERC20-transfer}. Requirements: - `recipient` cannot be the zero address. - the caller must have a balance of at least `amount`."
      },
      "transferFrom(address,address,uint256)": {
        "details": "See {IERC20-transferFrom}. Emits an {Approval} event indicating the updated allowance. This is not required by the EIP. See the note at the beginning of {ERC20}; Requirements: - `sender` and `recipient` cannot be the zero address. - `sender` must have a balance of at least `amount`. - the caller must have allowance for ``sender``'s tokens of at least `amount`."
      }
    },
    "version": 1
  },
  "userdoc": {
    "kind": "user",
    "methods": {
      "revertTransfersInLockUpPeriod(bool)": {
        "notice": "Used for ..."
      }
    },
    "version": 1
  }
}