{
  "contractName": "HegicERCPool",
  "abi": [
    {
      "inputs": [
        {
          "internalType": "contract IERC20",
          "name": "_token",
          "type": "address"
        }
      ],
      "stateMutability": "nonpayable",
      "type": "constructor"
    },
    {
      "anonymous": false,
      "inputs": [
        {
          "indexed": true,
          "internalType": "address",
          "name": "owner",
          "type": "address"
        },
        {
          "indexed": true,
          "internalType": "address",
          "name": "spender",
          "type": "address"
        },
        {
          "indexed": false,
          "internalType": "uint256",
          "name": "value",
          "type": "uint256"
        }
      ],
      "name": "Approval",
      "type": "event"
    },
    {
      "anonymous": false,
      "inputs": [
        {
          "indexed": true,
          "internalType": "address",
          "name": "previousOwner",
          "type": "address"
        },
        {
          "indexed": true,
          "internalType": "address",
          "name": "newOwner",
          "type": "address"
        }
      ],
      "name": "OwnershipTransferred",
      "type": "event"
    },
    {
      "anonymous": false,
      "inputs": [
        {
          "indexed": true,
          "internalType": "address",
          "name": "account",
          "type": "address"
        },
        {
          "indexed": false,
          "internalType": "uint256",
          "name": "amount",
          "type": "uint256"
        },
        {
          "indexed": false,
          "internalType": "uint256",
          "name": "writeAmount",
          "type": "uint256"
        }
      ],
      "name": "Provide",
      "type": "event"
    },
    {
      "anonymous": false,
      "inputs": [
        {
          "indexed": true,
          "internalType": "address",
          "name": "from",
          "type": "address"
        },
        {
          "indexed": true,
          "internalType": "address",
          "name": "to",
          "type": "address"
        },
        {
          "indexed": false,
          "internalType": "uint256",
          "name": "value",
          "type": "uint256"
        }
      ],
      "name": "Transfer",
      "type": "event"
    },
    {
      "anonymous": false,
      "inputs": [
        {
          "indexed": true,
          "internalType": "address",
          "name": "account",
          "type": "address"
        },
        {
          "indexed": false,
          "internalType": "uint256",
          "name": "amount",
          "type": "uint256"
        },
        {
          "indexed": false,
          "internalType": "uint256",
          "name": "writeAmount",
          "type": "uint256"
        }
      ],
      "name": "Withdraw",
      "type": "event"
    },
    {
      "inputs": [
        {
          "internalType": "address",
          "name": "owner",
          "type": "address"
        },
        {
          "internalType": "address",
          "name": "spender",
          "type": "address"
        }
      ],
      "name": "allowance",
      "outputs": [
        {
          "internalType": "uint256",
          "name": "",
          "type": "uint256"
        }
      ],
      "stateMutability": "view",
      "type": "function"
    },
    {
      "inputs": [
        {
          "internalType": "address",
          "name": "spender",
          "type": "address"
        },
        {
          "internalType": "uint256",
          "name": "amount",
          "type": "uint256"
        }
      ],
      "name": "approve",
      "outputs": [
        {
          "internalType": "bool",
          "name": "",
          "type": "bool"
        }
      ],
      "stateMutability": "nonpayable",
      "type": "function"
    },
    {
      "inputs": [
        {
          "internalType": "address",
          "name": "account",
          "type": "address"
        }
      ],
      "name": "balanceOf",
      "outputs": [
        {
          "internalType": "uint256",
          "name": "",
          "type": "uint256"
        }
      ],
      "stateMutability": "view",
      "type": "function"
    },
    {
      "inputs": [],
      "name": "decimals",
      "outputs": [
        {
          "internalType": "uint8",
          "name": "",
          "type": "uint8"
        }
      ],
      "stateMutability": "view",
      "type": "function"
    },
    {
      "inputs": [
        {
          "internalType": "address",
          "name": "spender",
          "type": "address"
        },
        {
          "internalType": "uint256",
          "name": "subtractedValue",
          "type": "uint256"
        }
      ],
      "name": "decreaseAllowance",
      "outputs": [
        {
          "internalType": "bool",
          "name": "",
          "type": "bool"
        }
      ],
      "stateMutability": "nonpayable",
      "type": "function"
    },
    {
      "inputs": [
        {
          "internalType": "address",
          "name": "spender",
          "type": "address"
        },
        {
          "internalType": "uint256",
          "name": "addedValue",
          "type": "uint256"
        }
      ],
      "name": "increaseAllowance",
      "outputs": [
        {
          "internalType": "bool",
          "name": "",
          "type": "bool"
        }
      ],
      "stateMutability": "nonpayable",
      "type": "function"
    },
    {
      "inputs": [],
      "name": "lockedAmount",
      "outputs": [
        {
          "internalType": "uint256",
          "name": "",
          "type": "uint256"
        }
      ],
      "stateMutability": "view",
      "type": "function"
    },
    {
      "inputs": [],
      "name": "lockedPremium",
      "outputs": [
        {
          "internalType": "uint256",
          "name": "",
          "type": "uint256"
        }
      ],
      "stateMutability": "view",
      "type": "function"
    },
    {
      "inputs": [],
      "name": "lockupPeriod",
      "outputs": [
        {
          "internalType": "uint256",
          "name": "",
          "type": "uint256"
        }
      ],
      "stateMutability": "view",
      "type": "function"
    },
    {
      "inputs": [],
      "name": "name",
      "outputs": [
        {
          "internalType": "string",
          "name": "",
          "type": "string"
        }
      ],
      "stateMutability": "view",
      "type": "function"
    },
    {
      "inputs": [],
      "name": "owner",
      "outputs": [
        {
          "internalType": "address",
          "name": "",
          "type": "address"
        }
      ],
      "stateMutability": "view",
      "type": "function"
    },
    {
      "inputs": [],
      "name": "renounceOwnership",
      "outputs": [],
      "stateMutability": "nonpayable",
      "type": "function"
    },
    {
      "inputs": [],
      "name": "symbol",
      "outputs": [
        {
          "internalType": "string",
          "name": "",
          "type": "string"
        }
      ],
      "stateMutability": "view",
      "type": "function"
    },
    {
      "inputs": [],
      "name": "token",
      "outputs": [
        {
          "internalType": "contract IERC20",
          "name": "",
          "type": "address"
        }
      ],
      "stateMutability": "view",
      "type": "function"
    },
    {
      "inputs": [],
      "name": "totalSupply",
      "outputs": [
        {
          "internalType": "uint256",
          "name": "",
          "type": "uint256"
        }
      ],
      "stateMutability": "view",
      "type": "function"
    },
    {
      "inputs": [
        {
          "internalType": "address",
          "name": "recipient",
          "type": "address"
        },
        {
          "internalType": "uint256",
          "name": "amount",
          "type": "uint256"
        }
      ],
      "name": "transfer",
      "outputs": [
        {
          "internalType": "bool",
          "name": "",
          "type": "bool"
        }
      ],
      "stateMutability": "nonpayable",
      "type": "function"
    },
    {
      "inputs": [
        {
          "internalType": "address",
          "name": "sender",
          "type": "address"
        },
        {
          "internalType": "address",
          "name": "recipient",
          "type": "address"
        },
        {
          "internalType": "uint256",
          "name": "amount",
          "type": "uint256"
        }
      ],
      "name": "transferFrom",
      "outputs": [
        {
          "internalType": "bool",
          "name": "",
          "type": "bool"
        }
      ],
      "stateMutability": "nonpayable",
      "type": "function"
    },
    {
      "inputs": [
        {
          "internalType": "address",
          "name": "newOwner",
          "type": "address"
        }
      ],
      "name": "transferOwnership",
      "outputs": [],
      "stateMutability": "nonpayable",
      "type": "function"
    },
    {
      "inputs": [
        {
          "internalType": "uint256",
          "name": "value",
          "type": "uint256"
        }
      ],
      "name": "setLockupPeriod",
      "outputs": [],
      "stateMutability": "nonpayable",
      "type": "function"
    },
    {
      "inputs": [
        {
          "internalType": "uint256",
          "name": "amount",
          "type": "uint256"
        }
      ],
      "name": "lock",
      "outputs": [],
      "stateMutability": "nonpayable",
      "type": "function"
    },
    {
      "inputs": [
        {
          "internalType": "uint256",
          "name": "amount",
          "type": "uint256"
        }
      ],
      "name": "unlock",
      "outputs": [],
      "stateMutability": "nonpayable",
      "type": "function"
    },
    {
      "inputs": [
        {
          "internalType": "uint256",
          "name": "amount",
          "type": "uint256"
        }
      ],
      "name": "sendPremium",
      "outputs": [],
      "stateMutability": "nonpayable",
      "type": "function"
    },
    {
      "inputs": [
        {
          "internalType": "uint256",
          "name": "amount",
          "type": "uint256"
        }
      ],
      "name": "unlockPremium",
      "outputs": [],
      "stateMutability": "nonpayable",
      "type": "function"
    },
    {
      "inputs": [
        {
          "internalType": "address payable",
          "name": "to",
          "type": "address"
        },
        {
          "internalType": "uint256",
          "name": "amount",
          "type": "uint256"
        }
      ],
      "name": "send",
      "outputs": [],
      "stateMutability": "nonpayable",
      "type": "function"
    },
    {
      "inputs": [
        {
          "internalType": "uint256",
          "name": "amount",
          "type": "uint256"
        },
        {
          "internalType": "uint256",
          "name": "minMint",
          "type": "uint256"
        }
      ],
      "name": "provide",
      "outputs": [
        {
          "internalType": "uint256",
          "name": "mint",
          "type": "uint256"
        }
      ],
      "stateMutability": "nonpayable",
      "type": "function"
    },
    {
      "inputs": [
        {
          "internalType": "uint256",
          "name": "amount",
          "type": "uint256"
        },
        {
          "internalType": "uint256",
          "name": "maxBurn",
          "type": "uint256"
        }
      ],
      "name": "withdraw",
      "outputs": [
        {
          "internalType": "uint256",
          "name": "burn",
          "type": "uint256"
        }
      ],
      "stateMutability": "nonpayable",
      "type": "function"
    },
    {
      "inputs": [
        {
          "internalType": "address",
          "name": "user",
          "type": "address"
        }
      ],
      "name": "shareOf",
      "outputs": [
        {
          "internalType": "uint256",
          "name": "share",
          "type": "uint256"
        }
      ],
      "stateMutability": "view",
      "type": "function"
    },
    {
      "inputs": [],
      "name": "availableBalance",
      "outputs": [
        {
          "internalType": "uint256",
          "name": "balance",
          "type": "uint256"
        }
      ],
      "stateMutability": "view",
      "type": "function"
    },
    {
      "inputs": [],
      "name": "totalBalance",
      "outputs": [
        {
          "internalType": "uint256",
          "name": "balance",
          "type": "uint256"
        }
      ],
      "stateMutability": "view",
      "type": "function"
    }
  ],
  "bytecode": "0x6080604052621275006007553480156200001857600080fd5b506040516200224038038062002240833981810160405260208110156200003e57600080fd5b505160408051808201825260128152712432b3b4b1902220a4902628102a37b5b2b760711b60208281019190915282518084019093526008835267777269746544414960c01b908301529060006200009e6001600160e01b036200014a16565b600080546001600160a01b0319166001600160a01b0383169081178255604051929350917f8be0079c531659141344cd1fd0a4f28419497f9722a3daafe3b4186f6b6457e0908290a3508151620000fd9060049060208501906200014f565b508051620001139060059060208401906200014f565b50506006805460ff1916601217905550600b80546001600160a01b039092166001600160a01b0319909216919091179055620001f1565b335b90565b828054600181600116156101000203166002900490600052602060002090601f016020900481019282601f106200019257805160ff1916838001178555620001c2565b82800160010185558215620001c2579182015b82811115620001c2578251825591602001919060010190620001a5565b50620001d0929150620001d4565b5090565b6200014c91905b80821115620001d05760008155600101620001db565b61203f80620002016000396000f3fe608060405234801561001057600080fd5b50600436106101cf5760003560e01c80638da5cb5b11610104578063d0679d34116100a2578063ed922a0611610071578063ed922a0614610539578063ee947a7c14610556578063f2fde38b1461055e578063fc0c546a14610584576101cf565b8063d0679d341461049f578063dd467064146104cb578063dd62ed3e146104e8578063e8c3c54f14610516576101cf565b8063a9059cbb116100de578063a9059cbb14610446578063ab2f0e5114610472578063ad7a672f1461047a578063c771c39014610482576101cf565b80638da5cb5b146103ee57806395d89b4114610412578063a457c2d71461041a576101cf565b8063441a3e701161017157806370a082311161014b57806370a082311461039b578063715018a6146103c1578063797be55e146103c95780638052882a146103d1576101cf565b8063441a3e70146103515780636198e339146103745780636ab28bc814610393576101cf565b806321e5e2c4116101ad57806321e5e2c4146102ab57806323b872dd146102d1578063313ce567146103075780633950935114610325576101cf565b806306fdde03146101d4578063095ea7b31461025157806318160ddd14610291575b600080fd5b6101dc61058c565b6040805160208082528351818301528351919283929083019185019080838360005b838110156102165781810151838201526020016101fe565b50505050905090810190601f1680156102435780820380516001836020036101000a031916815260200191505b509250505060405180910390f35b61027d6004803603604081101561026757600080fd5b506001600160a01b038135169060200135610622565b604080519115158252519081900360200190f35b610299610640565b60408051918252519081900360200190f35b610299600480360360208110156102c157600080fd5b50356001600160a01b0316610646565b61027d600480360360608110156102e757600080fd5b506001600160a01b0381358116916020810135909116906040013561069b565b61030f610728565b6040805160ff9092168252519081900360200190f35b61027d6004803603604081101561033b57600080fd5b506001600160a01b038135169060200135610731565b6102996004803603604081101561036757600080fd5b5080359060200135610785565b6103916004803603602081101561038a57600080fd5b5035610a76565b005b610299610b28565b610299600480360360208110156103b157600080fd5b50356001600160a01b0316610b2e565b610391610b49565b610299610beb565b610391600480360360208110156103e757600080fd5b5035610bf1565b6103f6610ca3565b604080516001600160a01b039092168252519081900360200190f35b6101dc610cb2565b61027d6004803603604081101561043057600080fd5b506001600160a01b038135169060200135610d13565b61027d6004803603604081101561045c57600080fd5b506001600160a01b038135169060200135610d81565b610299610d95565b610299610db6565b6103916004803603602081101561049857600080fd5b5035610e45565b610391600480360360408110156104b557600080fd5b506001600160a01b038135169060200135610efa565b610391600480360360208110156104e157600080fd5b5035611067565b610299600480360360408110156104fe57600080fd5b506001600160a01b0381358116916020013516611135565b6102996004803603604081101561052c57600080fd5b5080359060200135611160565b6103916004803603602081101561054f57600080fd5b5035611381565b6102996114b3565b6103916004803603602081101561057457600080fd5b50356001600160a01b03166114b9565b6103f66115b1565b60048054604080516020601f60026000196101006001881615020190951694909404938401819004810282018101909252828152606093909290918301828280156106185780601f106105ed57610100808354040283529160200191610618565b820191906000526020600020905b8154815290600101906020018083116105fb57829003601f168201915b5050505050905090565b600061063661062f6115c0565b84846115c4565b5060015b92915050565b60035490565b600080610651610640565b90508015610690576106898161067d61066986610b2e565b610671610db6565b9063ffffffff6116b016565b9063ffffffff61171016565b9150610695565b600091505b50919050565b60006106a8848484611752565b61071e846106b46115c0565b61071985604051806060016040528060288152602001611f33602891396001600160a01b038a166000908152600260205260408120906106f26115c0565b6001600160a01b03168152602081019190915260400160002054919063ffffffff6118bb16565b6115c4565b5060019392505050565b60065460ff1690565b600061063661073e6115c0565b84610719856002600061074f6115c0565b6001600160a01b03908116825260208083019390935260409182016000908120918c16815292529020549063ffffffff61195216565b600754336000908152600a6020526040812054909142916107ab9163ffffffff61195216565b11156107fe576040805162461bcd60e51b815260206004820152601d60248201527f506f6f6c3a205769746864726177616c206973206c6f636b6564207570000000604482015290519081900360640190fd5b610806610d95565b8311156108445760405162461bcd60e51b8152600401808060200182810382526071815260200180611ec26071913960800191505060405180910390fd5b61086761084f610db6565b61067d61085a610640565b869063ffffffff6116b016565b9050818111156108be576040805162461bcd60e51b815260206004820152601d60248201527f506f6f6c3a204275726e206c696d697420697320746f6f20736d616c6c000000604482015290519081900360640190fd5b6108c733610b2e565b81111561091b576040805162461bcd60e51b815260206004820152601960248201527f506f6f6c3a20416d6f756e7420697320746f6f206c6172676500000000000000604482015290519081900360640190fd5b6000811161096c576040805162461bcd60e51b8152602060048201526019602482015278141bdbdb0e88105b5bdd5b9d081a5cc81d1bdbc81cdb585b1b603a1b604482015290519081900360640190fd5b61097633826119ac565b6040805184815260208101839052815133927ff279e6a1f5e320cca91135676d9cb6e44ca8a08c0b88342bcdb1144f6511b568928290030190a2600b546040805163a9059cbb60e01b81523360048201526024810186905290516001600160a01b039092169163a9059cbb916044808201926020929091908290030181600087803b158015610a0457600080fd5b505af1158015610a18573d6000803e3d6000fd5b505050506040513d6020811015610a2e57600080fd5b505161063a576040805162461bcd60e51b8152602060048201526012602482015271496e73756666696369656e742066756e647360701b604482015290519081900360640190fd5b610a7e6115c0565b6000546001600160a01b03908116911614610ace576040805162461bcd60e51b81526020600482018190526024820152600080516020611f5b833981519152604482015290519081900360640190fd5b806008541015610b0f5760405162461bcd60e51b8152600401808060200182810382526071815260200180611ec26071913960800191505060405180910390fd5b600854610b22908263ffffffff611ab416565b60085550565b60085481565b6001600160a01b031660009081526001602052604090205490565b610b516115c0565b6000546001600160a01b03908116911614610ba1576040805162461bcd60e51b81526020600482018190526024820152600080516020611f5b833981519152604482015290519081900360640190fd5b600080546040516001600160a01b03909116907f8be0079c531659141344cd1fd0a4f28419497f9722a3daafe3b4186f6b6457e0908390a3600080546001600160a01b0319169055565b60095481565b610bf96115c0565b6000546001600160a01b03908116911614610c49576040805162461bcd60e51b81526020600482018190526024820152600080516020611f5b833981519152604482015290519081900360640190fd5b806009541015610c8a5760405162461bcd60e51b8152600401808060200182810382526073815260200180611db86073913960800191505060405180910390fd5b600954610c9d908263ffffffff611ab416565b60095550565b6000546001600160a01b031690565b60058054604080516020601f60026000196101006001881615020190951694909404938401819004810282018101909252828152606093909290918301828280156106185780601f106105ed57610100808354040283529160200191610618565b6000610636610d206115c0565b8461071985604051806060016040528060258152602001611fe56025913960026000610d4a6115c0565b6001600160a01b03908116825260208083019390935260409182016000908120918d1681529252902054919063ffffffff6118bb16565b6000610636610d8e6115c0565b8484611752565b6000610db1600854610da5610db6565b9063ffffffff611ab416565b905090565b600954600b54604080516370a0823160e01b81523060048201529051600093610db19390926001600160a01b03909116916370a0823191602480820192602092909190829003018186803b158015610e0d57600080fd5b505afa158015610e21573d6000803e3d6000fd5b505050506040513d6020811015610e3757600080fd5b50519063ffffffff611ab416565b610e4d6115c0565b6000546001600160a01b03908116911614610e9d576040805162461bcd60e51b81526020600482018190526024820152600080516020611f5b833981519152604482015290519081900360640190fd5b624f1a00811115610ef5576040805162461bcd60e51b815260206004820152601a60248201527f4c6f636b757020706572696f6420697320746f6f206c61726765000000000000604482015290519081900360640190fd5b600755565b610f026115c0565b6000546001600160a01b03908116911614610f52576040805162461bcd60e51b81526020600482018190526024820152600080516020611f5b833981519152604482015290519081900360640190fd5b6001600160a01b038216610f6557600080fd5b806008541015610fa65760405162461bcd60e51b8152600401808060200182810382526073815260200180611db86073913960800191505060405180910390fd5b600b546040805163a9059cbb60e01b81526001600160a01b038581166004830152602482018590529151919092169163a9059cbb9160448083019260209291908290030181600087803b158015610ffc57600080fd5b505af1158015611010573d6000803e3d6000fd5b505050506040513d602081101561102657600080fd5b50516110635760405162461bcd60e51b8152600401808060200182810382526050815260200180611e2b6050913960600191505060405180910390fd5b5050565b61106f6115c0565b6000546001600160a01b039081169116146110bf576040805162461bcd60e51b81526020600482018190526024820152600080516020611f5b833981519152604482015290519081900360640190fd5b60086110e66110cc610db6565b61067d600a6106718660085461195290919063ffffffff16565b106111225760405162461bcd60e51b815260040180806020018281038252604b815260200180611d03604b913960600191505060405180910390fd5b600854610b22908263ffffffff61195216565b6001600160a01b03918216600090815260026020908152604080832093909416825291909152205490565b336000908152600a602052604081204290558061117b610640565b90506000611187610db6565b90506000821180156111995750600081115b156111b9576111b28161067d878563ffffffff6116b016565b92506111ce565b6111cb856103e863ffffffff6116b016565b92505b83831015611223576040805162461bcd60e51b815260206004820152601d60248201527f506f6f6c3a204d696e74206c696d697420697320746f6f206c61726765000000604482015290519081900360640190fd5b60008311611274576040805162461bcd60e51b8152602060048201526019602482015278141bdbdb0e88105b5bdd5b9d081a5cc81d1bdbc81cdb585b1b603a1b604482015290519081900360640190fd5b61127e3384611af6565b6040805186815260208101859052815133927f4089141ea5e4c16575f5ebf65f1786497ea07c175846fc7745ef8d8986a4ff65928290030190a2600b54604080516323b872dd60e01b81523360048201523060248201526044810188905290516001600160a01b03909216916323b872dd916064808201926020929091908290030181600087803b15801561131257600080fd5b505af1158015611326573d6000803e3d6000fd5b505050506040513d602081101561133c57600080fd5b50516113795760405162461bcd60e51b8152600401808060200182810382526050815260200180611e2b6050913960600191505060405180910390fd5b505092915050565b6113896115c0565b6000546001600160a01b039081169116146113d9576040805162461bcd60e51b81526020600482018190526024820152600080516020611f5b833981519152604482015290519081900360640190fd5b6009546113ec908263ffffffff61195216565b600955600b54604080516323b872dd60e01b81523360048201523060248201526044810184905290516001600160a01b03909216916323b872dd916064808201926020929091908290030181600087803b15801561144957600080fd5b505af115801561145d573d6000803e3d6000fd5b505050506040513d602081101561147357600080fd5b50516114b05760405162461bcd60e51b8152600401808060200182810382526050815260200180611e2b6050913960600191505060405180910390fd5b50565b60075481565b6114c16115c0565b6000546001600160a01b03908116911614611511576040805162461bcd60e51b81526020600482018190526024820152600080516020611f5b833981519152604482015290519081900360640190fd5b6001600160a01b0381166115565760405162461bcd60e51b8152600401808060200182810382526026815260200180611d706026913960400191505060405180910390fd5b600080546040516001600160a01b03808516939216917f8be0079c531659141344cd1fd0a4f28419497f9722a3daafe3b4186f6b6457e091a3600080546001600160a01b0319166001600160a01b0392909216919091179055565b600b546001600160a01b031681565b3390565b6001600160a01b0383166116095760405162461bcd60e51b8152600401808060200182810382526024815260200180611fc16024913960400191505060405180910390fd5b6001600160a01b03821661164e5760405162461bcd60e51b8152600401808060200182810382526022815260200180611d966022913960400191505060405180910390fd5b6001600160a01b03808416600081815260026020908152604080832094871680845294825291829020859055815185815291517f8c5be1e5ebec7d5bd14f71427d1e84f3dd0314c0f7b2291e5b200ac8c7c3b9259281900390910190a3505050565b6000826116bf5750600061063a565b828202828482816116cc57fe5b04146117095760405162461bcd60e51b8152600401808060200182810382526021815260200180611ea16021913960400191505060405180910390fd5b9392505050565b600061170983836040518060400160405280601a81526020017f536166654d6174683a206469766973696f6e206279207a65726f000000000000815250611bf4565b6001600160a01b0383166117975760405162461bcd60e51b8152600401808060200182810382526025815260200180611f9c6025913960400191505060405180910390fd5b6001600160a01b0382166117dc5760405162461bcd60e51b8152600401808060200182810382526023815260200180611ce06023913960400191505060405180910390fd5b6117e7838383611c59565b61182a81604051806060016040528060268152602001611e7b602691396001600160a01b038616600090815260016020526040902054919063ffffffff6118bb16565b6001600160a01b03808516600090815260016020526040808220939093559084168152205461185f908263ffffffff61195216565b6001600160a01b0380841660008181526001602090815260409182902094909455805185815290519193928716927fddf252ad1be2c89b69c2b068fc378daa952ba7f163c4a11628f55a4df523b3ef92918290030190a3505050565b6000818484111561194a5760405162461bcd60e51b81526004018080602001828103825283818151815260200191508051906020019080838360005b8381101561190f5781810151838201526020016118f7565b50505050905090810190601f16801561193c5780820380516001836020036101000a031916815260200191505b509250505060405180910390fd5b505050900390565b600082820183811015611709576040805162461bcd60e51b815260206004820152601b60248201527f536166654d6174683a206164646974696f6e206f766572666c6f770000000000604482015290519081900360640190fd5b6001600160a01b0382166119f15760405162461bcd60e51b8152600401808060200182810382526021815260200180611f7b6021913960400191505060405180910390fd5b6119fd82600083611c59565b611a4081604051806060016040528060228152602001611d4e602291396001600160a01b038516600090815260016020526040902054919063ffffffff6118bb16565b6001600160a01b038316600090815260016020526040902055600354611a6c908263ffffffff611ab416565b6003556040805182815290516000916001600160a01b038516917fddf252ad1be2c89b69c2b068fc378daa952ba7f163c4a11628f55a4df523b3ef9181900360200190a35050565b600061170983836040518060400160405280601e81526020017f536166654d6174683a207375627472616374696f6e206f766572666c6f7700008152506118bb565b6001600160a01b038216611b51576040805162461bcd60e51b815260206004820152601f60248201527f45524332303a206d696e7420746f20746865207a65726f206164647265737300604482015290519081900360640190fd5b611b5d60008383611c59565b600354611b70908263ffffffff61195216565b6003556001600160a01b038216600090815260016020526040902054611b9c908263ffffffff61195216565b6001600160a01b03831660008181526001602090815260408083209490945583518581529351929391927fddf252ad1be2c89b69c2b068fc378daa952ba7f163c4a11628f55a4df523b3ef9281900390910190a35050565b60008183611c435760405162461bcd60e51b815260206004820181815283516024840152835190928392604490910191908501908083836000831561190f5781810151838201526020016118f7565b506000838581611c4f57fe5b0495945050505050565b6007546001600160a01b0384166000908152600a60205260409020544291611c87919063ffffffff61195216565b1115611cda576040805162461bcd60e51b815260206004820152601d60248201527f506f6f6c3a205769746864726177616c206973206c6f636b6564207570000000604482015290519081900360640190fd5b50505056fe45524332303a207472616e7366657220746f20746865207a65726f2061646472657373506f6f6c204572726f723a204e6f7420656e6f7567682066756e6473206f6e2074686520706f6f6c20636f6e74726163742e20506c65617365206c6f7765722074686520616d6f756e742e45524332303a206275726e20616d6f756e7420657863656564732062616c616e63654f776e61626c653a206e6577206f776e657220697320746865207a65726f206164647265737345524332303a20617070726f766520746f20746865207a65726f2061646472657373506f6f6c204572726f723a20596f752061726520747279696e6720746f20756e6c6f636b206d6f7265207072656d69756d73207468616e2068617665206265656e206c6f636b656420666f722074686520636f6e74726163742e20506c65617365206c6f7765722074686520616d6f756e742e546f6b656e207472616e73666572206572726f723a20506c65617365206c6f7765722074686520616d6f756e74206f66207072656d69756d73207468617420796f752077616e7420746f2073656e642e45524332303a207472616e7366657220616d6f756e7420657863656564732062616c616e6365536166654d6174683a206d756c7469706c69636174696f6e206f766572666c6f77506f6f6c204572726f723a20596f752061726520747279696e6720746f20756e6c6f636b206d6f72652066756e6473207468616e2068617665206265656e206c6f636b656420666f7220796f757220636f6e74726163742e20506c65617365206c6f7765722074686520616d6f756e742e45524332303a207472616e7366657220616d6f756e74206578636565647320616c6c6f77616e63654f776e61626c653a2063616c6c6572206973206e6f7420746865206f776e657245524332303a206275726e2066726f6d20746865207a65726f206164647265737345524332303a207472616e736665722066726f6d20746865207a65726f206164647265737345524332303a20617070726f76652066726f6d20746865207a65726f206164647265737345524332303a2064656372656173656420616c6c6f77616e63652062656c6f77207a65726fa264697066735822122053505a4ed46c46c30044b80589c400526bdda45bdd835e52f67553c0bc673e8964736f6c63430006080033",
  "immutableReferences": {},
  "source": "/**\n * SPDX-License-Identifier: GPL-3.0-or-later\n * Hegic\n * Copyright (C) 2020 Hegic Protocol\n *\n * This program is free software: you can redistribute it and/or modify\n * it under the terms of the GNU General Public License as published by\n * the Free Software Foundation, either version 3 of the License, or\n * (at your option) any later version.\n *\n * This program is distributed in the hope that it will be useful,\n * but WITHOUT ANY WARRANTY; without even the implied warranty of\n * MERCHANTABILITY or FITNESS FOR A PARTICULAR PURPOSE.  See the\n * GNU General Public License for more details.\n *\n * You should have received a copy of the GNU General Public License\n * along with this program.  If not, see <http://www.gnu.org/licenses/>.\n */\n\npragma solidity 0.6.8;\nimport \"./Interfaces.sol\";\n\n\n/**\n * @author 0mllwntrmt3\n * @title Hegic DAI Liquidity Pool\n * @notice Accumulates liquidity in DAI from LPs and distributes P&L in DAI\n */\ncontract HegicERCPool is\n    IERCLiquidityPool,\n    Ownable,\n    ERC20(\"Hegic DAI LP Token\", \"writeDAI\")\n{\n    using SafeMath for uint256;\n    uint256 public lockupPeriod = 2 weeks;\n    uint256 public lockedAmount;\n    uint256 public lockedPremium;\n    mapping(address => uint256) private lastProvideTimestamp;\n    IERC20 public override token;\n\n    /*\n     * @return _token DAI Address\n     */\n    constructor(IERC20 _token) public {\n        token = _token;\n    }\n\n    /**\n     * @notice Used for changing the lockup period\n     * @param value New period value\n     */\n    function setLockupPeriod(uint256 value) external override onlyOwner {\n        require(value <= 60 days, \"Lockup period is too large\");\n        lockupPeriod = value;\n    }\n\n    /*\n     * @nonce calls by HegicPutOptions to lock funds\n     * @param amount Amount of funds that should be locked in an option\n     */\n    function lock(uint256 amount) external override onlyOwner {\n        require(\n            lockedAmount.add(amount).mul(10).div(totalBalance()) < 8,\n            \"Pool Error: Not enough funds on the pool contract. Please lower the amount.\"\n        );\n        lockedAmount = lockedAmount.add(amount);\n    }\n\n    /*\n     * @nonce Calls by HegicPutOptions to unlock funds\n     * @param amount Amount of funds that should be unlocked in an expired option\n     */\n    function unlock(uint256 amount) external override onlyOwner {\n        require(lockedAmount >= amount, \"Pool Error: You are trying to unlock more funds than have been locked for your contract. Please lower the amount.\");\n        lockedAmount = lockedAmount.sub(amount);\n    }\n\n    /*\n     * @nonce Calls by HegicPutOptions to send and lock the premiums\n     * @param amount Funds that should be locked\n     */\n    function sendPremium(uint256 amount) external override onlyOwner {\n        lockedPremium = lockedPremium.add(amount);\n        require(\n            token.transferFrom(msg.sender, address(this), amount),\n            \"Token transfer error: Please lower the amount of premiums that you want to send.\"\n        );\n    }\n\n    /*\n     * @nonce Calls by HegicPutOptions to unlock premium after an option expiraton\n     * @param amount Amount of premiums that should be locked\n     */\n    function unlockPremium(uint256 amount) external override onlyOwner {\n        require(lockedPremium >= amount, \"Pool Error: You are trying to unlock more premiums than have been locked for the contract. Please lower the amount.\");\n        lockedPremium = lockedPremium.sub(amount);\n    }\n\n    /*\n     * @nonce calls by HegicPutOptions to unlock the premiums after an option's expiraton\n     * @param to Provider\n     * @param amount Amount of premiums that should be unlocked\n     */\n    function send(address payable to, uint256 amount)\n        external\n        override\n        onlyOwner\n    {\n        require(to != address(0));\n        require(lockedAmount >= amount, \"Pool Error: You are trying to unlock more premiums than have been locked for the contract. Please lower the amount.\");\n        require(token.transfer(to, amount), \"Token transfer error: Please lower the amount of premiums that you want to send.\");\n    }\n\n    /*\n     * @nonce A provider supplies DAI to the pool and receives writeDAI tokens\n     * @param amount Provided tokens\n     * @param minMint Minimum amount of tokens that should be received by a provider.\n                      Calling the provide function will require the minimum amount of tokens to be minted.\n                      The actual amount that will be minted could vary but can only be higher (not lower) than the minimum value.\n     * @return mint Amount of tokens to be received\n     */\n    function provide(uint256 amount, uint256 minMint) external returns (uint256 mint) {\n        lastProvideTimestamp[msg.sender] = now;\n        uint supply = totalSupply();\n        uint balance = totalBalance();\n        if (supply > 0 && balance > 0)\n            mint = amount.mul(supply).div(balance);\n        else\n            mint = amount.mul(1000);\n\n        require(mint >= minMint, \"Pool: Mint limit is too large\");\n        require(mint > 0, \"Pool: Amount is too small\");\n        _mint(msg.sender, mint);\n        emit Provide(msg.sender, amount, mint);\n\n        require(\n            token.transferFrom(msg.sender, address(this), amount),\n            \"Token transfer error: Please lower the amount of premiums that you want to send.\"\n        );\n    }\n\n    /*\n     * @nonce Provider burns writeDAI and receives DAI from the pool\n     * @param amount Amount of DAI to receive\n     * @param maxBurn Maximum amount of tokens that can be burned\n     * @return mint Amount of tokens to be burnt\n     */\n    function withdraw(uint256 amount, uint256 maxBurn) external returns (uint256 burn) {\n        require(\n            lastProvideTimestamp[msg.sender].add(lockupPeriod) <= now,\n            \"Pool: Withdrawal is locked up\"\n        );\n        require(\n            amount <= availableBalance(),\n            \"Pool Error: You are trying to unlock more funds than have been locked for your contract. Please lower the amount.\"\n        );\n        burn = amount.mul(totalSupply()).div(totalBalance());\n\n        require(burn <= maxBurn, \"Pool: Burn limit is too small\");\n        require(burn <= balanceOf(msg.sender), \"Pool: Amount is too large\");\n        require(burn > 0, \"Pool: Amount is too small\");\n\n        _burn(msg.sender, burn);\n        emit Withdraw(msg.sender, amount, burn);\n        require(token.transfer(msg.sender, amount), \"Insufficient funds\");\n    }\n\n    /*\n     * @nonce Returns provider's share in DAI\n     * @param account Provider's address\n     * @return Provider's share in DAI\n     */\n    function shareOf(address user) external view returns (uint256 share) {\n        uint supply = totalSupply();\n        if (supply > 0)\n            share = totalBalance().mul(balanceOf(user)).div(supply);\n        else\n            share = 0;\n    }\n\n    /*\n     * @nonce Returns the amount of DAI available for withdrawals\n     * @return balance Unlocked amount\n     */\n    function availableBalance() public view returns (uint256 balance) {\n        return totalBalance().sub(lockedAmount);\n    }\n\n    /*\n     * @nonce Returns the DAI total balance provided to the pool\n     * @return balance Pool balance\n     */\n    function totalBalance() public override view returns (uint256 balance) {\n        return token.balanceOf(address(this)).sub(lockedPremium);\n    }\n\n    function _beforeTokenTransfer(address from, address, uint256) internal override {\n        require(\n            lastProvideTimestamp[from].add(lockupPeriod) <= now,\n            \"Pool: Withdrawal is locked up\"\n        );\n    }\n}\n",
  "sourcePath": "/home/tom/Desktop/Medium/defi_cefi_bridge/tontine/hedge-contracts-v1/contracts/HegicERCPool.sol",
  "compiler": {
    "name": "solc",
    "version": "0.6.8+commit.0bbfe453.Emscripten.clang"
  },
  "schemaVersion": "3.2.3",
  "updatedAt": "2020-08-17T15:19:03.352Z",
  "networkType": "ethereum",
  "devdoc": {
    "author": "0mllwntrmt3",
    "methods": {
      "allowance(address,address)": {
        "details": "See {IERC20-allowance}."
      },
      "approve(address,uint256)": {
        "details": "See {IERC20-approve}.     * Requirements:     * - `spender` cannot be the zero address."
      },
      "balanceOf(address)": {
        "details": "See {IERC20-balanceOf}."
      },
      "decimals()": {
        "details": "Returns the number of decimals used to get its user representation. For example, if `decimals` equals `2`, a balance of `505` tokens should be displayed to a user as `5,05` (`505 / 10 ** 2`).     * Tokens usually opt for a value of 18, imitating the relationship between Ether and Wei. This is the value {ERC20} uses, unless {_setupDecimals} is called.     * NOTE: This information is only used for _display_ purposes: it in no way affects any of the arithmetic of the contract, including {IERC20-balanceOf} and {IERC20-transfer}."
      },
      "decreaseAllowance(address,uint256)": {
        "details": "Atomically decreases the allowance granted to `spender` by the caller.     * This is an alternative to {approve} that can be used as a mitigation for problems described in {IERC20-approve}.     * Emits an {Approval} event indicating the updated allowance.     * Requirements:     * - `spender` cannot be the zero address. - `spender` must have allowance for the caller of at least `subtractedValue`."
      },
      "increaseAllowance(address,uint256)": {
        "details": "Atomically increases the allowance granted to `spender` by the caller.     * This is an alternative to {approve} that can be used as a mitigation for problems described in {IERC20-approve}.     * Emits an {Approval} event indicating the updated allowance.     * Requirements:     * - `spender` cannot be the zero address."
      },
      "name()": {
        "details": "Returns the name of the token."
      },
      "owner()": {
        "details": "Returns the address of the current owner."
      },
      "renounceOwnership()": {
        "details": "Leaves the contract without owner. It will not be possible to call `onlyOwner` functions anymore. Can only be called by the current owner.     * NOTE: Renouncing ownership will leave the contract without an owner, thereby removing any functionality that is only available to the owner."
      },
      "setLockupPeriod(uint256)": {
        "params": {
          "value": "New period value"
        }
      },
      "symbol()": {
        "details": "Returns the symbol of the token, usually a shorter version of the name."
      },
      "totalSupply()": {
        "details": "See {IERC20-totalSupply}."
      },
      "transfer(address,uint256)": {
        "details": "See {IERC20-transfer}.     * Requirements:     * - `recipient` cannot be the zero address. - the caller must have a balance of at least `amount`."
      },
      "transferFrom(address,address,uint256)": {
        "details": "See {IERC20-transferFrom}.     * Emits an {Approval} event indicating the updated allowance. This is not required by the EIP. See the note at the beginning of {ERC20};     * Requirements: - `sender` and `recipient` cannot be the zero address. - `sender` must have a balance of at least `amount`. - the caller must have allowance for ``sender``'s tokens of at least `amount`."
      },
      "transferOwnership(address)": {
        "details": "Transfers ownership of the contract to a new account (`newOwner`). Can only be called by the current owner."
      }
    },
    "title": "Hegic DAI Liquidity Pool"
  },
  "userdoc": {
    "methods": {
      "setLockupPeriod(uint256)": {
        "notice": "Used for changing the lockup period"
      }
    },
    "notice": "Accumulates liquidity in DAI from LPs and distributes P&L in DAI"
  }
}