{
  "contractName": "HegicPutOptions",
  "abi": [
    {
      "inputs": [
        {
          "internalType": "contract IERC20",
          "name": "_token",
          "type": "address"
        },
        {
          "internalType": "contract AggregatorInterface",
          "name": "_priceProvider",
          "type": "address"
        },
        {
          "internalType": "contract IUniswapV2Router01",
          "name": "_uniswapRouter",
          "type": "address"
        }
      ],
      "stateMutability": "nonpayable",
      "type": "constructor"
    },
    {
      "anonymous": false,
      "inputs": [
        {
          "indexed": true,
          "internalType": "uint256",
          "name": "id",
          "type": "uint256"
        },
        {
          "indexed": true,
          "internalType": "address",
          "name": "account",
          "type": "address"
        },
        {
          "indexed": false,
          "internalType": "uint256",
          "name": "settlementFee",
          "type": "uint256"
        },
        {
          "indexed": false,
          "internalType": "uint256",
          "name": "totalFee",
          "type": "uint256"
        }
      ],
      "name": "Create",
      "type": "event"
    },
    {
      "anonymous": false,
      "inputs": [
        {
          "indexed": true,
          "internalType": "uint256",
          "name": "id",
          "type": "uint256"
        },
        {
          "indexed": false,
          "internalType": "uint256",
          "name": "profit",
          "type": "uint256"
        }
      ],
      "name": "Exercise",
      "type": "event"
    },
    {
      "anonymous": false,
      "inputs": [
        {
          "indexed": true,
          "internalType": "uint256",
          "name": "id",
          "type": "uint256"
        },
        {
          "indexed": false,
          "internalType": "uint256",
          "name": "premium",
          "type": "uint256"
        }
      ],
      "name": "Expire",
      "type": "event"
    },
    {
      "anonymous": false,
      "inputs": [
        {
          "indexed": true,
          "internalType": "address",
          "name": "previousOwner",
          "type": "address"
        },
        {
          "indexed": true,
          "internalType": "address",
          "name": "newOwner",
          "type": "address"
        }
      ],
      "name": "OwnershipTransferred",
      "type": "event"
    },
    {
      "inputs": [
        {
          "internalType": "uint256",
          "name": "period",
          "type": "uint256"
        },
        {
          "internalType": "uint256",
          "name": "amount",
          "type": "uint256"
        },
        {
          "internalType": "uint256",
          "name": "strike",
          "type": "uint256"
        }
      ],
      "name": "create",
      "outputs": [
        {
          "internalType": "uint256",
          "name": "optionID",
          "type": "uint256"
        }
      ],
      "stateMutability": "payable",
      "type": "function",
      "payable": true
    },
    {
      "inputs": [
        {
          "internalType": "uint256",
          "name": "optionID",
          "type": "uint256"
        }
      ],
      "name": "exercise",
      "outputs": [],
      "stateMutability": "nonpayable",
      "type": "function"
    },
    {
      "inputs": [
        {
          "internalType": "uint256",
          "name": "period",
          "type": "uint256"
        },
        {
          "internalType": "uint256",
          "name": "amount",
          "type": "uint256"
        },
        {
          "internalType": "uint256",
          "name": "strike",
          "type": "uint256"
        }
      ],
      "name": "fees",
      "outputs": [
        {
          "internalType": "uint256",
          "name": "total",
          "type": "uint256"
        },
        {
          "internalType": "uint256",
          "name": "settlementFee",
          "type": "uint256"
        },
        {
          "internalType": "uint256",
          "name": "strikeFee",
          "type": "uint256"
        },
        {
          "internalType": "uint256",
          "name": "periodFee",
          "type": "uint256"
        }
      ],
      "stateMutability": "view",
      "type": "function",
      "constant": true
    },
    {
      "inputs": [],
      "name": "impliedVolRate",
      "outputs": [
        {
          "internalType": "uint256",
          "name": "",
          "type": "uint256"
        }
      ],
      "stateMutability": "view",
      "type": "function",
      "constant": true
    },
    {
      "inputs": [],
      "name": "maxSpread",
      "outputs": [
        {
          "internalType": "uint256",
          "name": "",
          "type": "uint256"
        }
      ],
      "stateMutability": "view",
      "type": "function",
      "constant": true
    },
    {
      "inputs": [
        {
          "internalType": "uint256",
          "name": "",
          "type": "uint256"
        }
      ],
      "name": "options",
      "outputs": [
        {
          "internalType": "enum HegicOptions.State",
          "name": "state",
          "type": "uint8"
        },
        {
          "internalType": "address payable",
          "name": "holder",
          "type": "address"
        },
        {
          "internalType": "uint256",
          "name": "strike",
          "type": "uint256"
        },
        {
          "internalType": "uint256",
          "name": "amount",
          "type": "uint256"
        },
        {
          "internalType": "uint256",
          "name": "premium",
          "type": "uint256"
        },
        {
          "internalType": "uint256",
          "name": "expiration",
          "type": "uint256"
        }
      ],
      "stateMutability": "view",
      "type": "function",
      "constant": true
    },
    {
      "inputs": [],
      "name": "owner",
      "outputs": [
        {
          "internalType": "address",
          "name": "",
          "type": "address"
        }
      ],
      "stateMutability": "view",
      "type": "function",
      "constant": true
    },
    {
      "inputs": [],
      "name": "pool",
      "outputs": [
        {
          "internalType": "contract HegicERCPool",
          "name": "",
          "type": "address"
        }
      ],
      "stateMutability": "view",
      "type": "function",
      "constant": true
    },
    {
      "inputs": [],
      "name": "priceProvider",
      "outputs": [
        {
          "internalType": "contract AggregatorInterface",
          "name": "",
          "type": "address"
        }
      ],
      "stateMutability": "view",
      "type": "function",
      "constant": true
    },
    {
      "inputs": [],
      "name": "renounceOwnership",
      "outputs": [],
      "stateMutability": "nonpayable",
      "type": "function"
    },
    {
      "inputs": [
        {
          "internalType": "uint256",
          "name": "value",
          "type": "uint256"
        }
      ],
      "name": "setImpliedVolRate",
      "outputs": [],
      "stateMutability": "nonpayable",
      "type": "function"
    },
    {
      "inputs": [
        {
          "internalType": "address payable",
          "name": "recipient",
          "type": "address"
        }
      ],
      "name": "setSettlementFeeRecipient",
      "outputs": [],
      "stateMutability": "nonpayable",
      "type": "function"
    },
    {
      "inputs": [],
      "name": "settlementFeeRecipient",
      "outputs": [
        {
          "internalType": "address payable",
          "name": "",
          "type": "address"
        }
      ],
      "stateMutability": "view",
      "type": "function",
      "constant": true
    },
    {
      "inputs": [
        {
          "internalType": "address",
          "name": "newOwner",
          "type": "address"
        }
      ],
      "name": "transferOwnership",
      "outputs": [],
      "stateMutability": "nonpayable",
      "type": "function"
    },
    {
      "inputs": [],
      "name": "uniswapRouter",
      "outputs": [
        {
          "internalType": "contract IUniswapV2Router01",
          "name": "",
          "type": "address"
        }
      ],
      "stateMutability": "view",
      "type": "function",
      "constant": true
    },
    {
      "inputs": [
        {
          "internalType": "uint256",
          "name": "optionID",
          "type": "uint256"
        }
      ],
      "name": "unlock",
      "outputs": [],
      "stateMutability": "nonpayable",
      "type": "function"
    },
    {
      "inputs": [
        {
          "internalType": "uint256[]",
          "name": "optionIDs",
          "type": "uint256[]"
        }
      ],
      "name": "unlockAll",
      "outputs": [],
      "stateMutability": "nonpayable",
      "type": "function"
    },
    {
      "inputs": [],
      "name": "transferPoolOwnership",
      "outputs": [],
      "stateMutability": "nonpayable",
      "type": "function"
    },
    {
      "inputs": [
        {
          "internalType": "uint256",
          "name": "value",
          "type": "uint256"
        }
      ],
      "name": "setMaxSpread",
      "outputs": [],
      "stateMutability": "nonpayable",
      "type": "function"
    },
    {
      "inputs": [
        {
          "internalType": "uint256",
          "name": "value",
          "type": "uint256"
        }
      ],
      "name": "setLockupPeriod",
      "outputs": [],
      "stateMutability": "nonpayable",
      "type": "function"
    },
    {
      "inputs": [],
      "name": "approve",
      "outputs": [],
      "stateMutability": "nonpayable",
      "type": "function"
    }
  ],
  "bytecode": "0x6080604052605f6008553480156200001657600080fd5b506040516200439c3803806200439c833981810160405260608110156200003c57600080fd5b508051602082015160409092015190919081600080620000646001600160e01b03620001b816565b600080546001600160a01b0319166001600160a01b0383169081178255604051929350917f8be0079c531659141344cd1fd0a4f28419497f9722a3daafe3b4186f6b6457e0908290a350600580546001600160a01b0319166001600160a01b0384161780825582919060ff60a01b1916600160a01b836001811115620000e657fe5b0217905550620000fe6001600160e01b03620001bc16565b600180546001600160a01b03199081166001600160a01b039384161790915561157c600355426004556009805482168884161790819055600680549092168684161790915560405191169250620001569150620002a8565b6001600160a01b03909116815260405190819003602001906000f08015801562000184573d6000803e3d6000fd5b50600780546001600160a01b0319166001600160a01b0392909216919091179055620001af620001cb565b505050620002b6565b3390565b6000546001600160a01b031690565b6009546007546040805163095ea7b360e01b81526001600160a01b03928316600482015260001960248201529051919092169163095ea7b39160448083019260209291908290030181600087803b1580156200022657600080fd5b505af11580156200023b573d6000803e3d6000fd5b505050506040513d60208110156200025257600080fd5b5051620002a6576040805162461bcd60e51b815260206004820152601460248201527f746f6b656e20617070726f7665206661696c6564000000000000000000000000604482015290519081900360640190fd5b565b612240806200215c83390190565b611e9680620002c66000396000f3fe60806040526004361061012a5760003560e01c80638da5cb5b116100ab578063c771c3901161006f578063c771c39014610359578063c97fe94b14610383578063ceaeeba9146103ac578063e342b598146103d6578063f2fde38b14610453578063f53e2894146104865761012a565b80638da5cb5b146102a857806396350a85146102bd578063b07f0a41146102f0578063b888879e1461031a578063bef648db1461032f5761012a565b8063410fa5d9116100f2578063410fa5d91461022a5780636198e3391461023f578063715018a614610269578063735de9f71461027e578063796e8f90146102935761012a565b806312424e3f1461012f57806316f0115b14610146578063181731dc1461017757806318f88e5b1461018c578063409e2205146101b3575b600080fd5b34801561013b57600080fd5b506101446104e2565b005b34801561015257600080fd5b5061015b6105b2565b604080516001600160a01b039092168252519081900360200190f35b34801561018357600080fd5b5061015b6105c1565b34801561019857600080fd5b506101a16105d0565b60408051918252519081900360200190f35b3480156101bf57600080fd5b506101dd600480360360208110156101d657600080fd5b50356105d6565b604051808760028111156101ed57fe5b60ff1681526001600160a01b039096166020870152506040808601949094526060850192909252608084015260a0830152519081900360c0019150f35b34801561023657600080fd5b50610144610628565b34801561024b57600080fd5b506101446004803603602081101561026257600080fd5b503561070e565b34801561027557600080fd5b5061014461089f565b34801561028a57600080fd5b5061015b610941565b34801561029f57600080fd5b506101a1610950565b3480156102b457600080fd5b5061015b610956565b3480156102c957600080fd5b50610144600480360360208110156102e057600080fd5b50356001600160a01b0316610965565b3480156102fc57600080fd5b506101446004803603602081101561031357600080fd5b50356109f2565b34801561032657600080fd5b5061015b610bc5565b34801561033b57600080fd5b506101446004803603602081101561035257600080fd5b5035610bd4565b34801561036557600080fd5b506101446004803603602081101561037c57600080fd5b5035610c87565b6101a16004803603606081101561039957600080fd5b5080359060208101359060400135610d9f565b3480156103b857600080fd5b50610144600480360360208110156103cf57600080fd5b5035611158565b3480156103e257600080fd5b50610144600480360360208110156103f957600080fd5b81019060208101813564010000000081111561041457600080fd5b82018360208201111561042657600080fd5b8035906020019184602083028401116401000000008311171561044857600080fd5b5090925090506111f6565b34801561045f57600080fd5b506101446004803603602081101561047657600080fd5b50356001600160a01b0316611225565b34801561049257600080fd5b506104bc600480360360608110156104a957600080fd5b508035906020810135906040013561131d565b604080519485526020850193909352838301919091526060830152519081900360800190f35b6009546007546040805163095ea7b360e01b81526001600160a01b03928316600482015260001960248201529051919092169163095ea7b39160448083019260209291908290030181600087803b15801561053c57600080fd5b505af1158015610550573d6000803e3d6000fd5b505050506040513d602081101561056657600080fd5b50516105b0576040805162461bcd60e51b81526020600482015260146024820152731d1bdad95b88185c1c1c9bdd994819985a5b195960621b604482015290519081900360640190fd5b565b6007546001600160a01b031681565b6001546001600160a01b031681565b60035481565b600281815481106105e357fe5b60009182526020909120600590910201805460018201546002830154600384015460049094015460ff841695506101009093046001600160a01b031693919290919086565b6106306113e3565b6000546001600160a01b03908116911614610680576040805162461bcd60e51b81526020600482018190526024820152600080516020611e20833981519152604482015290519081900360640190fd5b6004546276a70001421061069357600080fd5b6007546001600160a01b031663f2fde38b6106ac610956565b6040518263ffffffff1660e01b815260040180826001600160a01b03166001600160a01b03168152602001915050600060405180830381600087803b1580156106f457600080fd5b505af1158015610708573d6000803e3d6000fd5b50505050565b60006002828154811061071d57fe5b9060005260206000209060050201905042816004015410610785576040805162461bcd60e51b815260206004820152601a60248201527f4f7074696f6e20686173206e6f74206578706972656420796574000000000000604482015290519081900360640190fd5b6000815460ff16600281111561079757fe5b146107e0576040805162461bcd60e51b81526020600482015260146024820152734f7074696f6e206973206e6f742061637469766560601b604482015290519081900360640190fd5b805460ff191660029081178083556040805160c081019091526108619290918491839160ff169081111561081057fe5b600281111561081b57fe5b8152815461010090046001600160a01b0316602082015260018201546040820152600282015460608201526003820154608082015260049091015460a0909101526113e7565b6003810154604080519182525183917f5f36a4a575e512eb69d6d28c3b0ff98cca7ba50ad5bf04e14094ad1d425e0d31919081900360200190a25050565b6108a76113e3565b6000546001600160a01b039081169116146108f7576040805162461bcd60e51b81526020600482018190526024820152600080516020611e20833981519152604482015290519081900360640190fd5b600080546040516001600160a01b03909116907f8be0079c531659141344cd1fd0a4f28419497f9722a3daafe3b4186f6b6457e0908390a3600080546001600160a01b0319169055565b6006546001600160a01b031681565b60085481565b6000546001600160a01b031690565b61096d6113e3565b6000546001600160a01b039081169116146109bd576040805162461bcd60e51b81526020600482018190526024820152600080516020611e20833981519152604482015290519081900360640190fd5b6001600160a01b0381166109d057600080fd5b600180546001600160a01b0319166001600160a01b0392909216919091179055565b600060028281548110610a0157fe5b906000526020600020906005020190504281600401541015610a5f576040805162461bcd60e51b815260206004820152601260248201527113dc1d1a5bdb881a185cc8195e1c1a5c995960721b604482015290519081900360640190fd5b805461010090046001600160a01b03163314610ab5576040805162461bcd60e51b815260206004820152601060248201526f2bb937b7339036b9b39739b2b73232b960811b604482015290519081900360640190fd5b6000815460ff166002811115610ac757fe5b14610b07576040805162461bcd60e51b815260206004820152600b60248201526a57726f6e6720737461746560a81b604482015290519081900360640190fd5b805460ff19166001178082556040805160c08101909152600091610b8991908490829060ff166002811115610b3857fe5b6002811115610b4357fe5b8152815461010090046001600160a01b0316602082015260018201546040820152600282015460608201526003820154608082015260049091015460a0909101526114cc565b60408051828152905191925084917e84fe51c7cb34b132b7b6eb5d5a87a489f8d6d284758d00a0402c1bad9a0def9181900360200190a2505050565b6005546001600160a01b031681565b610bdc6113e3565b6000546001600160a01b03908116911614610c2c576040805162461bcd60e51b81526020600482018190526024820152600080516020611e20833981519152604482015290519081900360640190fd5b605f811115610c82576040805162461bcd60e51b815260206004820152601960248201527f537072656164206c696d697420697320746f6f20736d616c6c00000000000000604482015290519081900360640190fd5b600855565b610c8f6113e3565b6000546001600160a01b03908116911614610cdf576040805162461bcd60e51b81526020600482018190526024820152600080516020611e20833981519152604482015290519081900360640190fd5b624f1a00811115610d37576040805162461bcd60e51b815260206004820152601a60248201527f4c6f636b757020706572696f6420697320746f6f206c61726765000000000000604482015290519081900360640190fd5b60075460408051630c771c3960e41b81526004810184905290516001600160a01b039092169163c771c3909160248082019260009290919082900301818387803b158015610d8457600080fd5b505af1158015610d98573d6000803e3d6000fd5b5050505050565b6000806000610daf86868661131d565b509193509150600090506305f5e100610dce868863ffffffff61165b16565b81610dd557fe5b04905060008111610e23576040805162461bcd60e51b8152602060048201526013602482015272105b5bdd5b9d081a5cc81d1bdbc81cdb585b1b606a1b604482015290519081900360640190fd5b828210610e6e576040805162461bcd60e51b8152602060048201526014602482015273141c995b5a5d5b481a5cc81d1bdbc81cdb585b1b60621b604482015290519081900360640190fd5b62015180871015610ebc576040805162461bcd60e51b815260206004820152601360248201527214195c9a5bd9081a5cc81d1bdbc81cda1bdc9d606a1b604482015290519081900360640190fd5b6224ea00871115610f09576040805162461bcd60e51b8152602060048201526012602482015271506572696f6420697320746f6f206c6f6e6760701b604482015290519081900360640190fd5b823414610f4b576040805162461bcd60e51b815260206004820152600b60248201526a57726f6e672076616c756560a81b604482015290519081900360640190fd5b6000610f65610f60858563ffffffff6116bd16565b6116ff565b600280546040805160c08101825260008082523360208301529181018b9052606081018c905260808101859052428d0160a082015260018084018555918490528051600584027f405787fa12a823e0f2b7631cc41b3ba8828b3321ca811111fa75cd3aa3bb5ace018054949b509596509094939092849260ff19909116918490811115610fee57fe5b021790555060208281015182546001600160a01b0390911661010002610100600160a81b03199091161782556040808401516001840155606084015160028401556080840151600384015560a09093015160049092019190915581518581529081018690528151339288927f9acccf962da4ed9c3db3a1beedb70b0d4c3f6a69c170baca7198a74548b5ef4e929081900390910190a36111126002868154811061109457fe5b600091825260209091206040805160c081019091526005909202018054829060ff1660028111156110c157fe5b60028111156110cc57fe5b8152815461010090046001600160a01b0316602082015260018201546040820152600282015460608201526003820154608082015260049091015460a090910152611a91565b6001546040516001600160a01b039091169084156108fc029085906000818181858888f1935050505015801561114c573d6000803e3d6000fd5b50505050509392505050565b6111606113e3565b6000546001600160a01b039081169116146111b0576040805162461bcd60e51b81526020600482018190526024820152600080516020611e20833981519152604482015290519081900360640190fd5b6103e88110156111f15760405162461bcd60e51b8152600401808060200182810382526021815260200180611e406021913960400191505060405180910390fd5b600355565b8060005b818110156107085761121d84848381811061121157fe5b9050602002013561070e565b6001016111fa565b61122d6113e3565b6000546001600160a01b0390811691161461127d576040805162461bcd60e51b81526020600482018190526024820152600080516020611e20833981519152604482015290519081900360640190fd5b6001600160a01b0381166112c25760405162461bcd60e51b8152600401808060200182810382526026815260200180611dd96026913960400191505060405180910390fd5b600080546040516001600160a01b03808516939216917f8be0079c531659141344cd1fd0a4f28419497f9722a3daafe3b4186f6b6457e091a3600080546001600160a01b0319166001600160a01b0392909216919091179055565b6000806000806000600560009054906101000a90046001600160a01b03166001600160a01b03166350d25bcd6040518163ffffffff1660e01b815260040160206040518083038186803b15801561137357600080fd5b505afa158015611387573d6000803e3d6000fd5b505050506040513d602081101561139d57600080fd5b505190506113aa87611aca565b93506113b887898884611ad1565b91506113c5878783611b52565b92506113d7828463ffffffff611bec16565b94505093509350935093565b3390565b600754608082015160408051634029441560e11b81526004810192909252516001600160a01b0390921691638052882a9160248082019260009290919082900301818387803b15801561143957600080fd5b505af115801561144d573d6000803e3d6000fd5b5050600754604084015160608501516001600160a01b039092169350636198e3399250611496916305f5e1009161148a919063ffffffff61165b16565b9063ffffffff611c4616565b6040518263ffffffff1660e01b815260040180828152602001915050600060405180830381600087803b158015610d8457600080fd5b600080600560009054906101000a90046001600160a01b03166001600160a01b03166350d25bcd6040518163ffffffff1660e01b815260040160206040518083038186803b15801561151d57600080fd5b505afa158015611531573d6000803e3d6000fd5b505050506040513d602081101561154757600080fd5b505160408401519091508111156115a5576040805162461bcd60e51b815260206004820152601960248201527f43757272656e7420707269636520697320746f6f206869676800000000000000604482015290519081900360640190fd5b6115d86305f5e10061148a85606001516115cc8588604001516116bd90919063ffffffff16565b9063ffffffff61165b16565b600754602085015160408051633419e74d60e21b81526001600160a01b03928316600482015260248101859052905193955091169163d0679d349160448082019260009290919082900301818387803b15801561163457600080fd5b505af1158015611648573d6000803e3d6000fd5b50505050611655836113e7565b50919050565b60008261166a575060006116b7565b8282028284828161167757fe5b04146116b45760405162461bcd60e51b8152600401808060200182810382526021815260200180611dff6021913960400191505060405180910390fd5b90505b92915050565b60006116b483836040518060400160405280601e81526020017f536166654d6174683a207375627472616374696f6e206f766572666c6f770000815250611c88565b600080600560009054906101000a90046001600160a01b03166001600160a01b03166350d25bcd6040518163ffffffff1660e01b815260040160206040518083038186803b15801561175057600080fd5b505afa158015611764573d6000803e3d6000fd5b505050506040513d602081101561177a57600080fd5b50516040805160028082526060808301845293945090916020830190803683375050600654604080516315ab88c960e31b815290519394506001600160a01b039091169263ad5c464892506004808301926020929190829003018186803b1580156117e457600080fd5b505afa1580156117f8573d6000803e3d6000fd5b505050506040513d602081101561180e57600080fd5b50518151829060009061181d57fe5b6001600160a01b03928316602091820292909201015260095482519116908290600190811061184857fe5b6001600160a01b0392831660209182029290920101526006546008546060929190911690637ff36ab5908790611893906402540be4009061148a906115cc858b63ffffffff61165b16565b8530426040518663ffffffff1660e01b81526004018085815260200180602001846001600160a01b03166001600160a01b03168152602001838152602001828103825285818151815260200191508051906020019060200280838360005b838110156119095781810151838201526020016118f1565b50505050905001955050505050506000604051808303818588803b15801561193057600080fd5b505af1158015611944573d6000803e3d6000fd5b50505050506040513d6000823e601f3d908101601f19168201604052602081101561196e57600080fd5b810190808051604051939291908464010000000082111561198e57600080fd5b9083019060208201858111156119a357600080fd5b82518660208202830111640100000000821117156119c057600080fd5b82525081516020918201928201910280838360005b838110156119ed5781810151838201526020016119d5565b50505050905001604052505050905080600182510381518110611a0c57fe5b60200260200101519350600760009054906101000a90046001600160a01b03166001600160a01b031663ed922a06856040518263ffffffff1660e01b815260040180828152602001915050600060405180830381600087803b158015611a7157600080fd5b505af1158015611a85573d6000803e3d6000fd5b50505050505050919050565b600754604082015160608301516001600160a01b039092169163dd46706491611496916305f5e1009161148a919063ffffffff61165b16565b6064900490565b600080600554600160a01b900460ff166001811115611aec57fe5b1415611b2857611b216305f5e10061148a8461148a876115cc6003546115cc611b148d611d1f565b8e9063ffffffff61165b16565b9050611b4a565b611b216305f5e10061148a8561148a866115cc6003546115cc611b148d611d1f565b949350505050565b60008183118015611b7a57506000600554600160a01b900460ff166001811115611b7857fe5b145b15611b9e57611b978261148a866115cc878463ffffffff6116bd16565b9050611be5565b8183108015611bc457506001600554600160a01b900460ff166001811115611bc257fe5b145b15611be157611b978261148a866115cc838863ffffffff6116bd16565b5060005b9392505050565b6000828201838110156116b4576040805162461bcd60e51b815260206004820152601b60248201527f536166654d6174683a206164646974696f6e206f766572666c6f770000000000604482015290519081900360640190fd5b60006116b483836040518060400160405280601a81526020017f536166654d6174683a206469766973696f6e206279207a65726f000000000000815250611d73565b60008184841115611d175760405162461bcd60e51b81526004018080602001828103825283818151815260200191508051906020019080838360005b83811015611cdc578181015183820152602001611cc4565b50505050905090810190601f168015611d095780820380516001836020036101000a031916815260200191505b509250505060405180910390fd5b505050900390565b806000611d38600261148a84600163ffffffff611bec16565b90505b818110156116555780611d69600261148a83611d5d888263ffffffff611c4616565b9063ffffffff611bec16565b9092509050611d3b565b60008183611dc25760405162461bcd60e51b8152602060048201818152835160248401528351909283926044909101919085019080838360008315611cdc578181015183820152602001611cc4565b506000838581611dce57fe5b049594505050505056fe4f776e61626c653a206e6577206f776e657220697320746865207a65726f2061646472657373536166654d6174683a206d756c7469706c69636174696f6e206f766572666c6f774f776e61626c653a2063616c6c6572206973206e6f7420746865206f776e6572496d706c696564566f6c52617465206c696d697420697320746f6f20736d616c6ca2646970667358221220ce2a77f380964fb1c5c66e76e5e03e81efb0c919d6a399478e5cbd48ff3c414d64736f6c634300060800336080604052621275006007553480156200001857600080fd5b506040516200224038038062002240833981810160405260208110156200003e57600080fd5b505160408051808201825260128152712432b3b4b1902220a4902628102a37b5b2b760711b60208281019190915282518084019093526008835267777269746544414960c01b908301529060006200009e6001600160e01b036200014a16565b600080546001600160a01b0319166001600160a01b0383169081178255604051929350917f8be0079c531659141344cd1fd0a4f28419497f9722a3daafe3b4186f6b6457e0908290a3508151620000fd9060049060208501906200014f565b508051620001139060059060208401906200014f565b50506006805460ff1916601217905550600b80546001600160a01b039092166001600160a01b0319909216919091179055620001f1565b335b90565b828054600181600116156101000203166002900490600052602060002090601f016020900481019282601f106200019257805160ff1916838001178555620001c2565b82800160010185558215620001c2579182015b82811115620001c2578251825591602001919060010190620001a5565b50620001d0929150620001d4565b5090565b6200014c91905b80821115620001d05760008155600101620001db565b61203f80620002016000396000f3fe608060405234801561001057600080fd5b50600436106101cf5760003560e01c80638da5cb5b11610104578063d0679d34116100a2578063ed922a0611610071578063ed922a0614610539578063ee947a7c14610556578063f2fde38b1461055e578063fc0c546a14610584576101cf565b8063d0679d341461049f578063dd467064146104cb578063dd62ed3e146104e8578063e8c3c54f14610516576101cf565b8063a9059cbb116100de578063a9059cbb14610446578063ab2f0e5114610472578063ad7a672f1461047a578063c771c39014610482576101cf565b80638da5cb5b146103ee57806395d89b4114610412578063a457c2d71461041a576101cf565b8063441a3e701161017157806370a082311161014b57806370a082311461039b578063715018a6146103c1578063797be55e146103c95780638052882a146103d1576101cf565b8063441a3e70146103515780636198e339146103745780636ab28bc814610393576101cf565b806321e5e2c4116101ad57806321e5e2c4146102ab57806323b872dd146102d1578063313ce567146103075780633950935114610325576101cf565b806306fdde03146101d4578063095ea7b31461025157806318160ddd14610291575b600080fd5b6101dc61058c565b6040805160208082528351818301528351919283929083019185019080838360005b838110156102165781810151838201526020016101fe565b50505050905090810190601f1680156102435780820380516001836020036101000a031916815260200191505b509250505060405180910390f35b61027d6004803603604081101561026757600080fd5b506001600160a01b038135169060200135610622565b604080519115158252519081900360200190f35b610299610640565b60408051918252519081900360200190f35b610299600480360360208110156102c157600080fd5b50356001600160a01b0316610646565b61027d600480360360608110156102e757600080fd5b506001600160a01b0381358116916020810135909116906040013561069b565b61030f610728565b6040805160ff9092168252519081900360200190f35b61027d6004803603604081101561033b57600080fd5b506001600160a01b038135169060200135610731565b6102996004803603604081101561036757600080fd5b5080359060200135610785565b6103916004803603602081101561038a57600080fd5b5035610a76565b005b610299610b28565b610299600480360360208110156103b157600080fd5b50356001600160a01b0316610b2e565b610391610b49565b610299610beb565b610391600480360360208110156103e757600080fd5b5035610bf1565b6103f6610ca3565b604080516001600160a01b039092168252519081900360200190f35b6101dc610cb2565b61027d6004803603604081101561043057600080fd5b506001600160a01b038135169060200135610d13565b61027d6004803603604081101561045c57600080fd5b506001600160a01b038135169060200135610d81565b610299610d95565b610299610db6565b6103916004803603602081101561049857600080fd5b5035610e45565b610391600480360360408110156104b557600080fd5b506001600160a01b038135169060200135610efa565b610391600480360360208110156104e157600080fd5b5035611067565b610299600480360360408110156104fe57600080fd5b506001600160a01b0381358116916020013516611135565b6102996004803603604081101561052c57600080fd5b5080359060200135611160565b6103916004803603602081101561054f57600080fd5b5035611381565b6102996114b3565b6103916004803603602081101561057457600080fd5b50356001600160a01b03166114b9565b6103f66115b1565b60048054604080516020601f60026000196101006001881615020190951694909404938401819004810282018101909252828152606093909290918301828280156106185780601f106105ed57610100808354040283529160200191610618565b820191906000526020600020905b8154815290600101906020018083116105fb57829003601f168201915b5050505050905090565b600061063661062f6115c0565b84846115c4565b5060015b92915050565b60035490565b600080610651610640565b90508015610690576106898161067d61066986610b2e565b610671610db6565b9063ffffffff6116b016565b9063ffffffff61171016565b9150610695565b600091505b50919050565b60006106a8848484611752565b61071e846106b46115c0565b61071985604051806060016040528060288152602001611f33602891396001600160a01b038a166000908152600260205260408120906106f26115c0565b6001600160a01b03168152602081019190915260400160002054919063ffffffff6118bb16565b6115c4565b5060019392505050565b60065460ff1690565b600061063661073e6115c0565b84610719856002600061074f6115c0565b6001600160a01b03908116825260208083019390935260409182016000908120918c16815292529020549063ffffffff61195216565b600754336000908152600a6020526040812054909142916107ab9163ffffffff61195216565b11156107fe576040805162461bcd60e51b815260206004820152601d60248201527f506f6f6c3a205769746864726177616c206973206c6f636b6564207570000000604482015290519081900360640190fd5b610806610d95565b8311156108445760405162461bcd60e51b8152600401808060200182810382526071815260200180611ec26071913960800191505060405180910390fd5b61086761084f610db6565b61067d61085a610640565b869063ffffffff6116b016565b9050818111156108be576040805162461bcd60e51b815260206004820152601d60248201527f506f6f6c3a204275726e206c696d697420697320746f6f20736d616c6c000000604482015290519081900360640190fd5b6108c733610b2e565b81111561091b576040805162461bcd60e51b815260206004820152601960248201527f506f6f6c3a20416d6f756e7420697320746f6f206c6172676500000000000000604482015290519081900360640190fd5b6000811161096c576040805162461bcd60e51b8152602060048201526019602482015278141bdbdb0e88105b5bdd5b9d081a5cc81d1bdbc81cdb585b1b603a1b604482015290519081900360640190fd5b61097633826119ac565b6040805184815260208101839052815133927ff279e6a1f5e320cca91135676d9cb6e44ca8a08c0b88342bcdb1144f6511b568928290030190a2600b546040805163a9059cbb60e01b81523360048201526024810186905290516001600160a01b039092169163a9059cbb916044808201926020929091908290030181600087803b158015610a0457600080fd5b505af1158015610a18573d6000803e3d6000fd5b505050506040513d6020811015610a2e57600080fd5b505161063a576040805162461bcd60e51b8152602060048201526012602482015271496e73756666696369656e742066756e647360701b604482015290519081900360640190fd5b610a7e6115c0565b6000546001600160a01b03908116911614610ace576040805162461bcd60e51b81526020600482018190526024820152600080516020611f5b833981519152604482015290519081900360640190fd5b806008541015610b0f5760405162461bcd60e51b8152600401808060200182810382526071815260200180611ec26071913960800191505060405180910390fd5b600854610b22908263ffffffff611ab416565b60085550565b60085481565b6001600160a01b031660009081526001602052604090205490565b610b516115c0565b6000546001600160a01b03908116911614610ba1576040805162461bcd60e51b81526020600482018190526024820152600080516020611f5b833981519152604482015290519081900360640190fd5b600080546040516001600160a01b03909116907f8be0079c531659141344cd1fd0a4f28419497f9722a3daafe3b4186f6b6457e0908390a3600080546001600160a01b0319169055565b60095481565b610bf96115c0565b6000546001600160a01b03908116911614610c49576040805162461bcd60e51b81526020600482018190526024820152600080516020611f5b833981519152604482015290519081900360640190fd5b806009541015610c8a5760405162461bcd60e51b8152600401808060200182810382526073815260200180611db86073913960800191505060405180910390fd5b600954610c9d908263ffffffff611ab416565b60095550565b6000546001600160a01b031690565b60058054604080516020601f60026000196101006001881615020190951694909404938401819004810282018101909252828152606093909290918301828280156106185780601f106105ed57610100808354040283529160200191610618565b6000610636610d206115c0565b8461071985604051806060016040528060258152602001611fe56025913960026000610d4a6115c0565b6001600160a01b03908116825260208083019390935260409182016000908120918d1681529252902054919063ffffffff6118bb16565b6000610636610d8e6115c0565b8484611752565b6000610db1600854610da5610db6565b9063ffffffff611ab416565b905090565b600954600b54604080516370a0823160e01b81523060048201529051600093610db19390926001600160a01b03909116916370a0823191602480820192602092909190829003018186803b158015610e0d57600080fd5b505afa158015610e21573d6000803e3d6000fd5b505050506040513d6020811015610e3757600080fd5b50519063ffffffff611ab416565b610e4d6115c0565b6000546001600160a01b03908116911614610e9d576040805162461bcd60e51b81526020600482018190526024820152600080516020611f5b833981519152604482015290519081900360640190fd5b624f1a00811115610ef5576040805162461bcd60e51b815260206004820152601a60248201527f4c6f636b757020706572696f6420697320746f6f206c61726765000000000000604482015290519081900360640190fd5b600755565b610f026115c0565b6000546001600160a01b03908116911614610f52576040805162461bcd60e51b81526020600482018190526024820152600080516020611f5b833981519152604482015290519081900360640190fd5b6001600160a01b038216610f6557600080fd5b806008541015610fa65760405162461bcd60e51b8152600401808060200182810382526073815260200180611db86073913960800191505060405180910390fd5b600b546040805163a9059cbb60e01b81526001600160a01b038581166004830152602482018590529151919092169163a9059cbb9160448083019260209291908290030181600087803b158015610ffc57600080fd5b505af1158015611010573d6000803e3d6000fd5b505050506040513d602081101561102657600080fd5b50516110635760405162461bcd60e51b8152600401808060200182810382526050815260200180611e2b6050913960600191505060405180910390fd5b5050565b61106f6115c0565b6000546001600160a01b039081169116146110bf576040805162461bcd60e51b81526020600482018190526024820152600080516020611f5b833981519152604482015290519081900360640190fd5b60086110e66110cc610db6565b61067d600a6106718660085461195290919063ffffffff16565b106111225760405162461bcd60e51b815260040180806020018281038252604b815260200180611d03604b913960600191505060405180910390fd5b600854610b22908263ffffffff61195216565b6001600160a01b03918216600090815260026020908152604080832093909416825291909152205490565b336000908152600a602052604081204290558061117b610640565b90506000611187610db6565b90506000821180156111995750600081115b156111b9576111b28161067d878563ffffffff6116b016565b92506111ce565b6111cb856103e863ffffffff6116b016565b92505b83831015611223576040805162461bcd60e51b815260206004820152601d60248201527f506f6f6c3a204d696e74206c696d697420697320746f6f206c61726765000000604482015290519081900360640190fd5b60008311611274576040805162461bcd60e51b8152602060048201526019602482015278141bdbdb0e88105b5bdd5b9d081a5cc81d1bdbc81cdb585b1b603a1b604482015290519081900360640190fd5b61127e3384611af6565b6040805186815260208101859052815133927f4089141ea5e4c16575f5ebf65f1786497ea07c175846fc7745ef8d8986a4ff65928290030190a2600b54604080516323b872dd60e01b81523360048201523060248201526044810188905290516001600160a01b03909216916323b872dd916064808201926020929091908290030181600087803b15801561131257600080fd5b505af1158015611326573d6000803e3d6000fd5b505050506040513d602081101561133c57600080fd5b50516113795760405162461bcd60e51b8152600401808060200182810382526050815260200180611e2b6050913960600191505060405180910390fd5b505092915050565b6113896115c0565b6000546001600160a01b039081169116146113d9576040805162461bcd60e51b81526020600482018190526024820152600080516020611f5b833981519152604482015290519081900360640190fd5b6009546113ec908263ffffffff61195216565b600955600b54604080516323b872dd60e01b81523360048201523060248201526044810184905290516001600160a01b03909216916323b872dd916064808201926020929091908290030181600087803b15801561144957600080fd5b505af115801561145d573d6000803e3d6000fd5b505050506040513d602081101561147357600080fd5b50516114b05760405162461bcd60e51b8152600401808060200182810382526050815260200180611e2b6050913960600191505060405180910390fd5b50565b60075481565b6114c16115c0565b6000546001600160a01b03908116911614611511576040805162461bcd60e51b81526020600482018190526024820152600080516020611f5b833981519152604482015290519081900360640190fd5b6001600160a01b0381166115565760405162461bcd60e51b8152600401808060200182810382526026815260200180611d706026913960400191505060405180910390fd5b600080546040516001600160a01b03808516939216917f8be0079c531659141344cd1fd0a4f28419497f9722a3daafe3b4186f6b6457e091a3600080546001600160a01b0319166001600160a01b0392909216919091179055565b600b546001600160a01b031681565b3390565b6001600160a01b0383166116095760405162461bcd60e51b8152600401808060200182810382526024815260200180611fc16024913960400191505060405180910390fd5b6001600160a01b03821661164e5760405162461bcd60e51b8152600401808060200182810382526022815260200180611d966022913960400191505060405180910390fd5b6001600160a01b03808416600081815260026020908152604080832094871680845294825291829020859055815185815291517f8c5be1e5ebec7d5bd14f71427d1e84f3dd0314c0f7b2291e5b200ac8c7c3b9259281900390910190a3505050565b6000826116bf5750600061063a565b828202828482816116cc57fe5b04146117095760405162461bcd60e51b8152600401808060200182810382526021815260200180611ea16021913960400191505060405180910390fd5b9392505050565b600061170983836040518060400160405280601a81526020017f536166654d6174683a206469766973696f6e206279207a65726f000000000000815250611bf4565b6001600160a01b0383166117975760405162461bcd60e51b8152600401808060200182810382526025815260200180611f9c6025913960400191505060405180910390fd5b6001600160a01b0382166117dc5760405162461bcd60e51b8152600401808060200182810382526023815260200180611ce06023913960400191505060405180910390fd5b6117e7838383611c59565b61182a81604051806060016040528060268152602001611e7b602691396001600160a01b038616600090815260016020526040902054919063ffffffff6118bb16565b6001600160a01b03808516600090815260016020526040808220939093559084168152205461185f908263ffffffff61195216565b6001600160a01b0380841660008181526001602090815260409182902094909455805185815290519193928716927fddf252ad1be2c89b69c2b068fc378daa952ba7f163c4a11628f55a4df523b3ef92918290030190a3505050565b6000818484111561194a5760405162461bcd60e51b81526004018080602001828103825283818151815260200191508051906020019080838360005b8381101561190f5781810151838201526020016118f7565b50505050905090810190601f16801561193c5780820380516001836020036101000a031916815260200191505b509250505060405180910390fd5b505050900390565b600082820183811015611709576040805162461bcd60e51b815260206004820152601b60248201527f536166654d6174683a206164646974696f6e206f766572666c6f770000000000604482015290519081900360640190fd5b6001600160a01b0382166119f15760405162461bcd60e51b8152600401808060200182810382526021815260200180611f7b6021913960400191505060405180910390fd5b6119fd82600083611c59565b611a4081604051806060016040528060228152602001611d4e602291396001600160a01b038516600090815260016020526040902054919063ffffffff6118bb16565b6001600160a01b038316600090815260016020526040902055600354611a6c908263ffffffff611ab416565b6003556040805182815290516000916001600160a01b038516917fddf252ad1be2c89b69c2b068fc378daa952ba7f163c4a11628f55a4df523b3ef9181900360200190a35050565b600061170983836040518060400160405280601e81526020017f536166654d6174683a207375627472616374696f6e206f766572666c6f7700008152506118bb565b6001600160a01b038216611b51576040805162461bcd60e51b815260206004820152601f60248201527f45524332303a206d696e7420746f20746865207a65726f206164647265737300604482015290519081900360640190fd5b611b5d60008383611c59565b600354611b70908263ffffffff61195216565b6003556001600160a01b038216600090815260016020526040902054611b9c908263ffffffff61195216565b6001600160a01b03831660008181526001602090815260408083209490945583518581529351929391927fddf252ad1be2c89b69c2b068fc378daa952ba7f163c4a11628f55a4df523b3ef9281900390910190a35050565b60008183611c435760405162461bcd60e51b815260206004820181815283516024840152835190928392604490910191908501908083836000831561190f5781810151838201526020016118f7565b506000838581611c4f57fe5b0495945050505050565b6007546001600160a01b0384166000908152600a60205260409020544291611c87919063ffffffff61195216565b1115611cda576040805162461bcd60e51b815260206004820152601d60248201527f506f6f6c3a205769746864726177616c206973206c6f636b6564207570000000604482015290519081900360640190fd5b50505056fe45524332303a207472616e7366657220746f20746865207a65726f2061646472657373506f6f6c204572726f723a204e6f7420656e6f7567682066756e6473206f6e2074686520706f6f6c20636f6e74726163742e20506c65617365206c6f7765722074686520616d6f756e742e45524332303a206275726e20616d6f756e7420657863656564732062616c616e63654f776e61626c653a206e6577206f776e657220697320746865207a65726f206164647265737345524332303a20617070726f766520746f20746865207a65726f2061646472657373506f6f6c204572726f723a20596f752061726520747279696e6720746f20756e6c6f636b206d6f7265207072656d69756d73207468616e2068617665206265656e206c6f636b656420666f722074686520636f6e74726163742e20506c65617365206c6f7765722074686520616d6f756e742e546f6b656e207472616e73666572206572726f723a20506c65617365206c6f7765722074686520616d6f756e74206f66207072656d69756d73207468617420796f752077616e7420746f2073656e642e45524332303a207472616e7366657220616d6f756e7420657863656564732062616c616e6365536166654d6174683a206d756c7469706c69636174696f6e206f766572666c6f77506f6f6c204572726f723a20596f752061726520747279696e6720746f20756e6c6f636b206d6f72652066756e6473207468616e2068617665206265656e206c6f636b656420666f7220796f757220636f6e74726163742e20506c65617365206c6f7765722074686520616d6f756e742e45524332303a207472616e7366657220616d6f756e74206578636565647320616c6c6f77616e63654f776e61626c653a2063616c6c6572206973206e6f7420746865206f776e657245524332303a206275726e2066726f6d20746865207a65726f206164647265737345524332303a207472616e736665722066726f6d20746865207a65726f206164647265737345524332303a20617070726f76652066726f6d20746865207a65726f206164647265737345524332303a2064656372656173656420616c6c6f77616e63652062656c6f77207a65726fa264697066735822122053505a4ed46c46c30044b80589c400526bdda45bdd835e52f67553c0bc673e8964736f6c63430006080033",
  "immutableReferences": {},
  "source": "/**\n * SPDX-License-Identifier: GPL-3.0-or-later\n * Hegic\n * Copyright (C) 2020 Hegic Protocol\n *\n * This program is free software: you can redistribute it and/or modify\n * it under the terms of the GNU General Public License as published by\n * the Free Software Foundation, either version 3 of the License, or\n * (at your option) any later version.\n *\n * This program is distributed in the hope that it will be useful,\n * but WITHOUT ANY WARRANTY; without even the implied warranty of\n * MERCHANTABILITY or FITNESS FOR A PARTICULAR PURPOSE.  See the\n * GNU General Public License for more details.\n *\n * You should have received a copy of the GNU General Public License\n * along with this program.  If not, see <http://www.gnu.org/licenses/>.\n */\n\npragma solidity 0.6.8;\nimport \"./HegicOptions.sol\";\n\n\n/**\n * @author 0mllwntrmt3\n * @title Hegic ETH Put Options\n * @notice ETH Put Options Contract\n */\ncontract HegicPutOptions is HegicOptions {\n    IUniswapV2Router01 public uniswapRouter;\n    HegicERCPool public pool;\n    uint256 public maxSpread = 95;\n    IERC20 internal token;\n\n    /**\n     * @param _token The address of stable ERC20 token contract\n     * @param _priceProvider The address of ChainLink ETH/USD price feed contract\n     * @param _uniswapRouter The address of Uniswap Router contract\n     */\n    constructor(\n        IERC20 _token,\n        AggregatorInterface _priceProvider,\n        IUniswapV2Router01 _uniswapRouter\n    )\n        public\n        HegicOptions(_priceProvider, HegicOptions.OptionType.Put)\n    {\n        token = _token;\n        uniswapRouter = _uniswapRouter;\n        pool = new HegicERCPool(token);\n        approve();\n    }\n\n    /**\n     * @notice Can be used to update the contract in critical situations\n     *         in the first 90 days after deployment\n     */\n    function transferPoolOwnership() external onlyOwner {\n        require(now < contractCreationTimestamp + 90 days);\n        pool.transferOwnership(owner());\n    }\n\n    /**\n     * @notice Used for adjusting the spread limit\n     * @param value New maxSpread value\n     */\n    function setMaxSpread(uint256 value) external onlyOwner {\n        require(value <= 95, \"Spread limit is too small\");\n        maxSpread = value;\n    }\n\n    /**\n     * @notice Used for changing the lockup period\n     * @param value New period value\n     */\n    function setLockupPeriod(uint256 value) external onlyOwner {\n        require(value <= 60 days, \"Lockup period is too large\");\n        pool.setLockupPeriod(value);\n    }\n\n    /**\n     * @notice Allows the ERC pool contract to receive and send tokens\n     */\n    function approve() public {\n        require(\n            token.approve(address(pool), uint256(-1)),\n            \"token approve failed\"\n        );\n    }\n\n    /**\n     * @notice Sends premiums to the ERC liquidity pool contract\n     */\n    function sendPremium(uint256 amount) internal override returns (uint premium) {\n        uint currentPrice = uint(priceProvider.latestAnswer());\n        address[] memory path = new address[](2);\n        path[0] = uniswapRouter.WETH();\n        path[1] = address(token);\n        uint[] memory amounts = uniswapRouter.swapExactETHForTokens {\n            value: amount\n        }(\n            amount.mul(currentPrice).mul(maxSpread).div(1e10),\n            path,\n            address(this),\n            now\n        );\n        premium = amounts[amounts.length - 1];\n        pool.sendPremium(premium);\n    }\n\n    /**\n     * @notice Locks the amount required for an option\n     * @param option A specific option contract\n     */\n    function lockFunds(Option memory option) internal override {\n        pool.lock(option.amount.mul(option.strike).div(PRICE_DECIMALS));\n    }\n\n    /**\n     * @notice Sends profits in DAI from the ERC pool to a put option holder's address\n     * @param option A specific option contract\n     */\n    function payProfit(Option memory option) internal override returns (uint profit) {\n        uint currentPrice = uint(priceProvider.latestAnswer());\n        require(option.strike >= currentPrice, \"Current price is too high\");\n        profit = option.strike.sub(currentPrice).mul(option.amount).div(PRICE_DECIMALS);\n        pool.send(option.holder, profit);\n        unlockFunds(option);\n    }\n\n    /**\n     * @notice Unlocks the amount that was locked in a put option contract\n     * @param option A specific option contract\n     */\n    function unlockFunds(Option memory option) internal override {\n        pool.unlockPremium(option.premium);\n        pool.unlock(option.amount.mul(option.strike).div(PRICE_DECIMALS));\n    }\n}\n",
  "sourcePath": "/home/tom/Desktop/Medium/defi_cefi_bridge/tontine/hedge-contracts-v1/contracts/HegicPutOptions.sol",
  "compiler": {
    "name": "solc",
    "version": "0.6.8+commit.0bbfe453.Emscripten.clang"
  },
  "schemaVersion": "3.2.3",
  "updatedAt": "2020-08-17T15:19:03.268Z",
  "networkType": "ethereum",
  "devdoc": {
    "author": "0mllwntrmt3",
    "methods": {
      "constructor": {
        "params": {
          "_priceProvider": "The address of ChainLink ETH/USD price feed contract",
          "_token": "The address of stable ERC20 token contract",
          "_uniswapRouter": "The address of Uniswap Router contract"
        }
      },
      "create(uint256,uint256,uint256)": {
        "params": {
          "amount": "Option amount",
          "period": "Option period in seconds (1 days <= period <= 4 weeks)",
          "strike": "Strike price of the option"
        },
        "returns": {
          "optionID": "Created option's ID"
        }
      },
      "exercise(uint256)": {
        "params": {
          "optionID": "ID of your option"
        }
      },
      "fees(uint256,uint256,uint256)": {
        "params": {
          "amount": "Option amount",
          "period": "Option period in seconds (1 days <= period <= 4 weeks)",
          "strike": "Strike price of the option"
        },
        "returns": {
          "periodFee": "Option period fee amount",
          "settlementFee": "Amount to be distributed to the HEGIC token holders",
          "strikeFee": "Amount that covers the price difference in the ITM options",
          "total": "Total price to be paid"
        }
      },
      "owner()": {
        "details": "Returns the address of the current owner."
      },
      "renounceOwnership()": {
        "details": "Leaves the contract without owner. It will not be possible to call `onlyOwner` functions anymore. Can only be called by the current owner.     * NOTE: Renouncing ownership will leave the contract without an owner, thereby removing any functionality that is only available to the owner."
      },
      "setImpliedVolRate(uint256)": {
        "params": {
          "value": "New IVRate value"
        }
      },
      "setLockupPeriod(uint256)": {
        "params": {
          "value": "New period value"
        }
      },
      "setMaxSpread(uint256)": {
        "params": {
          "value": "New maxSpread value"
        }
      },
      "setSettlementFeeRecipient(address)": {
        "params": {
          "recipient": "New settlementFee recipient address"
        }
      },
      "transferOwnership(address)": {
        "details": "Transfers ownership of the contract to a new account (`newOwner`). Can only be called by the current owner."
      },
      "unlock(uint256)": {
        "params": {
          "optionID": "ID of the option"
        }
      },
      "unlockAll(uint256[])": {
        "params": {
          "optionIDs": "array of options"
        }
      }
    },
    "title": "Hegic ETH Put Options"
  },
  "userdoc": {
    "methods": {
      "approve()": {
        "notice": "Allows the ERC pool contract to receive and send tokens"
      },
      "create(uint256,uint256,uint256)": {
        "notice": "Creates a new option"
      },
      "exercise(uint256)": {
        "notice": "Exercises an active option"
      },
      "fees(uint256,uint256,uint256)": {
        "notice": "Used for getting the actual options prices"
      },
      "setImpliedVolRate(uint256)": {
        "notice": "Used for adjusting the options prices while balancing asset's implied volatility rate"
      },
      "setLockupPeriod(uint256)": {
        "notice": "Used for changing the lockup period"
      },
      "setMaxSpread(uint256)": {
        "notice": "Used for adjusting the spread limit"
      },
      "setSettlementFeeRecipient(address)": {
        "notice": "Used for changing settlementFeeRecipient"
      },
      "transferPoolOwnership()": {
        "notice": "Can be used to update the contract in critical situations        in the first 90 days after deployment"
      },
      "unlock(uint256)": {
        "notice": "Unlock funds locked in the expired options"
      },
      "unlockAll(uint256[])": {
        "notice": "Unlocks an array of options"
      }
    },
    "notice": "ETH Put Options Contract"
  }
}