{
  "contractName": "HegicHedgeContract",
  "abi": [
    {
      "inputs": [
        {
          "internalType": "contract HegicCallOptions",
          "name": "cp",
          "type": "address"
        },
        {
          "internalType": "contract HegicPutOptions",
          "name": "pp",
          "type": "address"
        }
      ],
      "stateMutability": "nonpayable",
      "type": "constructor"
    },
    {
      "anonymous": false,
      "inputs": [
        {
          "indexed": false,
          "internalType": "uint256",
          "name": "hedgeID",
          "type": "uint256"
        },
        {
          "indexed": false,
          "internalType": "address",
          "name": "holder",
          "type": "address"
        },
        {
          "indexed": false,
          "internalType": "uint256",
          "name": "profit",
          "type": "uint256"
        }
      ],
      "name": "ClosedHedge",
      "type": "event"
    },
    {
      "anonymous": false,
      "inputs": [
        {
          "indexed": false,
          "internalType": "uint256",
          "name": "hedgeID",
          "type": "uint256"
        },
        {
          "indexed": false,
          "internalType": "address payable",
          "name": "holder",
          "type": "address"
        },
        {
          "indexed": false,
          "internalType": "string",
          "name": "asset",
          "type": "string"
        },
        {
          "indexed": false,
          "internalType": "uint256",
          "name": "amount",
          "type": "uint256"
        },
        {
          "indexed": false,
          "internalType": "uint256",
          "name": "period",
          "type": "uint256"
        },
        {
          "indexed": false,
          "internalType": "uint256",
          "name": "strike",
          "type": "uint256"
        },
        {
          "indexed": false,
          "internalType": "enum HegicHedgeContract.Trade",
          "name": "direction",
          "type": "uint8"
        },
        {
          "indexed": false,
          "internalType": "uint256",
          "name": "optionID",
          "type": "uint256"
        }
      ],
      "name": "Hedged",
      "type": "event"
    },
    {
      "inputs": [],
      "name": "callProvider",
      "outputs": [
        {
          "internalType": "contract HegicCallOptions",
          "name": "",
          "type": "address"
        }
      ],
      "stateMutability": "view",
      "type": "function",
      "constant": true
    },
    {
      "inputs": [
        {
          "internalType": "uint256",
          "name": "",
          "type": "uint256"
        }
      ],
      "name": "hedges",
      "outputs": [
        {
          "internalType": "uint256",
          "name": "hedgeID",
          "type": "uint256"
        },
        {
          "internalType": "address",
          "name": "holder",
          "type": "address"
        },
        {
          "internalType": "string",
          "name": "asset",
          "type": "string"
        },
        {
          "internalType": "uint256",
          "name": "amount",
          "type": "uint256"
        },
        {
          "internalType": "uint256",
          "name": "period",
          "type": "uint256"
        },
        {
          "internalType": "uint256",
          "name": "strike",
          "type": "uint256"
        },
        {
          "internalType": "enum HegicHedgeContract.Trade",
          "name": "direction",
          "type": "uint8"
        },
        {
          "internalType": "uint256",
          "name": "optionID",
          "type": "uint256"
        }
      ],
      "stateMutability": "view",
      "type": "function",
      "constant": true
    },
    {
      "inputs": [],
      "name": "name",
      "outputs": [
        {
          "internalType": "string",
          "name": "",
          "type": "string"
        }
      ],
      "stateMutability": "view",
      "type": "function",
      "constant": true
    },
    {
      "inputs": [],
      "name": "putProvider",
      "outputs": [
        {
          "internalType": "contract HegicPutOptions",
          "name": "",
          "type": "address"
        }
      ],
      "stateMutability": "view",
      "type": "function",
      "constant": true
    },
    {
      "stateMutability": "payable",
      "type": "receive",
      "payable": true
    },
    {
      "inputs": [
        {
          "internalType": "uint256",
          "name": "_ETHAmount",
          "type": "uint256"
        }
      ],
      "name": "hedge",
      "outputs": [],
      "stateMutability": "payable",
      "type": "function",
      "payable": true
    },
    {
      "inputs": [
        {
          "internalType": "uint256",
          "name": "_ETHAmount",
          "type": "uint256"
        }
      ],
      "name": "calcHedgeCost",
      "outputs": [
        {
          "internalType": "uint256",
          "name": "totalFees",
          "type": "uint256"
        }
      ],
      "stateMutability": "view",
      "type": "function",
      "constant": true
    },
    {
      "inputs": [
        {
          "internalType": "uint256",
          "name": "_period",
          "type": "uint256"
        },
        {
          "internalType": "uint256",
          "name": "_amount",
          "type": "uint256"
        },
        {
          "internalType": "uint256",
          "name": "_strike",
          "type": "uint256"
        }
      ],
      "name": "buyHedge",
      "outputs": [
        {
          "internalType": "uint256",
          "name": "optionID",
          "type": "uint256"
        }
      ],
      "stateMutability": "payable",
      "type": "function",
      "payable": true
    },
    {
      "inputs": [
        {
          "internalType": "uint256",
          "name": "_hedgeID",
          "type": "uint256"
        }
      ],
      "name": "closeHedge",
      "outputs": [],
      "stateMutability": "nonpayable",
      "type": "function"
    },
    {
      "inputs": [
        {
          "internalType": "uint256",
          "name": "_hedgeID",
          "type": "uint256"
        }
      ],
      "name": "calcHedgeProfit",
      "outputs": [
        {
          "internalType": "uint256",
          "name": "profit",
          "type": "uint256"
        }
      ],
      "stateMutability": "nonpayable",
      "type": "function"
    }
  ],
  "bytecode": "0x60806040523480156200001157600080fd5b506040516200157f3803806200157f833981810160405260408110156200003757600080fd5b508051602091820151604080518082019091526011808252704865676963202d204175746f486564676560781b91909401908152919290916200007e9160009190620000b1565b50600180546001600160a01b039384166001600160a01b0319918216179091556002805492909316911617905562000156565b828054600181600116156101000203166002900490600052602060002090601f016020900481019282601f10620000f457805160ff191683800117855562000124565b8280016001018555821562000124579182015b828111156200012457825182559160200191906001019062000107565b506200013292915062000136565b5090565b6200015391905b808211156200013257600081556001016200013d565b90565b61141980620001666000396000f3fe60806040526004361061008a5760003560e01c806358131f0c1161005957806358131f0c14610263578063817f9bc41461029e578063c793b259146102c8578063dd43146a146102f2578063f26ae7051461031c57610091565b806306fdde031461009657806324973513146101205780632bd9b663146102135780634e806f501461024457610091565b3661009157005b600080fd5b3480156100a257600080fd5b506100ab610331565b6040805160208082528351818301528351919283929083019185019080838360005b838110156100e55781810151838201526020016100cd565b50505050905090810190601f1680156101125780820380516001836020036101000a031916815260200191505b509250505060405180910390f35b34801561012c57600080fd5b5061014a6004803603602081101561014357600080fd5b50356103bf565b60405180898152602001886001600160a01b03166001600160a01b031681526020018060200187815260200186815260200185815260200184600181111561018e57fe5b60ff168152602001838152602001828103825288818151815260200191508051906020019080838360005b838110156101d15781810151838201526020016101b9565b50505050905090810190601f1680156101fe5780820380516001836020036101000a031916815260200191505b50995050505050505050505060405180910390f35b34801561021f57600080fd5b506102286104aa565b604080516001600160a01b039092168252519081900360200190f35b6102616004803603602081101561025a57600080fd5b50356104b9565b005b61028c6004803603606081101561027957600080fd5b50803590602081013590604001356105d5565b60408051918252519081900360200190f35b3480156102aa57600080fd5b50610261600480360360208110156102c157600080fd5b50356109f4565b3480156102d457600080fd5b5061028c600480360360208110156102eb57600080fd5b5035610c0c565b3480156102fe57600080fd5b5061028c6004803603602081101561031557600080fd5b5035610e6a565b34801561032857600080fd5b50610228610f16565b6000805460408051602060026001851615610100026000190190941693909304601f810184900484028201840190925281815292918301828280156103b75780601f1061038c576101008083540402835291602001916103b7565b820191906000526020600020905b81548152906001019060200180831161039a57829003601f168201915b505050505081565b600381815481106103cc57fe5b6000918252602091829020600891909102018054600180830154600280850180546040805161010096831615969096026000190190911692909204601f81018890048802850188019092528184529396506001600160a01b039091169491929183018282801561047d5780601f106104525761010080835404028352916020019161047d565b820191906000526020600020905b81548152906001019060200180831161046057829003601f168201915b505050506003830154600484015460058501546006860154600790960154949592949193509160ff169088565b6002546001600160a01b031681565b600081116104f85760405162461bcd60e51b81526004018080602001828103825260218152602001806113226021913960400191505060405180910390fd5b6000306001600160a01b031663dd43146a836040518263ffffffff1660e01b81526004018082815260200191505060206040518083038186803b15801561053e57600080fd5b505afa158015610552573d6000803e3d6000fd5b505050506040513d602081101561056857600080fd5b505190503481146105aa5760405162461bcd60e51b81526004018080602001828103825260268152602001806112fc6026913960400191505060405180910390fd5b6000806000806105b986610f25565b93509350935093506105cc8282856105d5565b50505050505050565b600154604080516316f0115b60e01b815290516000926001600160a01b031691839183916316f0115b916004808301926020929190829003018186803b15801561061e57600080fd5b505afa158015610632573d6000803e3d6000fd5b505050506040513d602081101561064857600080fd5b50516040805163ab2f0e5160e01b8152905191925086916001600160a01b0384169163ab2f0e51916004808301926020929190829003018186803b15801561068f57600080fd5b505afa1580156106a3573d6000803e3d6000fd5b505050506040513d60208110156106b957600080fd5b505110156106f85760405162461bcd60e51b815260040180806020018281038252602e815260200180611391602e913960400191505060405180910390fd5b816001600160a01b031663c97fe94b348888886040518563ffffffff1660e01b81526004018084815260200183815260200182815260200193505050506020604051808303818588803b15801561074e57600080fd5b505af1158015610762573d6000803e3d6000fd5b50505050506040513d602081101561077957600080fd5b5051600354909350610789611207565b604051806101000160405280838152602001336001600160a01b031681526020016040518060400160405280600381526020016208aa8960eb1b81525081526020018881526020018981526020018781526020016001808111156107e957fe5b815260209081018790526003805460018101825560009190915282517fc2575a0e9e593c00f959f8c92f12db2869c3395a3b0502d05e2516446f71f85b6008909202918201908155838301517fc2575a0e9e593c00f959f8c92f12db2869c3395a3b0502d05e2516446f71f85c830180546001600160a01b0319166001600160a01b0390921691909117905560408401518051949550859491936108b2937fc2575a0e9e593c00f959f8c92f12db2869c3395a3b0502d05e2516446f71f85d0192910190611260565b50606082015160038201556080820151600482015560a0820151600582015560c082015160068201805460ff1916600183818111156108ed57fe5b021790555060e0919091015160079091015560035460018301146109425760405162461bcd60e51b815260040180806020018281038252602d815260200180611364602d913960400191505060405180910390fd5b7f3cdca94a4a2b89093bc1dee8c75479db5e9e4e5abe71f2b95e0825628c5a54918233898b8a60018b60405180888152602001876001600160a01b03166001600160a01b03168152602001806020018781526020018681526020018581526020018460018111156109af57fe5b60ff168152602001838152602001828103825260038152602001806208aa8960eb1b8152506020019850505050505050505060405180910390a1505050509392505050565b600154600380546001600160a01b03909216916000919084908110610a1557fe5b90600052602060002090600802019050600080600080600080876001600160a01b031663409e220588600701546040518263ffffffff1660e01b81526004018082815260200191505060c06040518083038186803b158015610a7657600080fd5b505afa158015610a8a573d6000803e3d6000fd5b505050506040513d60c0811015610aa057600080fd5b508051602082015160408301516060840151608085015160a090950151939a5091985096509450909250905081610b085760405162461bcd60e51b81526004018080602001828103825260258152602001806113bf6025913960400191505060405180910390fd5b876001600160a01b031663b07f0a4188600701546040518263ffffffff1660e01b815260040180828152602001915050600060405180830381600087803b158015610b5257600080fd5b505af1158015610b66573d6000803e3d6000fd5b505050506000610b758a610c0c565b60018901546040519192506001600160a01b03169082156108fc029083906000818181858888f19350505050158015610bb2573d6000803e3d6000fd5b506001880154604080518c81526001600160a01b039092166020830152818101839052517f5ad4e86d953a002839c2aeed18c8163173afb59b1c7fd3f9f670685d2f9a7dd99181900360600190a150505050505050505050565b6001546000906001600160a01b0316610c23611207565b60038481548110610c3057fe5b6000918252602091829020604080516101008082018352600894909402909201805483526001808201546001600160a01b031684870152600280830180548551938116159097026000190190961604601f810187900487028201870184528082529395919492860193909291830182828015610ced5780601f10610cc257610100808354040283529160200191610ced565b820191906000526020600020905b815481529060010190602001808311610cd057829003601f168201915b5050509183525050600382015460208201526004820154604082015260058201546060820152600682015460809091019060ff166001811115610d2c57fe5b6001811115610d3757fe5b815260200160078201548152505090506000826001600160a01b031663b888879e6040518163ffffffff1660e01b815260040160206040518083038186803b158015610d8257600080fd5b505afa158015610d96573d6000803e3d6000fd5b505050506040513d6020811015610dac57600080fd5b5051604080516350d25bcd60e01b815290519192506000916001600160a01b038416916350d25bcd916004808301926020929190829003018186803b158015610df457600080fd5b505afa158015610e08573d6000803e3d6000fd5b505050506040513d6020811015610e1e57600080fd5b5051606084015160a0850151919250610e60918391610e5491610e4890849063ffffffff61102516565b9063ffffffff61107016565b9063ffffffff6110c916565b9695505050505050565b6000806000806000610e7b86610f25565b60015460408051633d4f8a2560e21b8152600481018590526024810184905260448101869052905195995093975091955093506001600160a01b031691829163f53e2894916064808301926080929190829003018186803b158015610edf57600080fd5b505afa158015610ef3573d6000803e3d6000fd5b505050506040513d6080811015610f0957600080fd5b5051979650505050505050565b6001546001600160a01b031681565b60015460408051635c4443cf60e11b815290516000928392839283926001600160a01b0316918391839163b888879e916004808301926020929190829003018186803b158015610f7457600080fd5b505afa158015610f88573d6000803e3d6000fd5b505050506040513d6020811015610f9e57600080fd5b5051604080516350d25bcd60e01b815290519192506001916001600160a01b038416916350d25bcd916004808301926020929190829003018186803b158015610fe657600080fd5b505afa158015610ffa573d6000803e3d6000fd5b505050506040513d602081101561101057600080fd5b50519098909762127500975095509350505050565b600061106783836040518060400160405280601e81526020017f536166654d6174683a207375627472616374696f6e206f766572666c6f77000081525061110b565b90505b92915050565b60008261107f5750600061106a565b8282028284828161108c57fe5b04146110675760405162461bcd60e51b81526004018080602001828103825260218152602001806113436021913960400191505060405180910390fd5b600061106783836040518060400160405280601a81526020017f536166654d6174683a206469766973696f6e206279207a65726f0000000000008152506111a2565b6000818484111561119a5760405162461bcd60e51b81526004018080602001828103825283818151815260200191508051906020019080838360005b8381101561115f578181015183820152602001611147565b50505050905090810190601f16801561118c5780820380516001836020036101000a031916815260200191505b509250505060405180910390fd5b505050900390565b600081836111f15760405162461bcd60e51b815260206004820181815283516024840152835190928392604490910191908501908083836000831561115f578181015183820152602001611147565b5060008385816111fd57fe5b0495945050505050565b6040518061010001604052806000815260200160006001600160a01b03168152602001606081526020016000815260200160008152602001600081526020016000600181111561125357fe5b8152602001600081525090565b828054600181600116156101000203166002900490600052602060002090601f016020900481019282601f106112a157805160ff19168380011785556112ce565b828001600101855582156112ce579182015b828111156112ce5782518255916020019190600101906112b3565b506112da9291506112de565b5090565b6112f891905b808211156112da57600081556001016112e4565b9056fe5570732120466565732061726520686967686572207468616e206d73672e76616c75652e2e2e557073212048656467656420616d6f756e74206d7573742062652076616c696421536166654d6174683a206d756c7469706c69636174696f6e206f766572666c6f7754686572652077617320616e206572726f7220736176696e6720796f757220486564676520706f736974696f6e55707321205468657265206973206e6f20656e6f75676820617661696c61626c65206c69717569646974792e2e2e4f7074696f6e206e6f7420666f756e6420696e206f7074696f6e732070726f766964657221a26469706673582212209b84561bb496a4e50eee8a9793e4c75be337e2f005383affe516b138ca66f79964736f6c63430006080033",
  "immutableReferences": {},
  "source": "// SPDX-License-Identifier: GPL-3.0-or-later\n\npragma solidity 0.6.8;\n\nimport './HegicOptions.sol';\nimport './HegicCallOptions.sol';\nimport './HegicPutOptions.sol';\n\n/**\n * @author jmonteer\n * @title Hegic AutoHedge\n * @notice XX\n */\n\n // TODO: Implement Hedge status\n // TODO: Implement hedging of Buy of ETH (simple: buy ATM puts)\n // TODO: Improve validations & checks using require()\n // TODO: Any implications of Hedge Expiry without exercising? Any way to implement auto close?\n // TODO: Remove double call to CalcHedge when calculating Hedge + Hedge Cost\n // TODO: comment code\n\n contract HegicHedgeContract {\n    using SafeMath for uint256;\n\n    string public name;\n    HegicCallOptions public callProvider;\n    HegicPutOptions public putProvider;\n    Hedge[] public hedges;\n\n    enum Trade{\n        Buy,\n        Sell\n    }\n\n    struct Hedge {\n        uint256 hedgeID;\n        address holder;\n        string asset;\n        uint256 amount;\n        uint256 period;\n        uint256 strike;\n        Trade direction;\n        uint256 optionID;\n    }\n\n    event Hedged(\n        uint256 hedgeID,\n        address payable holder,\n        string asset,\n        uint256 amount,\n        uint256 period,\n        uint256 strike,\n        Trade direction,\n        uint256 optionID\n    );\n\n    event ClosedHedge(\n        uint256 hedgeID,\n        address holder, \n        uint256 profit\n    );\n\n    constructor(HegicCallOptions cp, HegicPutOptions pp) public {\n        name = \"Hegic - AutoHedge\";\n        callProvider = cp;\n        putProvider = pp;\n    }\n\n    /*\n     * @nonce xx\n     **/\n    receive() external payable {}\n\n     /**\n     * @notice xx\n     * @param _ETHAmount aaa\n     */\n     function hedge(uint256 _ETHAmount) public payable {\n        require(_ETHAmount > 0, \"Ups! Hedged amount must be valid!\");\n\n        uint256 totalFees = this.calcHedgeCost(_ETHAmount);\n        require(totalFees == msg.value, \"Ups! Fees are higher than msg.value...\");\n\n        // compute what specific options are needed to buy to hedge position\n        (HegicOptions.OptionType optionType, uint256 strike, uint256 period, uint256 amount) = calcHedge(_ETHAmount);\n        \n        // buy calculated options through HegicOptions\n        buyHedge(period, amount, strike);\n\n        // log Hedge\n     }\n\n    /**\n     * @notice xx\n     * @param _ETHAmount aaa\n     */\n    function calcHedgeCost(uint256 _ETHAmount) external view returns (uint256 totalFees){\n        (HegicOptions.OptionType optionType, uint256 strike, uint256 period, uint256 amount) = calcHedge(_ETHAmount);\n        HegicOptions provider = callProvider;\n        (totalFees, , ,) = provider.fees(period, amount, strike);\n    }\n\n     /**\n     * @notice xx\n     * @param _ETHAmount aaa\n     */\n     function calcHedge(uint256 _ETHAmount) internal view returns (HegicOptions.OptionType, uint256 strike, uint256 period, uint256 amount){\n        HegicOptions provider = callProvider;\n        AggregatorInterface priceProvider = callProvider.priceProvider();\n         // basic ETH sale hedge for the next two weeks\n         // buying equivalent amount of ATM Call Options, period: 2W\n        HegicOptions.OptionType optionType = HegicOptions.OptionType.Call;\n        strike = uint256(priceProvider.latestAnswer());\n        period = 3600 * 24 * 7 * 2; // 2 weeks in seconds\n        amount = _ETHAmount;\n        return (optionType, strike, period, amount);\n     }\n\n     /**\n     * @notice xx\n     * @param _period aaa\n     * @param _amount aaa\n     * @param _strike aaa\n     */\n    function buyHedge(uint256 _period, uint256 _amount, uint256 _strike) public payable returns (uint256 optionID){\n        // switch depending on hedge\n        HegicOptions provider = callProvider;\n        HegicETHPool pool = callProvider.pool();\n\n        require(pool.availableBalance() >= _amount, \"Ups! There is no enough available liquidity...\");\n\n        optionID = provider.create{value: msg.value}(_period, _amount, _strike);\n\n        // need to check that it went right\n        //require(optionID, \"Ups! There was an error buying your hedge\");\n        uint256 hedgeID = hedges.length;\n        Hedge memory h = Hedge(\n            hedgeID,\n            msg.sender,\n            'ETH',\n            _amount,\n            _period,\n            _strike,\n            Trade.Sell,\n            optionID\n        );\n        hedges.push(h);\n\n        require(hedges.length == hedgeID + 1, 'There was an error saving your Hedge position');\n        emit Hedged(hedgeID, msg.sender, 'ETH', _amount, _period, _strike, Trade.Sell, optionID);\n\n    }\n\n     /**\n     * @notice xx\n     */\n     function closeHedge(uint256 _hedgeID) public {\n         // retrieve position from Hegic\n        HegicOptions provider = callProvider;\n        Hedge storage h = hedges[_hedgeID];\n        (HegicOptions.State oState, address payable oHolder, uint256 oStrike, uint256 oAmount, uint256 oPremium, uint256 oExpiration) = provider.options(h.optionID);\n         // validations\n        require(oPremium != 0, \"Option not found in options provider!\");\n        // require(oHolder == h.holder, \"Option retrieved has other holders address on it\");\n\n         // exercise position from Hegic\n         provider.exercise(h.optionID);\n        //How to check that everything executed correctly?\n\n         // pay user (holder of hedge)\n        uint256 profit = calcHedgeProfit(_hedgeID);\n         // calc obtained profit\n        payable(h.holder).transfer(profit);\n         // save hedge's new state\n        // importante: change memory to storage when declaring h\n\n         // emit event\n        emit ClosedHedge(_hedgeID, h.holder, profit);\n     }\n\n    // function toString(bytes memory data) public pure returns(string memory) {\n    //     bytes memory alphabet = \"0123456789abcdef\";\n\n    //     bytes memory str = new bytes(2 + data.length * 2);\n    //     str[0] = '0';\n    //     str[1] = 'x';\n    //     for (uint i = 0; i < data.length; i++) {\n    //         str[2+i*2] = alphabet[uint(uint8(data[i] >> 4))];\n    //         str[3+i*2] = alphabet[uint(uint8(data[i] & 0x0f))];\n    //     }\n    //     return string(str);\n    // }\n\n     /**\n     * @notice xx\n     */\n     function calcHedgeProfit(uint256 _hedgeID) public returns (uint256 profit) {\n         HegicOptions provider = callProvider;\n         Hedge memory h = hedges[_hedgeID];\n         AggregatorInterface priceProvider = provider.priceProvider();\n         uint256 currentPrice = uint256(priceProvider.latestAnswer());\n         profit = currentPrice.sub(h.strike).mul(h.amount).div(currentPrice);\n\n         return profit;\n     }\n\n     \n\n }",
  "sourcePath": "/home/tom/Desktop/Medium/defi_cefi_bridge/tontine/hedge-contracts-v1/contracts/HegicHedgeContract.sol",
  "compiler": {
    "name": "solc",
    "version": "0.6.8+commit.0bbfe453.Emscripten.clang"
  },
  "schemaVersion": "3.2.3",
  "updatedAt": "2020-08-17T15:19:03.289Z",
  "networkType": "ethereum",
  "devdoc": {
    "author": "jmonteer",
    "methods": {
      "buyHedge(uint256,uint256,uint256)": {
        "params": {
          "_amount": "aaa",
          "_period": "aaa",
          "_strike": "aaa"
        }
      },
      "calcHedgeCost(uint256)": {
        "params": {
          "_ETHAmount": "aaa"
        }
      },
      "hedge(uint256)": {
        "params": {
          "_ETHAmount": "aaa"
        }
      }
    },
    "title": "Hegic AutoHedge"
  },
  "userdoc": {
    "methods": {
      "buyHedge(uint256,uint256,uint256)": {
        "notice": "xx"
      },
      "calcHedgeCost(uint256)": {
        "notice": "xx"
      },
      "calcHedgeProfit(uint256)": {
        "notice": "xx"
      },
      "closeHedge(uint256)": {
        "notice": "xx"
      },
      "hedge(uint256)": {
        "notice": "xx"
      }
    },
    "notice": "XX"
  }
}